{"abi":[{"type":"constructor","inputs":[{"name":"_rewardToken","type":"address","internalType":"address"}],"stateMutability":"nonpayable"},{"type":"function","name":"ENTERPRISE_SUBSCRIPTION_PRICE","inputs":[],"outputs":[{"name":"","type":"uint256","internalType":"uint256"}],"stateMutability":"view"},{"type":"function","name":"PRO_SUBSCRIPTION_PRICE","inputs":[],"outputs":[{"name":"","type":"uint256","internalType":"uint256"}],"stateMutability":"view"},{"type":"function","name":"REWARD_PER_ANALYSIS","inputs":[],"outputs":[{"name":"","type":"uint256","internalType":"uint256"}],"stateMutability":"view"},{"type":"function","name":"claimRewards","inputs":[],"outputs":[],"stateMutability":"nonpayable"},{"type":"function","name":"createAlert","inputs":[{"name":"_alertType","type":"uint8","internalType":"uint8"},{"name":"_conditions","type":"string","internalType":"string"}],"outputs":[{"name":"alertId","type":"uint256","internalType":"uint256"}],"stateMutability":"nonpayable"},{"type":"function","name":"emergencyWithdraw","inputs":[{"name":"_token","type":"address","internalType":"address"}],"outputs":[],"stateMutability":"nonpayable"},{"type":"function","name":"getLatestPortfolio","inputs":[{"name":"_user","type":"address","internalType":"address"}],"outputs":[{"name":"","type":"tuple","internalType":"struct ChainHive.PortfolioSnapshot","components":[{"name":"dataHash","type":"string","internalType":"string"},{"name":"totalValue","type":"uint256","internalType":"uint256"},{"name":"timestamp","type":"uint256","internalType":"uint256"},{"name":"riskScore","type":"uint8","internalType":"uint8"},{"name":"diversificationScore","type":"uint8","internalType":"uint8"}]}],"stateMutability":"view"},{"type":"function","name":"getPortfolioHistory","inputs":[{"name":"_user","type":"address","internalType":"address"}],"outputs":[{"name":"","type":"tuple[]","internalType":"struct ChainHive.PortfolioSnapshot[]","components":[{"name":"dataHash","type":"string","internalType":"string"},{"name":"totalValue","type":"uint256","internalType":"uint256"},{"name":"timestamp","type":"uint256","internalType":"uint256"},{"name":"riskScore","type":"uint8","internalType":"uint8"},{"name":"diversificationScore","type":"uint8","internalType":"uint8"}]}],"stateMutability":"view"},{"type":"function","name":"getUserAlerts","inputs":[{"name":"_user","type":"address","internalType":"address"}],"outputs":[{"name":"","type":"tuple[]","internalType":"struct ChainHive.Alert[]","components":[{"name":"alertType","type":"uint8","internalType":"uint8"},{"name":"conditions","type":"string","internalType":"string"},{"name":"isActive","type":"bool","internalType":"bool"},{"name":"createdAt","type":"uint256","internalType":"uint256"},{"name":"triggeredCount","type":"uint256","internalType":"uint256"}]}],"stateMutability":"view"},{"type":"function","name":"getUserInsights","inputs":[{"name":"_user","type":"address","internalType":"address"}],"outputs":[{"name":"","type":"tuple[]","internalType":"struct ChainHive.AIInsight[]","components":[{"name":"contentHash","type":"string","internalType":"string"},{"name":"insightType","type":"uint8","internalType":"uint8"},{"name":"timestamp","type":"uint256","internalType":"uint256"},{"name":"confidenceScore","type":"uint8","internalType":"uint8"},{"name":"isPublic","type":"bool","internalType":"bool"}]}],"stateMutability":"view"},{"type":"function","name":"getUserProfile","inputs":[{"name":"_user","type":"address","internalType":"address"}],"outputs":[{"name":"","type":"tuple","internalType":"struct ChainHive.UserProfile","components":[{"name":"profileHash","type":"string","internalType":"string"},{"name":"registrationTime","type":"uint256","internalType":"uint256"},{"name":"subscriptionTier","type":"uint8","internalType":"uint8"},{"name":"subscriptionExpiry","type":"uint256","internalType":"uint256"},{"name":"totalAnalyses","type":"uint256","internalType":"uint256"},{"name":"rewardsEarned","type":"uint256","internalType":"uint256"},{"name":"isActive","type":"bool","internalType":"bool"}]}],"stateMutability":"view"},{"type":"function","name":"owner","inputs":[],"outputs":[{"name":"","type":"address","internalType":"address"}],"stateMutability":"view"},{"type":"function","name":"pause","inputs":[],"outputs":[],"stateMutability":"nonpayable"},{"type":"function","name":"paused","inputs":[],"outputs":[{"name":"","type":"bool","internalType":"bool"}],"stateMutability":"view"},{"type":"function","name":"portfolioHistory","inputs":[{"name":"","type":"address","internalType":"address"},{"name":"","type":"uint256","internalType":"uint256"}],"outputs":[{"name":"dataHash","type":"string","internalType":"string"},{"name":"totalValue","type":"uint256","internalType":"uint256"},{"name":"timestamp","type":"uint256","internalType":"uint256"},{"name":"riskScore","type":"uint8","internalType":"uint8"},{"name":"diversificationScore","type":"uint8","internalType":"uint8"}],"stateMutability":"view"},{"type":"function","name":"purchaseSubscription","inputs":[{"name":"_tier","type":"uint8","internalType":"uint8"}],"outputs":[],"stateMutability":"nonpayable"},{"type":"function","name":"recordPortfolioAnalysis","inputs":[{"name":"_dataHash","type":"string","internalType":"string"},{"name":"_totalValue","type":"uint256","internalType":"uint256"},{"name":"_riskScore","type":"uint8","internalType":"uint8"},{"name":"_diversificationScore","type":"uint8","internalType":"uint8"}],"outputs":[],"stateMutability":"nonpayable"},{"type":"function","name":"registerUser","inputs":[{"name":"_profileHash","type":"string","internalType":"string"}],"outputs":[],"stateMutability":"nonpayable"},{"type":"function","name":"renounceOwnership","inputs":[],"outputs":[],"stateMutability":"nonpayable"},{"type":"function","name":"rewardToken","inputs":[],"outputs":[{"name":"","type":"address","internalType":"address"}],"stateMutability":"view"},{"type":"function","name":"setRewardToken","inputs":[{"name":"_newToken","type":"address","internalType":"address"}],"outputs":[],"stateMutability":"nonpayable"},{"type":"function","name":"storeAIInsight","inputs":[{"name":"_contentHash","type":"string","internalType":"string"},{"name":"_insightType","type":"uint8","internalType":"uint8"},{"name":"_confidenceScore","type":"uint8","internalType":"uint8"},{"name":"_isPublic","type":"bool","internalType":"bool"}],"outputs":[],"stateMutability":"nonpayable"},{"type":"function","name":"toggleAlert","inputs":[{"name":"_alertId","type":"uint256","internalType":"uint256"}],"outputs":[],"stateMutability":"nonpayable"},{"type":"function","name":"totalAnalyses","inputs":[],"outputs":[{"name":"","type":"uint256","internalType":"uint256"}],"stateMutability":"view"},{"type":"function","name":"totalUsers","inputs":[],"outputs":[{"name":"","type":"uint256","internalType":"uint256"}],"stateMutability":"view"},{"type":"function","name":"transferOwnership","inputs":[{"name":"newOwner","type":"address","internalType":"address"}],"outputs":[],"stateMutability":"nonpayable"},{"type":"function","name":"triggerAlert","inputs":[{"name":"_user","type":"address","internalType":"address"},{"name":"_alertId","type":"uint256","internalType":"uint256"},{"name":"_data","type":"string","internalType":"string"}],"outputs":[],"stateMutability":"nonpayable"},{"type":"function","name":"unpause","inputs":[],"outputs":[],"stateMutability":"nonpayable"},{"type":"function","name":"updateProfile","inputs":[{"name":"_profileHash","type":"string","internalType":"string"}],"outputs":[],"stateMutability":"nonpayable"},{"type":"function","name":"userAlerts","inputs":[{"name":"","type":"address","internalType":"address"},{"name":"","type":"uint256","internalType":"uint256"}],"outputs":[{"name":"alertType","type":"uint8","internalType":"uint8"},{"name":"conditions","type":"string","internalType":"string"},{"name":"isActive","type":"bool","internalType":"bool"},{"name":"createdAt","type":"uint256","internalType":"uint256"},{"name":"triggeredCount","type":"uint256","internalType":"uint256"}],"stateMutability":"view"},{"type":"function","name":"userInsights","inputs":[{"name":"","type":"address","internalType":"address"},{"name":"","type":"uint256","internalType":"uint256"}],"outputs":[{"name":"contentHash","type":"string","internalType":"string"},{"name":"insightType","type":"uint8","internalType":"uint8"},{"name":"timestamp","type":"uint256","internalType":"uint256"},{"name":"confidenceScore","type":"uint8","internalType":"uint8"},{"name":"isPublic","type":"bool","internalType":"bool"}],"stateMutability":"view"},{"type":"function","name":"userProfiles","inputs":[{"name":"","type":"address","internalType":"address"}],"outputs":[{"name":"profileHash","type":"string","internalType":"string"},{"name":"registrationTime","type":"uint256","internalType":"uint256"},{"name":"subscriptionTier","type":"uint8","internalType":"uint8"},{"name":"subscriptionExpiry","type":"uint256","internalType":"uint256"},{"name":"totalAnalyses","type":"uint256","internalType":"uint256"},{"name":"rewardsEarned","type":"uint256","internalType":"uint256"},{"name":"isActive","type":"bool","internalType":"bool"}],"stateMutability":"view"},{"type":"function","name":"userRewards","inputs":[{"name":"","type":"address","internalType":"address"}],"outputs":[{"name":"","type":"uint256","internalType":"uint256"}],"stateMutability":"view"},{"type":"function","name":"withdrawFees","inputs":[],"outputs":[],"stateMutability":"nonpayable"},{"type":"event","name":"AIInsightGenerated","inputs":[{"name":"user","type":"address","indexed":true,"internalType":"address"},{"name":"insightHash","type":"string","indexed":false,"internalType":"string"},{"name":"insightType","type":"uint8","indexed":false,"internalType":"uint8"}],"anonymous":false},{"type":"event","name":"AlertCreated","inputs":[{"name":"user","type":"address","indexed":true,"internalType":"address"},{"name":"alertId","type":"uint256","indexed":false,"internalType":"uint256"},{"name":"alertType","type":"uint8","indexed":false,"internalType":"uint8"}],"anonymous":false},{"type":"event","name":"AlertTriggered","inputs":[{"name":"user","type":"address","indexed":true,"internalType":"address"},{"name":"alertId","type":"uint256","indexed":false,"internalType":"uint256"},{"name":"data","type":"string","indexed":false,"internalType":"string"}],"anonymous":false},{"type":"event","name":"OwnershipTransferred","inputs":[{"name":"previousOwner","type":"address","indexed":true,"internalType":"address"},{"name":"newOwner","type":"address","indexed":true,"internalType":"address"}],"anonymous":false},{"type":"event","name":"Paused","inputs":[{"name":"account","type":"address","indexed":false,"internalType":"address"}],"anonymous":false},{"type":"event","name":"PortfolioAnalyzed","inputs":[{"name":"user","type":"address","indexed":true,"internalType":"address"},{"name":"portfolioHash","type":"string","indexed":false,"internalType":"string"},{"name":"timestamp","type":"uint256","indexed":false,"internalType":"uint256"}],"anonymous":false},{"type":"event","name":"RewardsClaimed","inputs":[{"name":"user","type":"address","indexed":true,"internalType":"address"},{"name":"amount","type":"uint256","indexed":false,"internalType":"uint256"}],"anonymous":false},{"type":"event","name":"SubscriptionPurchased","inputs":[{"name":"user","type":"address","indexed":true,"internalType":"address"},{"name":"tier","type":"uint8","indexed":false,"internalType":"uint8"},{"name":"expiresAt","type":"uint256","indexed":false,"internalType":"uint256"}],"anonymous":false},{"type":"event","name":"Unpaused","inputs":[{"name":"account","type":"address","indexed":false,"internalType":"address"}],"anonymous":false},{"type":"event","name":"UserRegistered","inputs":[{"name":"user","type":"address","indexed":true,"internalType":"address"},{"name":"profileHash","type":"string","indexed":false,"internalType":"string"}],"anonymous":false},{"type":"error","name":"EnforcedPause","inputs":[]},{"type":"error","name":"ExpectedPause","inputs":[]},{"type":"error","name":"OwnableInvalidOwner","inputs":[{"name":"owner","type":"address","internalType":"address"}]},{"type":"error","name":"OwnableUnauthorizedAccount","inputs":[{"name":"account","type":"address","internalType":"address"}]},{"type":"error","name":"ReentrancyGuardReentrantCall","inputs":[]}],"bytecode":{"object":"0x608060405234801561000f575f5ffd5b506040516149003803806149008339818101604052810190610031919061021e565b335f73ffffffffffffffffffffffffffffffffffffffff168173ffffffffffffffffffffffffffffffffffffffff16036100a2575f6040517f1e4fbdf70000000000000000000000000000000000000000000000000000000081526004016100999190610258565b60405180910390fd5b6100b1816100ff60201b60201c565b50600180819055508060085f6101000a81548173ffffffffffffffffffffffffffffffffffffffff021916908373ffffffffffffffffffffffffffffffffffffffff16021790555050610271565b5f5f5f9054906101000a900473ffffffffffffffffffffffffffffffffffffffff169050815f5f6101000a81548173ffffffffffffffffffffffffffffffffffffffff021916908373ffffffffffffffffffffffffffffffffffffffff1602179055508173ffffffffffffffffffffffffffffffffffffffff168173ffffffffffffffffffffffffffffffffffffffff167f8be0079c531659141344cd1fd0a4f28419497f9722a3daafe3b4186f6b6457e060405160405180910390a35050565b5f5ffd5b5f73ffffffffffffffffffffffffffffffffffffffff82169050919050565b5f6101ed826101c4565b9050919050565b6101fd816101e3565b8114610207575f5ffd5b50565b5f81519050610218816101f4565b92915050565b5f60208284031215610233576102326101c0565b5b5f6102408482850161020a565b91505092915050565b610252816101e3565b82525050565b5f60208201905061026b5f830184610249565b92915050565b6146828061027e5f395ff3fe608060405234801561000f575f5ffd5b5060043610610203575f3560e01c80637afc40ec11610118578063b8bf2dc2116100ab578063cb9ba7361161007a578063cb9ba736146105ad578063cbc5c592146105dd578063d9afd474146105f9578063f2fde38b14610629578063f7c618c11461064557610203565b8063b8bf2dc214610527578063bff1f9e114610557578063c3acedbd14610575578063c8b5e4961461059157610203565b80638da5cb5b116100e75780638da5cb5b14610479578063987ee15614610497578063a0c82ff9146104c7578063b72cf77a146104f757610203565b80637afc40ec146104015780637fa411961461041f5780638456cb59146104535780638aee81271461045d57610203565b80633f4ba83a1161019b5780636db5e0c61161016a5780636db5e0c61461036d5780636ff1c9bc146103a1578063704f1b94146103bd578063715018a6146103d957806375f3a805146103e357610203565b80633f4ba83a1461031d57806341d777cd14610327578063476343ee146103455780635c975abb1461034f57610203565b80632cb53a9a116101d75780632cb53a9a146102a3578063332d56d7146102bf578063372500ab146102f55780633c98a073146102ff57610203565b80629299e3146102075780630660f1e81461022357806312416b87146102535780631b1cdffd14610287575b5f5ffd5b610221600480360381019061021c9190612f8d565b610663565b005b61023d6004803603810190610238919061302e565b61073f565b60405161024a9190613071565b60405180910390f35b61026d600480360381019061026891906130b4565b610754565b60405161027e959493929190613187565b60405180910390f35b6102a1600480360381019061029c9190613209565b61084b565b005b6102bd60048036038101906102b891906132b3565b610c2f565b005b6102d960048036038101906102d4919061302e565b610ed1565b6040516102ec9796959493929190613333565b60405180910390f35b6102fd610fad565b005b6103076111fc565b6040516103149190613071565b60405180910390f35b610325611209565b005b61032f61121b565b60405161033c9190613071565b60405180910390f35b61034d611228565b005b61035761136e565b60405161036491906133a7565b60405180910390f35b610387600480360381019061038291906130b4565b611383565b6040516103989594939291906133c0565b60405180910390f35b6103bb60048036038101906103b6919061302e565b61146d565b005b6103d760048036038101906103d29190612f8d565b611572565b005b6103e161175b565b005b6103eb61176e565b6040516103f89190613071565b60405180910390f35b610409611774565b6040516104169190613071565b60405180910390f35b610439600480360381019061043491906130b4565b611780565b60405161044a959493929190613418565b60405180910390f35b61045b61186b565b005b6104776004803603810190610472919061302e565b61187d565b005b6104816118c8565b60405161048e919061347f565b60405180910390f35b6104b160048036038101906104ac919061302e565b6118ef565b6040516104be91906135a6565b60405180910390f35b6104e160048036038101906104dc919061302e565b611a33565b6040516104ee9190613639565b60405180910390f35b610511600480360381019061050c919061302e565b611c52565b60405161051e9190613787565b60405180910390f35b610541600480360381019061053c91906137a7565b611dd7565b60405161054e9190613071565b60405180910390f35b61055f61204d565b60405161056c9190613071565b60405180910390f35b61058f600480360381019061058a9190613801565b612053565b005b6105ab60048036038101906105a6919061382c565b612244565b005b6105c760048036038101906105c2919061302e565b6123be565b6040516105d491906139c6565b60405180910390f35b6105f760048036038101906105f291906139e6565b612530565b005b610613600480360381019061060e919061302e565b612826565b6040516106209190613b3f565b60405180910390f35b610643600480360381019061063e919061302e565b61299b565b005b61064d612a1f565b60405161065a919061347f565b60405180910390f35b60035f3373ffffffffffffffffffffffffffffffffffffffff1673ffffffffffffffffffffffffffffffffffffffff1681526020019081526020015f206006015f9054906101000a900460ff166106ef576040517f08c379a00000000000000000000000000000000000000000000000000000000081526004016106e690613ba9565b60405180910390fd5b8060035f3373ffffffffffffffffffffffffffffffffffffffff1673ffffffffffffffffffffffffffffffffffffffff1681526020019081526020015f205f01908161073b9190613dc4565b5050565b6007602052805f5260405f205f915090505481565b6005602052815f5260405f20818154811061076d575f80fd5b905f5260205f2090600402015f9150915050805f01805461078d90613bf4565b80601f01602080910402602001604051908101604052809291908181526020018280546107b990613bf4565b80156108045780601f106107db57610100808354040283529160200191610804565b820191905f5260205f20905b8154815290600101906020018083116107e757829003601f168201915b505050505090806001015f9054906101000a900460ff1690806002015490806003015f9054906101000a900460ff16908060030160019054906101000a900460ff16905085565b60035f3373ffffffffffffffffffffffffffffffffffffffff1673ffffffffffffffffffffffffffffffffffffffff1681526020019081526020015f206006015f9054906101000a900460ff166108d7576040517f08c379a00000000000000000000000000000000000000000000000000000000081526004016108ce90613ba9565b60405180910390fd5b5f60035f3373ffffffffffffffffffffffffffffffffffffffff1673ffffffffffffffffffffffffffffffffffffffff1681526020019081526020015f206002015f9054906101000a900460ff1660ff16148061097357504260035f3373ffffffffffffffffffffffffffffffffffffffff1673ffffffffffffffffffffffffffffffffffffffff1681526020019081526020015f2060030154115b6109b2576040517f08c379a00000000000000000000000000000000000000000000000000000000081526004016109a990613edd565b60405180910390fd5b60018260ff16101580156109ca5750600a8260ff1611155b610a09576040517f08c379a0000000000000000000000000000000000000000000000000000000008152600401610a0090613f45565b60405180910390fd5b60018160ff1610158015610a215750600a8160ff1611155b610a60576040517f08c379a0000000000000000000000000000000000000000000000000000000008152600401610a5790613fad565b60405180910390fd5b60045f3373ffffffffffffffffffffffffffffffffffffffff1673ffffffffffffffffffffffffffffffffffffffff1681526020019081526020015f206040518060a001604052808681526020018581526020014281526020018460ff1681526020018360ff16815250908060018154018082558091505060019003905f5260205f2090600402015f909190919091505f820151815f019081610b039190613dc4565b5060208201518160010155604082015181600201556060820151816003015f6101000a81548160ff021916908360ff16021790555060808201518160030160016101000a81548160ff021916908360ff160217905550505060035f3373ffffffffffffffffffffffffffffffffffffffff1673ffffffffffffffffffffffffffffffffffffffff1681526020019081526020015f206004015f815480929190610bab90613ff8565b9190505550600a5f815480929190610bc290613ff8565b9190505550610bd933678ac7230489e80000612a44565b3373ffffffffffffffffffffffffffffffffffffffff167fb3a7bb190f284cde55d01838881a925939ad0570c8f3b49ab8b75557d360a8778542604051610c2192919061403f565b60405180910390a250505050565b60035f3373ffffffffffffffffffffffffffffffffffffffff1673ffffffffffffffffffffffffffffffffffffffff1681526020019081526020015f206006015f9054906101000a900460ff16610cbb576040517f08c379a0000000000000000000000000000000000000000000000000000000008152600401610cb290613ba9565b60405180910390fd5b60018360ff1610158015610cd3575060048360ff1611155b610d12576040517f08c379a0000000000000000000000000000000000000000000000000000000008152600401610d09906140b7565b60405180910390fd5b60018260ff1610158015610d2a575060648260ff1611155b610d69576040517f08c379a0000000000000000000000000000000000000000000000000000000008152600401610d609061411f565b60405180910390fd5b60055f3373ffffffffffffffffffffffffffffffffffffffff1673ffffffffffffffffffffffffffffffffffffffff1681526020019081526020015f206040518060a001604052808681526020018560ff1681526020014281526020018460ff168152602001831515815250908060018154018082558091505060019003905f5260205f2090600402015f909190919091505f820151815f019081610e0e9190613dc4565b506020820151816001015f6101000a81548160ff021916908360ff160217905550604082015181600201556060820151816003015f6101000a81548160ff021916908360ff16021790555060808201518160030160016101000a81548160ff02191690831515021790555050503373ffffffffffffffffffffffffffffffffffffffff167f6a55664a5f60be6e4d269abd2bddb5aa32bbca9b2c54d91dc59ae43ce94ae2cf8585604051610ec392919061413d565b60405180910390a250505050565b6003602052805f5260405f205f91509050805f018054610ef090613bf4565b80601f0160208091040260200160405190810160405280929190818152602001828054610f1c90613bf4565b8015610f675780601f10610f3e57610100808354040283529160200191610f67565b820191905f5260205f20905b815481529060010190602001808311610f4a57829003601f168201915b505050505090806001015490806002015f9054906101000a900460ff1690806003015490806004015490806005015490806006015f9054906101000a900460ff16905087565b60035f3373ffffffffffffffffffffffffffffffffffffffff1673ffffffffffffffffffffffffffffffffffffffff1681526020019081526020015f206006015f9054906101000a900460ff16611039576040517f08c379a000000000000000000000000000000000000000000000000000000000815260040161103090613ba9565b60405180910390fd5b611041612af1565b5f60075f3373ffffffffffffffffffffffffffffffffffffffff1673ffffffffffffffffffffffffffffffffffffffff1681526020019081526020015f205490505f81116110c4576040517f08c379a00000000000000000000000000000000000000000000000000000000081526004016110bb906141b5565b60405180910390fd5b5f60075f3373ffffffffffffffffffffffffffffffffffffffff1673ffffffffffffffffffffffffffffffffffffffff1681526020019081526020015f208190555060085f9054906101000a900473ffffffffffffffffffffffffffffffffffffffff1673ffffffffffffffffffffffffffffffffffffffff1663a9059cbb33836040518363ffffffff1660e01b81526004016111629291906141d3565b6020604051808303815f875af115801561117e573d5f5f3e3d5ffd5b505050506040513d601f19601f820116820180604052508101906111a2919061420e565b503373ffffffffffffffffffffffffffffffffffffffff167ffc30cddea38e2bf4d6ea7d3f9ed3b6ad7f176419f4963bd81318067a4aee73fe826040516111e99190613071565b60405180910390a2506111fa612b37565b565b6802b5e3af16b188000081565b611211612b40565b611219612bc7565b565b680ad78ebc5ac620000081565b611230612b40565b60085f9054906101000a900473ffffffffffffffffffffffffffffffffffffffff1673ffffffffffffffffffffffffffffffffffffffff1663a9059cbb6112756118c8565b60085f9054906101000a900473ffffffffffffffffffffffffffffffffffffffff1673ffffffffffffffffffffffffffffffffffffffff166370a08231306040518263ffffffff1660e01b81526004016112cf919061347f565b602060405180830381865afa1580156112ea573d5f5f3e3d5ffd5b505050506040513d601f19601f8201168201806040525081019061130e919061424d565b6040518363ffffffff1660e01b815260040161132b9291906141d3565b6020604051808303815f875af1158015611347573d5f5f3e3d5ffd5b505050506040513d601f19601f8201168201806040525081019061136b919061420e565b50565b5f60025f9054906101000a900460ff16905090565b6006602052815f5260405f20818154811061139c575f80fd5b905f5260205f2090600502015f9150915050805f015f9054906101000a900460ff16908060010180546113ce90613bf4565b80601f01602080910402602001604051908101604052809291908181526020018280546113fa90613bf4565b80156114455780601f1061141c57610100808354040283529160200191611445565b820191905f5260205f20905b81548152906001019060200180831161142857829003601f168201915b505050505090806002015f9054906101000a900460ff16908060030154908060040154905085565b611475612b40565b8073ffffffffffffffffffffffffffffffffffffffff1663a9059cbb6114996118c8565b8373ffffffffffffffffffffffffffffffffffffffff166370a08231306040518263ffffffff1660e01b81526004016114d2919061347f565b602060405180830381865afa1580156114ed573d5f5f3e3d5ffd5b505050506040513d601f19601f82011682018060405250810190611511919061424d565b6040518363ffffffff1660e01b815260040161152e9291906141d3565b6020604051808303815f875af115801561154a573d5f5f3e3d5ffd5b505050506040513d601f19601f8201168201806040525081019061156e919061420e565b5050565b60035f3373ffffffffffffffffffffffffffffffffffffffff1673ffffffffffffffffffffffffffffffffffffffff1681526020019081526020015f206006015f9054906101000a900460ff16156115ff576040517f08c379a00000000000000000000000000000000000000000000000000000000081526004016115f6906142c2565b60405180910390fd5b6040518060e001604052808281526020014281526020015f60ff1681526020015f81526020015f81526020015f81526020016001151581525060035f3373ffffffffffffffffffffffffffffffffffffffff1673ffffffffffffffffffffffffffffffffffffffff1681526020019081526020015f205f820151815f0190816116889190613dc4565b50602082015181600101556040820151816002015f6101000a81548160ff021916908360ff160217905550606082015181600301556080820151816004015560a0820151816005015560c0820151816006015f6101000a81548160ff02191690831515021790555090505060095f81548092919061170590613ff8565b91905055503373ffffffffffffffffffffffffffffffffffffffff167f48cac28ad4dc618e15f4c2dd5e97751182f166de97b25618318b2112aa951a2f8260405161175091906142e0565b60405180910390a250565b611763612b40565b61176c5f612c28565b565b600a5481565b678ac7230489e8000081565b6004602052815f5260405f208181548110611799575f80fd5b905f5260205f2090600402015f9150915050805f0180546117b990613bf4565b80601f01602080910402602001604051908101604052809291908181526020018280546117e590613bf4565b80156118305780601f1061180757610100808354040283529160200191611830565b820191905f5260205f20905b81548152906001019060200180831161181357829003601f168201915b505050505090806001015490806002015490806003015f9054906101000a900460ff16908060030160019054906101000a900460ff16905085565b611873612b40565b61187b612ce9565b565b611885612b40565b8060085f6101000a81548173ffffffffffffffffffffffffffffffffffffffff021916908373ffffffffffffffffffffffffffffffffffffffff16021790555050565b5f5f5f9054906101000a900473ffffffffffffffffffffffffffffffffffffffff16905090565b6118f7612dd3565b60035f8373ffffffffffffffffffffffffffffffffffffffff1673ffffffffffffffffffffffffffffffffffffffff1681526020019081526020015f206040518060e00160405290815f8201805461194e90613bf4565b80601f016020809104026020016040519081016040528092919081815260200182805461197a90613bf4565b80156119c55780601f1061199c576101008083540402835291602001916119c5565b820191905f5260205f20905b8154815290600101906020018083116119a857829003601f168201915b5050505050815260200160018201548152602001600282015f9054906101000a900460ff1660ff1660ff168152602001600382015481526020016004820154815260200160058201548152602001600682015f9054906101000a900460ff1615151515815250509050919050565b611a3b612e0f565b5f60045f8473ffffffffffffffffffffffffffffffffffffffff1673ffffffffffffffffffffffffffffffffffffffff1681526020019081526020015f208054905011611abd576040517f08c379a0000000000000000000000000000000000000000000000000000000008152600401611ab49061434a565b60405180910390fd5b60045f8373ffffffffffffffffffffffffffffffffffffffff1673ffffffffffffffffffffffffffffffffffffffff1681526020019081526020015f20600160045f8573ffffffffffffffffffffffffffffffffffffffff1673ffffffffffffffffffffffffffffffffffffffff1681526020019081526020015f2080549050611b479190614368565b81548110611b5857611b5761439b565b5b905f5260205f2090600402016040518060a00160405290815f82018054611b7e90613bf4565b80601f0160208091040260200160405190810160405280929190818152602001828054611baa90613bf4565b8015611bf55780601f10611bcc57610100808354040283529160200191611bf5565b820191905f5260205f20905b815481529060010190602001808311611bd857829003601f168201915b505050505081526020016001820154815260200160028201548152602001600382015f9054906101000a900460ff1660ff1660ff1681526020016003820160019054906101000a900460ff1660ff1660ff16815250509050919050565b606060055f8373ffffffffffffffffffffffffffffffffffffffff1673ffffffffffffffffffffffffffffffffffffffff1681526020019081526020015f20805480602002602001604051908101604052809291908181526020015f905b82821015611dcc578382905f5260205f2090600402016040518060a00160405290815f82018054611ce090613bf4565b80601f0160208091040260200160405190810160405280929190818152602001828054611d0c90613bf4565b8015611d575780601f10611d2e57610100808354040283529160200191611d57565b820191905f5260205f20905b815481529060010190602001808311611d3a57829003601f168201915b50505050508152602001600182015f9054906101000a900460ff1660ff1660ff16815260200160028201548152602001600382015f9054906101000a900460ff1660ff1660ff1681526020016003820160019054906101000a900460ff16151515158152505081526020019060010190611cb0565b505050509050919050565b5f60035f3373ffffffffffffffffffffffffffffffffffffffff1673ffffffffffffffffffffffffffffffffffffffff1681526020019081526020015f206006015f9054906101000a900460ff16611e64576040517f08c379a0000000000000000000000000000000000000000000000000000000008152600401611e5b90613ba9565b60405180910390fd5b60018360ff1610158015611e7c575060048360ff1611155b611ebb576040517f08c379a0000000000000000000000000000000000000000000000000000000008152600401611eb290614412565b60405180910390fd5b60065f3373ffffffffffffffffffffffffffffffffffffffff1673ffffffffffffffffffffffffffffffffffffffff1681526020019081526020015f2080549050905060065f3373ffffffffffffffffffffffffffffffffffffffff1673ffffffffffffffffffffffffffffffffffffffff1681526020019081526020015f206040518060a001604052808560ff1681526020018481526020016001151581526020014281526020015f815250908060018154018082558091505060019003905f5260205f2090600502015f909190919091505f820151815f015f6101000a81548160ff021916908360ff1602179055506020820151816001019081611fc19190613dc4565b506040820151816002015f6101000a81548160ff021916908315150217905550606082015181600301556080820151816004015550503373ffffffffffffffffffffffffffffffffffffffff167f4d7abac6ea3533a29985487a9674ed6e762927415f7d5527b8e1291860f74b01828560405161203f929190614430565b60405180910390a292915050565b60095481565b60035f3373ffffffffffffffffffffffffffffffffffffffff1673ffffffffffffffffffffffffffffffffffffffff1681526020019081526020015f206006015f9054906101000a900460ff166120df576040517f08c379a00000000000000000000000000000000000000000000000000000000081526004016120d690613ba9565b60405180910390fd5b60065f3373ffffffffffffffffffffffffffffffffffffffff1673ffffffffffffffffffffffffffffffffffffffff1681526020019081526020015f20805490508110612161576040517f08c379a0000000000000000000000000000000000000000000000000000000008152600401612158906144a1565b60405180910390fd5b60065f3373ffffffffffffffffffffffffffffffffffffffff1673ffffffffffffffffffffffffffffffffffffffff1681526020019081526020015f2081815481106121b0576121af61439b565b5b905f5260205f2090600502016002015f9054906101000a900460ff161560065f3373ffffffffffffffffffffffffffffffffffffffff1673ffffffffffffffffffffffffffffffffffffffff1681526020019081526020015f20828154811061221c5761221b61439b565b5b905f5260205f2090600502016002015f6101000a81548160ff02191690831515021790555050565b61224c612b40565b60065f8473ffffffffffffffffffffffffffffffffffffffff1673ffffffffffffffffffffffffffffffffffffffff1681526020019081526020015f20828154811061229b5761229a61439b565b5b905f5260205f2090600502016002015f9054906101000a900460ff166122f6576040517f08c379a00000000000000000000000000000000000000000000000000000000081526004016122ed90614509565b60405180910390fd5b60065f8473ffffffffffffffffffffffffffffffffffffffff1673ffffffffffffffffffffffffffffffffffffffff1681526020019081526020015f2082815481106123455761234461439b565b5b905f5260205f2090600502016004015f81548092919061236490613ff8565b91905055508273ffffffffffffffffffffffffffffffffffffffff167f5a1ec692cef6a04914d6790b17ac3cc1e6d129abf2129c7f41ab6ef693e38fea83836040516123b1929190614527565b60405180910390a2505050565b606060065f8373ffffffffffffffffffffffffffffffffffffffff1673ffffffffffffffffffffffffffffffffffffffff1681526020019081526020015f20805480602002602001604051908101604052809291908181526020015f905b82821015612525578382905f5260205f2090600502016040518060a00160405290815f82015f9054906101000a900460ff1660ff1660ff16815260200160018201805461246890613bf4565b80601f016020809104026020016040519081016040528092919081815260200182805461249490613bf4565b80156124df5780601f106124b6576101008083540402835291602001916124df565b820191905f5260205f20905b8154815290600101906020018083116124c257829003601f168201915b50505050508152602001600282015f9054906101000a900460ff16151515158152602001600382015481526020016004820154815250508152602001906001019061241c565b505050509050919050565b60035f3373ffffffffffffffffffffffffffffffffffffffff1673ffffffffffffffffffffffffffffffffffffffff1681526020019081526020015f206006015f9054906101000a900460ff166125bc576040517f08c379a00000000000000000000000000000000000000000000000000000000081526004016125b390613ba9565b60405180910390fd5b6125c4612af1565b60018160ff1614806125d9575060028160ff16145b612618576040517f08c379a000000000000000000000000000000000000000000000000000000000815260040161260f9061459f565b60405180910390fd5b5f60018260ff161461263357680ad78ebc5ac620000061263e565b6802b5e3af16b18800005b905060085f9054906101000a900473ffffffffffffffffffffffffffffffffffffffff1673ffffffffffffffffffffffffffffffffffffffff166323b872dd3330846040518463ffffffff1660e01b815260040161269e939291906145bd565b6020604051808303815f875af11580156126ba573d5f5f3e3d5ffd5b505050506040513d601f19601f820116820180604052508101906126de919061420e565b508160035f3373ffffffffffffffffffffffffffffffffffffffff1673ffffffffffffffffffffffffffffffffffffffff1681526020019081526020015f206002015f6101000a81548160ff021916908360ff16021790555062278d004261274691906145f2565b60035f3373ffffffffffffffffffffffffffffffffffffffff1673ffffffffffffffffffffffffffffffffffffffff1681526020019081526020015f20600301819055503373ffffffffffffffffffffffffffffffffffffffff167fcb1d9e2f1ade80c30cd5a94cc785e4e0fe02c9733ab244988d4a57bd30e712318360035f3373ffffffffffffffffffffffffffffffffffffffff1673ffffffffffffffffffffffffffffffffffffffff1681526020019081526020015f2060030154604051612812929190614625565b60405180910390a250612823612b37565b50565b606060045f8373ffffffffffffffffffffffffffffffffffffffff1673ffffffffffffffffffffffffffffffffffffffff1681526020019081526020015f20805480602002602001604051908101604052809291908181526020015f905b82821015612990578382905f5260205f2090600402016040518060a00160405290815f820180546128b490613bf4565b80601f01602080910402602001604051908101604052809291908181526020018280546128e090613bf4565b801561292b5780601f106129025761010080835404028352916020019161292b565b820191905f5260205f20905b81548152906001019060200180831161290e57829003601f168201915b505050505081526020016001820154815260200160028201548152602001600382015f9054906101000a900460ff1660ff1660ff1681526020016003820160019054906101000a900460ff1660ff1660ff168152505081526020019060010190612884565b505050509050919050565b6129a3612b40565b5f73ffffffffffffffffffffffffffffffffffffffff168173ffffffffffffffffffffffffffffffffffffffff1603612a13575f6040517f1e4fbdf7000000000000000000000000000000000000000000000000000000008152600401612a0a919061347f565b60405180910390fd5b612a1c81612c28565b50565b60085f9054906101000a900473ffffffffffffffffffffffffffffffffffffffff1681565b8060075f8473ffffffffffffffffffffffffffffffffffffffff1673ffffffffffffffffffffffffffffffffffffffff1681526020019081526020015f205f828254612a9091906145f2565b925050819055508060035f8473ffffffffffffffffffffffffffffffffffffffff1673ffffffffffffffffffffffffffffffffffffffff1681526020019081526020015f206005015f828254612ae691906145f2565b925050819055505050565b600260015403612b2d576040517f3ee5aeb500000000000000000000000000000000000000000000000000000000815260040160405180910390fd5b6002600181905550565b60018081905550565b612b48612d4b565b73ffffffffffffffffffffffffffffffffffffffff16612b666118c8565b73ffffffffffffffffffffffffffffffffffffffff1614612bc557612b89612d4b565b6040517f118cdaa7000000000000000000000000000000000000000000000000000000008152600401612bbc919061347f565b60405180910390fd5b565b612bcf612d52565b5f60025f6101000a81548160ff0219169083151502179055507f5db9ee0a495bf2e6ff9c91a7834c1ba4fdd244a5e8aa4e537bd38aeae4b073aa612c11612d4b565b604051612c1e919061347f565b60405180910390a1565b5f5f5f9054906101000a900473ffffffffffffffffffffffffffffffffffffffff169050815f5f6101000a81548173ffffffffffffffffffffffffffffffffffffffff021916908373ffffffffffffffffffffffffffffffffffffffff1602179055508173ffffffffffffffffffffffffffffffffffffffff168173ffffffffffffffffffffffffffffffffffffffff167f8be0079c531659141344cd1fd0a4f28419497f9722a3daafe3b4186f6b6457e060405160405180910390a35050565b612cf1612d92565b600160025f6101000a81548160ff0219169083151502179055507f62e78cea01bee320cd4e420270b5ea74000d11b0c9f74754ebdbfc544b05a258612d34612d4b565b604051612d41919061347f565b60405180910390a1565b5f33905090565b612d5a61136e565b612d90576040517f8dfc202b00000000000000000000000000000000000000000000000000000000815260040160405180910390fd5b565b612d9a61136e565b15612dd1576040517fd93c066500000000000000000000000000000000000000000000000000000000815260040160405180910390fd5b565b6040518060e00160405280606081526020015f81526020015f60ff1681526020015f81526020015f81526020015f81526020015f151581525090565b6040518060a00160405280606081526020015f81526020015f81526020015f60ff1681526020015f60ff1681525090565b5f604051905090565b5f5ffd5b5f5ffd5b5f5ffd5b5f5ffd5b5f601f19601f8301169050919050565b7f4e487b71000000000000000000000000000000000000000000000000000000005f52604160045260245ffd5b612e9f82612e59565b810181811067ffffffffffffffff82111715612ebe57612ebd612e69565b5b80604052505050565b5f612ed0612e40565b9050612edc8282612e96565b919050565b5f67ffffffffffffffff821115612efb57612efa612e69565b5b612f0482612e59565b9050602081019050919050565b828183375f83830152505050565b5f612f31612f2c84612ee1565b612ec7565b905082815260208101848484011115612f4d57612f4c612e55565b5b612f58848285612f11565b509392505050565b5f82601f830112612f7457612f73612e51565b5b8135612f84848260208601612f1f565b91505092915050565b5f60208284031215612fa257612fa1612e49565b5b5f82013567ffffffffffffffff811115612fbf57612fbe612e4d565b5b612fcb84828501612f60565b91505092915050565b5f73ffffffffffffffffffffffffffffffffffffffff82169050919050565b5f612ffd82612fd4565b9050919050565b61300d81612ff3565b8114613017575f5ffd5b50565b5f8135905061302881613004565b92915050565b5f6020828403121561304357613042612e49565b5b5f6130508482850161301a565b91505092915050565b5f819050919050565b61306b81613059565b82525050565b5f6020820190506130845f830184613062565b92915050565b61309381613059565b811461309d575f5ffd5b50565b5f813590506130ae8161308a565b92915050565b5f5f604083850312156130ca576130c9612e49565b5b5f6130d78582860161301a565b92505060206130e8858286016130a0565b9150509250929050565b5f81519050919050565b5f82825260208201905092915050565b8281835e5f83830152505050565b5f613124826130f2565b61312e81856130fc565b935061313e81856020860161310c565b61314781612e59565b840191505092915050565b5f60ff82169050919050565b61316781613152565b82525050565b5f8115159050919050565b6131818161316d565b82525050565b5f60a0820190508181035f83015261319f818861311a565b90506131ae602083018761315e565b6131bb6040830186613062565b6131c8606083018561315e565b6131d56080830184613178565b9695505050505050565b6131e881613152565b81146131f2575f5ffd5b50565b5f81359050613203816131df565b92915050565b5f5f5f5f6080858703121561322157613220612e49565b5b5f85013567ffffffffffffffff81111561323e5761323d612e4d565b5b61324a87828801612f60565b945050602061325b878288016130a0565b935050604061326c878288016131f5565b925050606061327d878288016131f5565b91505092959194509250565b6132928161316d565b811461329c575f5ffd5b50565b5f813590506132ad81613289565b92915050565b5f5f5f5f608085870312156132cb576132ca612e49565b5b5f85013567ffffffffffffffff8111156132e8576132e7612e4d565b5b6132f487828801612f60565b9450506020613305878288016131f5565b9350506040613316878288016131f5565b92505060606133278782880161329f565b91505092959194509250565b5f60e0820190508181035f83015261334b818a61311a565b905061335a6020830189613062565b613367604083018861315e565b6133746060830187613062565b6133816080830186613062565b61338e60a0830185613062565b61339b60c0830184613178565b98975050505050505050565b5f6020820190506133ba5f830184613178565b92915050565b5f60a0820190506133d35f83018861315e565b81810360208301526133e5818761311a565b90506133f46040830186613178565b6134016060830185613062565b61340e6080830184613062565b9695505050505050565b5f60a0820190508181035f830152613430818861311a565b905061343f6020830187613062565b61344c6040830186613062565b613459606083018561315e565b613466608083018461315e565b9695505050505050565b61347981612ff3565b82525050565b5f6020820190506134925f830184613470565b92915050565b5f82825260208201905092915050565b5f6134b2826130f2565b6134bc8185613498565b93506134cc81856020860161310c565b6134d581612e59565b840191505092915050565b6134e981613059565b82525050565b6134f881613152565b82525050565b6135078161316d565b82525050565b5f60e083015f8301518482035f86015261352782826134a8565b915050602083015161353c60208601826134e0565b50604083015161354f60408601826134ef565b50606083015161356260608601826134e0565b50608083015161357560808601826134e0565b5060a083015161358860a08601826134e0565b5060c083015161359b60c08601826134fe565b508091505092915050565b5f6020820190508181035f8301526135be818461350d565b905092915050565b5f60a083015f8301518482035f8601526135e082826134a8565b91505060208301516135f560208601826134e0565b50604083015161360860408601826134e0565b50606083015161361b60608601826134ef565b50608083015161362e60808601826134ef565b508091505092915050565b5f6020820190508181035f83015261365181846135c6565b905092915050565b5f81519050919050565b5f82825260208201905092915050565b5f819050602082019050919050565b5f60a083015f8301518482035f86015261369c82826134a8565b91505060208301516136b160208601826134ef565b5060408301516136c460408601826134e0565b5060608301516136d760608601826134ef565b5060808301516136ea60808601826134fe565b508091505092915050565b5f6137008383613682565b905092915050565b5f602082019050919050565b5f61371e82613659565b6137288185613663565b93508360208202850161373a85613673565b805f5b85811015613775578484038952815161375685826136f5565b945061376183613708565b925060208a0199505060018101905061373d565b50829750879550505050505092915050565b5f6020820190508181035f83015261379f8184613714565b905092915050565b5f5f604083850312156137bd576137bc612e49565b5b5f6137ca858286016131f5565b925050602083013567ffffffffffffffff8111156137eb576137ea612e4d565b5b6137f785828601612f60565b9150509250929050565b5f6020828403121561381657613815612e49565b5b5f613823848285016130a0565b91505092915050565b5f5f5f6060848603121561384357613842612e49565b5b5f6138508682870161301a565b9350506020613861868287016130a0565b925050604084013567ffffffffffffffff81111561388257613881612e4d565b5b61388e86828701612f60565b9150509250925092565b5f81519050919050565b5f82825260208201905092915050565b5f819050602082019050919050565b5f60a083015f8301516138d65f8601826134ef565b50602083015184820360208601526138ee82826134a8565b915050604083015161390360408601826134fe565b50606083015161391660608601826134e0565b50608083015161392960808601826134e0565b508091505092915050565b5f61393f83836138c1565b905092915050565b5f602082019050919050565b5f61395d82613898565b61396781856138a2565b935083602082028501613979856138b2565b805f5b858110156139b457848403895281516139958582613934565b94506139a083613947565b925060208a0199505060018101905061397c565b50829750879550505050505092915050565b5f6020820190508181035f8301526139de8184613953565b905092915050565b5f602082840312156139fb576139fa612e49565b5b5f613a08848285016131f5565b91505092915050565b5f81519050919050565b5f82825260208201905092915050565b5f819050602082019050919050565b5f60a083015f8301518482035f860152613a5482826134a8565b9150506020830151613a6960208601826134e0565b506040830151613a7c60408601826134e0565b506060830151613a8f60608601826134ef565b506080830151613aa260808601826134ef565b508091505092915050565b5f613ab88383613a3a565b905092915050565b5f602082019050919050565b5f613ad682613a11565b613ae08185613a1b565b935083602082028501613af285613a2b565b805f5b85811015613b2d5784840389528151613b0e8582613aad565b9450613b1983613ac0565b925060208a01995050600181019050613af5565b50829750879550505050505092915050565b5f6020820190508181035f830152613b578184613acc565b905092915050565b7f55736572206e6f742072656769737465726564000000000000000000000000005f82015250565b5f613b936013836130fc565b9150613b9e82613b5f565b602082019050919050565b5f6020820190508181035f830152613bc081613b87565b9050919050565b7f4e487b71000000000000000000000000000000000000000000000000000000005f52602260045260245ffd5b5f6002820490506001821680613c0b57607f821691505b602082108103613c1e57613c1d613bc7565b5b50919050565b5f819050815f5260205f209050919050565b5f6020601f8301049050919050565b5f82821b905092915050565b5f60088302613c807fffffffffffffffffffffffffffffffffffffffffffffffffffffffffffffffff82613c45565b613c8a8683613c45565b95508019841693508086168417925050509392505050565b5f819050919050565b5f613cc5613cc0613cbb84613059565b613ca2565b613059565b9050919050565b5f819050919050565b613cde83613cab565b613cf2613cea82613ccc565b848454613c51565b825550505050565b5f5f905090565b613d09613cfa565b613d14818484613cd5565b505050565b5b81811015613d3757613d2c5f82613d01565b600181019050613d1a565b5050565b601f821115613d7c57613d4d81613c24565b613d5684613c36565b81016020851015613d65578190505b613d79613d7185613c36565b830182613d19565b50505b505050565b5f82821c905092915050565b5f613d9c5f1984600802613d81565b1980831691505092915050565b5f613db48383613d8d565b9150826002028217905092915050565b613dcd826130f2565b67ffffffffffffffff811115613de657613de5612e69565b5b613df08254613bf4565b613dfb828285613d3b565b5f60209050601f831160018114613e2c575f8415613e1a578287015190505b613e248582613da9565b865550613e8b565b601f198416613e3a86613c24565b5f5b82811015613e6157848901518255600182019150602085019450602081019050613e3c565b86831015613e7e5784890151613e7a601f891682613d8d565b8355505b6001600288020188555050505b505050505050565b7f537562736372697074696f6e20657870697265640000000000000000000000005f82015250565b5f613ec76014836130fc565b9150613ed282613e93565b602082019050919050565b5f6020820190508181035f830152613ef481613ebb565b9050919050565b7f496e76616c6964207269736b2073636f726500000000000000000000000000005f82015250565b5f613f2f6012836130fc565b9150613f3a82613efb565b602082019050919050565b5f6020820190508181035f830152613f5c81613f23565b9050919050565b7f496e76616c696420646976657273696669636174696f6e2073636f72650000005f82015250565b5f613f97601d836130fc565b9150613fa282613f63565b602082019050919050565b5f6020820190508181035f830152613fc481613f8b565b9050919050565b7f4e487b71000000000000000000000000000000000000000000000000000000005f52601160045260245ffd5b5f61400282613059565b91507fffffffffffffffffffffffffffffffffffffffffffffffffffffffffffffffff820361403457614033613fcb565b5b600182019050919050565b5f6040820190508181035f830152614057818561311a565b90506140666020830184613062565b9392505050565b7f496e76616c696420696e736967687420747970650000000000000000000000005f82015250565b5f6140a16014836130fc565b91506140ac8261406d565b602082019050919050565b5f6020820190508181035f8301526140ce81614095565b9050919050565b7f496e76616c696420636f6e666964656e63652073636f726500000000000000005f82015250565b5f6141096018836130fc565b9150614114826140d5565b602082019050919050565b5f6020820190508181035f830152614136816140fd565b9050919050565b5f6040820190508181035f830152614155818561311a565b9050614164602083018461315e565b9392505050565b7f4e6f207265776172647320746f20636c61696d000000000000000000000000005f82015250565b5f61419f6013836130fc565b91506141aa8261416b565b602082019050919050565b5f6020820190508181035f8301526141cc81614193565b9050919050565b5f6040820190506141e65f830185613470565b6141f36020830184613062565b9392505050565b5f8151905061420881613289565b92915050565b5f6020828403121561422357614222612e49565b5b5f614230848285016141fa565b91505092915050565b5f815190506142478161308a565b92915050565b5f6020828403121561426257614261612e49565b5b5f61426f84828501614239565b91505092915050565b7f5573657220616c726561647920726567697374657265640000000000000000005f82015250565b5f6142ac6017836130fc565b91506142b782614278565b602082019050919050565b5f6020820190508181035f8301526142d9816142a0565b9050919050565b5f6020820190508181035f8301526142f8818461311a565b905092915050565b7f4e6f20706f7274666f6c696f20646174610000000000000000000000000000005f82015250565b5f6143346011836130fc565b915061433f82614300565b602082019050919050565b5f6020820190508181035f83015261436181614328565b9050919050565b5f61437282613059565b915061437d83613059565b925082820390508181111561439557614394613fcb565b5b92915050565b7f4e487b71000000000000000000000000000000000000000000000000000000005f52603260045260245ffd5b7f496e76616c696420616c657274207479706500000000000000000000000000005f82015250565b5f6143fc6012836130fc565b9150614407826143c8565b602082019050919050565b5f6020820190508181035f830152614429816143f0565b9050919050565b5f6040820190506144435f830185613062565b614450602083018461315e565b9392505050565b7f496e76616c696420616c657274204944000000000000000000000000000000005f82015250565b5f61448b6010836130fc565b915061449682614457565b602082019050919050565b5f6020820190508181035f8301526144b88161447f565b9050919050565b7f416c657274206e6f7420616374697665000000000000000000000000000000005f82015250565b5f6144f36010836130fc565b91506144fe826144bf565b602082019050919050565b5f6020820190508181035f830152614520816144e7565b9050919050565b5f60408201905061453a5f830185613062565b818103602083015261454c818461311a565b90509392505050565b7f496e76616c696420737562736372697074696f6e2074696572000000000000005f82015250565b5f6145896019836130fc565b915061459482614555565b602082019050919050565b5f6020820190508181035f8301526145b68161457d565b9050919050565b5f6060820190506145d05f830186613470565b6145dd6020830185613470565b6145ea6040830184613062565b949350505050565b5f6145fc82613059565b915061460783613059565b925082820190508082111561461f5761461e613fcb565b5b92915050565b5f6040820190506146385f83018561315e565b6146456020830184613062565b939250505056fea2646970667358221220857cb832a45b767260a2f45fa23eb43d990b0a09ed4ad6169a13d1a0c114d62f64736f6c634300081e0033","linkReferences":{}},"methodIdentifiers":{"ENTERPRISE_SUBSCRIPTION_PRICE()":"41d777cd","PRO_SUBSCRIPTION_PRICE()":"3c98a073","REWARD_PER_ANALYSIS()":"7afc40ec","claimRewards()":"372500ab","createAlert(uint8,string)":"b8bf2dc2","emergencyWithdraw(address)":"6ff1c9bc","getLatestPortfolio(address)":"a0c82ff9","getPortfolioHistory(address)":"d9afd474","getUserAlerts(address)":"cb9ba736","getUserInsights(address)":"b72cf77a","getUserProfile(address)":"987ee156","owner()":"8da5cb5b","pause()":"8456cb59","paused()":"5c975abb","portfolioHistory(address,uint256)":"7fa41196","purchaseSubscription(uint8)":"cbc5c592","recordPortfolioAnalysis(string,uint256,uint8,uint8)":"1b1cdffd","registerUser(string)":"704f1b94","renounceOwnership()":"715018a6","rewardToken()":"f7c618c1","setRewardToken(address)":"8aee8127","storeAIInsight(string,uint8,uint8,bool)":"2cb53a9a","toggleAlert(uint256)":"c3acedbd","totalAnalyses()":"75f3a805","totalUsers()":"bff1f9e1","transferOwnership(address)":"f2fde38b","triggerAlert(address,uint256,string)":"c8b5e496","unpause()":"3f4ba83a","updateProfile(string)":"009299e3","userAlerts(address,uint256)":"6db5e0c6","userInsights(address,uint256)":"12416b87","userProfiles(address)":"332d56d7","userRewards(address)":"0660f1e8","withdrawFees()":"476343ee"},"id":0}