{"abi":[{"type":"constructor","inputs":[{"name":"_token","type":"address","internalType":"contract IERC5805"},{"name":"_timelock","type":"address","internalType":"contract TimelockController"}],"stateMutability":"nonpayable"},{"type":"receive","stateMutability":"payable"},{"type":"function","name":"BALLOT_TYPEHASH","inputs":[],"outputs":[{"name":"","type":"bytes32","internalType":"bytes32"}],"stateMutability":"view"},{"type":"function","name":"CLOCK_MODE","inputs":[],"outputs":[{"name":"","type":"string","internalType":"string"}],"stateMutability":"view"},{"type":"function","name":"COUNTING_MODE","inputs":[],"outputs":[{"name":"","type":"string","internalType":"string"}],"stateMutability":"pure"},{"type":"function","name":"EXTENDED_BALLOT_TYPEHASH","inputs":[],"outputs":[{"name":"","type":"bytes32","internalType":"bytes32"}],"stateMutability":"view"},{"type":"function","name":"cancel","inputs":[{"name":"targets","type":"address[]","internalType":"address[]"},{"name":"values","type":"uint256[]","internalType":"uint256[]"},{"name":"calldatas","type":"bytes[]","internalType":"bytes[]"},{"name":"descriptionHash","type":"bytes32","internalType":"bytes32"}],"outputs":[{"name":"","type":"uint256","internalType":"uint256"}],"stateMutability":"nonpayable"},{"type":"function","name":"castVote","inputs":[{"name":"proposalId","type":"uint256","internalType":"uint256"},{"name":"support","type":"uint8","internalType":"uint8"}],"outputs":[{"name":"","type":"uint256","internalType":"uint256"}],"stateMutability":"nonpayable"},{"type":"function","name":"castVoteBySig","inputs":[{"name":"proposalId","type":"uint256","internalType":"uint256"},{"name":"support","type":"uint8","internalType":"uint8"},{"name":"voter","type":"address","internalType":"address"},{"name":"signature","type":"bytes","internalType":"bytes"}],"outputs":[{"name":"","type":"uint256","internalType":"uint256"}],"stateMutability":"nonpayable"},{"type":"function","name":"castVoteWithReason","inputs":[{"name":"proposalId","type":"uint256","internalType":"uint256"},{"name":"support","type":"uint8","internalType":"uint8"},{"name":"reason","type":"string","internalType":"string"}],"outputs":[{"name":"","type":"uint256","internalType":"uint256"}],"stateMutability":"nonpayable"},{"type":"function","name":"castVoteWithReasonAndParams","inputs":[{"name":"proposalId","type":"uint256","internalType":"uint256"},{"name":"support","type":"uint8","internalType":"uint8"},{"name":"reason","type":"string","internalType":"string"},{"name":"params","type":"bytes","internalType":"bytes"}],"outputs":[{"name":"","type":"uint256","internalType":"uint256"}],"stateMutability":"nonpayable"},{"type":"function","name":"castVoteWithReasonAndParamsBySig","inputs":[{"name":"proposalId","type":"uint256","internalType":"uint256"},{"name":"support","type":"uint8","internalType":"uint8"},{"name":"voter","type":"address","internalType":"address"},{"name":"reason","type":"string","internalType":"string"},{"name":"params","type":"bytes","internalType":"bytes"},{"name":"signature","type":"bytes","internalType":"bytes"}],"outputs":[{"name":"","type":"uint256","internalType":"uint256"}],"stateMutability":"nonpayable"},{"type":"function","name":"clock","inputs":[],"outputs":[{"name":"","type":"uint48","internalType":"uint48"}],"stateMutability":"view"},{"type":"function","name":"eip712Domain","inputs":[],"outputs":[{"name":"fields","type":"bytes1","internalType":"bytes1"},{"name":"name","type":"string","internalType":"string"},{"name":"version","type":"string","internalType":"string"},{"name":"chainId","type":"uint256","internalType":"uint256"},{"name":"verifyingContract","type":"address","internalType":"address"},{"name":"salt","type":"bytes32","internalType":"bytes32"},{"name":"extensions","type":"uint256[]","internalType":"uint256[]"}],"stateMutability":"view"},{"type":"function","name":"execute","inputs":[{"name":"targets","type":"address[]","internalType":"address[]"},{"name":"values","type":"uint256[]","internalType":"uint256[]"},{"name":"calldatas","type":"bytes[]","internalType":"bytes[]"},{"name":"descriptionHash","type":"bytes32","internalType":"bytes32"}],"outputs":[{"name":"","type":"uint256","internalType":"uint256"}],"stateMutability":"payable"},{"type":"function","name":"getProposalId","inputs":[{"name":"targets","type":"address[]","internalType":"address[]"},{"name":"values","type":"uint256[]","internalType":"uint256[]"},{"name":"calldatas","type":"bytes[]","internalType":"bytes[]"},{"name":"descriptionHash","type":"bytes32","internalType":"bytes32"}],"outputs":[{"name":"","type":"uint256","internalType":"uint256"}],"stateMutability":"view"},{"type":"function","name":"getVotes","inputs":[{"name":"account","type":"address","internalType":"address"},{"name":"timepoint","type":"uint256","internalType":"uint256"}],"outputs":[{"name":"","type":"uint256","internalType":"uint256"}],"stateMutability":"view"},{"type":"function","name":"getVotesWithParams","inputs":[{"name":"account","type":"address","internalType":"address"},{"name":"timepoint","type":"uint256","internalType":"uint256"},{"name":"params","type":"bytes","internalType":"bytes"}],"outputs":[{"name":"","type":"uint256","internalType":"uint256"}],"stateMutability":"view"},{"type":"function","name":"hasVoted","inputs":[{"name":"proposalId","type":"uint256","internalType":"uint256"},{"name":"account","type":"address","internalType":"address"}],"outputs":[{"name":"","type":"bool","internalType":"bool"}],"stateMutability":"view"},{"type":"function","name":"hashProposal","inputs":[{"name":"targets","type":"address[]","internalType":"address[]"},{"name":"values","type":"uint256[]","internalType":"uint256[]"},{"name":"calldatas","type":"bytes[]","internalType":"bytes[]"},{"name":"descriptionHash","type":"bytes32","internalType":"bytes32"}],"outputs":[{"name":"","type":"uint256","internalType":"uint256"}],"stateMutability":"pure"},{"type":"function","name":"name","inputs":[],"outputs":[{"name":"","type":"string","internalType":"string"}],"stateMutability":"view"},{"type":"function","name":"nonces","inputs":[{"name":"owner","type":"address","internalType":"address"}],"outputs":[{"name":"","type":"uint256","internalType":"uint256"}],"stateMutability":"view"},{"type":"function","name":"onERC1155BatchReceived","inputs":[{"name":"","type":"address","internalType":"address"},{"name":"","type":"address","internalType":"address"},{"name":"","type":"uint256[]","internalType":"uint256[]"},{"name":"","type":"uint256[]","internalType":"uint256[]"},{"name":"","type":"bytes","internalType":"bytes"}],"outputs":[{"name":"","type":"bytes4","internalType":"bytes4"}],"stateMutability":"nonpayable"},{"type":"function","name":"onERC1155Received","inputs":[{"name":"","type":"address","internalType":"address"},{"name":"","type":"address","internalType":"address"},{"name":"","type":"uint256","internalType":"uint256"},{"name":"","type":"uint256","internalType":"uint256"},{"name":"","type":"bytes","internalType":"bytes"}],"outputs":[{"name":"","type":"bytes4","internalType":"bytes4"}],"stateMutability":"nonpayable"},{"type":"function","name":"onERC721Received","inputs":[{"name":"","type":"address","internalType":"address"},{"name":"","type":"address","internalType":"address"},{"name":"","type":"uint256","internalType":"uint256"},{"name":"","type":"bytes","internalType":"bytes"}],"outputs":[{"name":"","type":"bytes4","internalType":"bytes4"}],"stateMutability":"nonpayable"},{"type":"function","name":"proposalDeadline","inputs":[{"name":"proposalId","type":"uint256","internalType":"uint256"}],"outputs":[{"name":"","type":"uint256","internalType":"uint256"}],"stateMutability":"view"},{"type":"function","name":"proposalEta","inputs":[{"name":"proposalId","type":"uint256","internalType":"uint256"}],"outputs":[{"name":"","type":"uint256","internalType":"uint256"}],"stateMutability":"view"},{"type":"function","name":"proposalNeedsQueuing","inputs":[{"name":"proposalId","type":"uint256","internalType":"uint256"}],"outputs":[{"name":"","type":"bool","internalType":"bool"}],"stateMutability":"view"},{"type":"function","name":"proposalProposer","inputs":[{"name":"proposalId","type":"uint256","internalType":"uint256"}],"outputs":[{"name":"","type":"address","internalType":"address"}],"stateMutability":"view"},{"type":"function","name":"proposalSnapshot","inputs":[{"name":"proposalId","type":"uint256","internalType":"uint256"}],"outputs":[{"name":"","type":"uint256","internalType":"uint256"}],"stateMutability":"view"},{"type":"function","name":"proposalThreshold","inputs":[],"outputs":[{"name":"","type":"uint256","internalType":"uint256"}],"stateMutability":"view"},{"type":"function","name":"proposalVotes","inputs":[{"name":"proposalId","type":"uint256","internalType":"uint256"}],"outputs":[{"name":"againstVotes","type":"uint256","internalType":"uint256"},{"name":"forVotes","type":"uint256","internalType":"uint256"},{"name":"abstainVotes","type":"uint256","internalType":"uint256"}],"stateMutability":"view"},{"type":"function","name":"propose","inputs":[{"name":"targets","type":"address[]","internalType":"address[]"},{"name":"values","type":"uint256[]","internalType":"uint256[]"},{"name":"calldatas","type":"bytes[]","internalType":"bytes[]"},{"name":"description","type":"string","internalType":"string"}],"outputs":[{"name":"","type":"uint256","internalType":"uint256"}],"stateMutability":"nonpayable"},{"type":"function","name":"queue","inputs":[{"name":"targets","type":"address[]","internalType":"address[]"},{"name":"values","type":"uint256[]","internalType":"uint256[]"},{"name":"calldatas","type":"bytes[]","internalType":"bytes[]"},{"name":"descriptionHash","type":"bytes32","internalType":"bytes32"}],"outputs":[{"name":"","type":"uint256","internalType":"uint256"}],"stateMutability":"nonpayable"},{"type":"function","name":"quorum","inputs":[{"name":"blockNumber","type":"uint256","internalType":"uint256"}],"outputs":[{"name":"","type":"uint256","internalType":"uint256"}],"stateMutability":"view"},{"type":"function","name":"quorumDenominator","inputs":[],"outputs":[{"name":"","type":"uint256","internalType":"uint256"}],"stateMutability":"view"},{"type":"function","name":"quorumNumerator","inputs":[{"name":"timepoint","type":"uint256","internalType":"uint256"}],"outputs":[{"name":"","type":"uint256","internalType":"uint256"}],"stateMutability":"view"},{"type":"function","name":"quorumNumerator","inputs":[],"outputs":[{"name":"","type":"uint256","internalType":"uint256"}],"stateMutability":"view"},{"type":"function","name":"relay","inputs":[{"name":"target","type":"address","internalType":"address"},{"name":"value","type":"uint256","internalType":"uint256"},{"name":"data","type":"bytes","internalType":"bytes"}],"outputs":[],"stateMutability":"payable"},{"type":"function","name":"setProposalThreshold","inputs":[{"name":"newProposalThreshold","type":"uint256","internalType":"uint256"}],"outputs":[],"stateMutability":"nonpayable"},{"type":"function","name":"setVotingDelay","inputs":[{"name":"newVotingDelay","type":"uint48","internalType":"uint48"}],"outputs":[],"stateMutability":"nonpayable"},{"type":"function","name":"setVotingPeriod","inputs":[{"name":"newVotingPeriod","type":"uint32","internalType":"uint32"}],"outputs":[],"stateMutability":"nonpayable"},{"type":"function","name":"state","inputs":[{"name":"proposalId","type":"uint256","internalType":"uint256"}],"outputs":[{"name":"","type":"uint8","internalType":"enum IGovernor.ProposalState"}],"stateMutability":"view"},{"type":"function","name":"supportsInterface","inputs":[{"name":"interfaceId","type":"bytes4","internalType":"bytes4"}],"outputs":[{"name":"","type":"bool","internalType":"bool"}],"stateMutability":"view"},{"type":"function","name":"timelock","inputs":[],"outputs":[{"name":"","type":"address","internalType":"address"}],"stateMutability":"view"},{"type":"function","name":"token","inputs":[],"outputs":[{"name":"","type":"address","internalType":"contract IERC5805"}],"stateMutability":"view"},{"type":"function","name":"updateQuorumNumerator","inputs":[{"name":"newQuorumNumerator","type":"uint256","internalType":"uint256"}],"outputs":[],"stateMutability":"nonpayable"},{"type":"function","name":"updateTimelock","inputs":[{"name":"newTimelock","type":"address","internalType":"contract TimelockController"}],"outputs":[],"stateMutability":"nonpayable"},{"type":"function","name":"version","inputs":[],"outputs":[{"name":"","type":"string","internalType":"string"}],"stateMutability":"view"},{"type":"function","name":"votingDelay","inputs":[],"outputs":[{"name":"","type":"uint256","internalType":"uint256"}],"stateMutability":"view"},{"type":"function","name":"votingPeriod","inputs":[],"outputs":[{"name":"","type":"uint256","internalType":"uint256"}],"stateMutability":"view"},{"type":"event","name":"EIP712DomainChanged","inputs":[],"anonymous":false},{"type":"event","name":"ProposalCanceled","inputs":[{"name":"proposalId","type":"uint256","indexed":false,"internalType":"uint256"}],"anonymous":false},{"type":"event","name":"ProposalCreated","inputs":[{"name":"proposalId","type":"uint256","indexed":false,"internalType":"uint256"},{"name":"proposer","type":"address","indexed":false,"internalType":"address"},{"name":"targets","type":"address[]","indexed":false,"internalType":"address[]"},{"name":"values","type":"uint256[]","indexed":false,"internalType":"uint256[]"},{"name":"signatures","type":"string[]","indexed":false,"internalType":"string[]"},{"name":"calldatas","type":"bytes[]","indexed":false,"internalType":"bytes[]"},{"name":"voteStart","type":"uint256","indexed":false,"internalType":"uint256"},{"name":"voteEnd","type":"uint256","indexed":false,"internalType":"uint256"},{"name":"description","type":"string","indexed":false,"internalType":"string"}],"anonymous":false},{"type":"event","name":"ProposalExecuted","inputs":[{"name":"proposalId","type":"uint256","indexed":false,"internalType":"uint256"}],"anonymous":false},{"type":"event","name":"ProposalQueued","inputs":[{"name":"proposalId","type":"uint256","indexed":false,"internalType":"uint256"},{"name":"etaSeconds","type":"uint256","indexed":false,"internalType":"uint256"}],"anonymous":false},{"type":"event","name":"ProposalThresholdSet","inputs":[{"name":"oldProposalThreshold","type":"uint256","indexed":false,"internalType":"uint256"},{"name":"newProposalThreshold","type":"uint256","indexed":false,"internalType":"uint256"}],"anonymous":false},{"type":"event","name":"QuorumNumeratorUpdated","inputs":[{"name":"oldQuorumNumerator","type":"uint256","indexed":false,"internalType":"uint256"},{"name":"newQuorumNumerator","type":"uint256","indexed":false,"internalType":"uint256"}],"anonymous":false},{"type":"event","name":"TimelockChange","inputs":[{"name":"oldTimelock","type":"address","indexed":false,"internalType":"address"},{"name":"newTimelock","type":"address","indexed":false,"internalType":"address"}],"anonymous":false},{"type":"event","name":"VoteCast","inputs":[{"name":"voter","type":"address","indexed":true,"internalType":"address"},{"name":"proposalId","type":"uint256","indexed":false,"internalType":"uint256"},{"name":"support","type":"uint8","indexed":false,"internalType":"uint8"},{"name":"weight","type":"uint256","indexed":false,"internalType":"uint256"},{"name":"reason","type":"string","indexed":false,"internalType":"string"}],"anonymous":false},{"type":"event","name":"VoteCastWithParams","inputs":[{"name":"voter","type":"address","indexed":true,"internalType":"address"},{"name":"proposalId","type":"uint256","indexed":false,"internalType":"uint256"},{"name":"support","type":"uint8","indexed":false,"internalType":"uint8"},{"name":"weight","type":"uint256","indexed":false,"internalType":"uint256"},{"name":"reason","type":"string","indexed":false,"internalType":"string"},{"name":"params","type":"bytes","indexed":false,"internalType":"bytes"}],"anonymous":false},{"type":"event","name":"VotingDelaySet","inputs":[{"name":"oldVotingDelay","type":"uint256","indexed":false,"internalType":"uint256"},{"name":"newVotingDelay","type":"uint256","indexed":false,"internalType":"uint256"}],"anonymous":false},{"type":"event","name":"VotingPeriodSet","inputs":[{"name":"oldVotingPeriod","type":"uint256","indexed":false,"internalType":"uint256"},{"name":"newVotingPeriod","type":"uint256","indexed":false,"internalType":"uint256"}],"anonymous":false},{"type":"error","name":"CheckpointUnorderedInsertion","inputs":[]},{"type":"error","name":"FailedCall","inputs":[]},{"type":"error","name":"GovernorAlreadyCastVote","inputs":[{"name":"voter","type":"address","internalType":"address"}]},{"type":"error","name":"GovernorAlreadyQueuedProposal","inputs":[{"name":"proposalId","type":"uint256","internalType":"uint256"}]},{"type":"error","name":"GovernorDisabledDeposit","inputs":[]},{"type":"error","name":"GovernorInsufficientProposerVotes","inputs":[{"name":"proposer","type":"address","internalType":"address"},{"name":"votes","type":"uint256","internalType":"uint256"},{"name":"threshold","type":"uint256","internalType":"uint256"}]},{"type":"error","name":"GovernorInvalidProposalLength","inputs":[{"name":"targets","type":"uint256","internalType":"uint256"},{"name":"calldatas","type":"uint256","internalType":"uint256"},{"name":"values","type":"uint256","internalType":"uint256"}]},{"type":"error","name":"GovernorInvalidQuorumFraction","inputs":[{"name":"quorumNumerator","type":"uint256","internalType":"uint256"},{"name":"quorumDenominator","type":"uint256","internalType":"uint256"}]},{"type":"error","name":"GovernorInvalidSignature","inputs":[{"name":"voter","type":"address","internalType":"address"}]},{"type":"error","name":"GovernorInvalidVoteParams","inputs":[]},{"type":"error","name":"GovernorInvalidVoteType","inputs":[]},{"type":"error","name":"GovernorInvalidVotingPeriod","inputs":[{"name":"votingPeriod","type":"uint256","internalType":"uint256"}]},{"type":"error","name":"GovernorNonexistentProposal","inputs":[{"name":"proposalId","type":"uint256","internalType":"uint256"}]},{"type":"error","name":"GovernorNotQueuedProposal","inputs":[{"name":"proposalId","type":"uint256","internalType":"uint256"}]},{"type":"error","name":"GovernorOnlyExecutor","inputs":[{"name":"account","type":"address","internalType":"address"}]},{"type":"error","name":"GovernorQueueNotImplemented","inputs":[]},{"type":"error","name":"GovernorRestrictedProposer","inputs":[{"name":"proposer","type":"address","internalType":"address"}]},{"type":"error","name":"GovernorUnableToCancel","inputs":[{"name":"proposalId","type":"uint256","internalType":"uint256"},{"name":"account","type":"address","internalType":"address"}]},{"type":"error","name":"GovernorUnexpectedProposalState","inputs":[{"name":"proposalId","type":"uint256","internalType":"uint256"},{"name":"current","type":"uint8","internalType":"enum IGovernor.ProposalState"},{"name":"expectedStates","type":"bytes32","internalType":"bytes32"}]},{"type":"error","name":"InvalidAccountNonce","inputs":[{"name":"account","type":"address","internalType":"address"},{"name":"currentNonce","type":"uint256","internalType":"uint256"}]},{"type":"error","name":"InvalidShortString","inputs":[]},{"type":"error","name":"SafeCastOverflowedUintDowncast","inputs":[{"name":"bits","type":"uint8","internalType":"uint8"},{"name":"value","type":"uint256","internalType":"uint256"}]},{"type":"error","name":"StringTooLong","inputs":[{"name":"str","type":"string","internalType":"string"}]}],"bytecode":{"object":"0x610180604052348015610010575f5ffd5b5060405161841238038061841283398181016040528101906100329190610c12565b80600483611c2061c4e0683635c9adc5dea000006040518060400160405280601381526020017f436861696e48697665476f7665726e616e6365000000000000000000000000008152508061008b6101d260201b60201c565b61009e5f8361020f60201b90919060201c565b61012081815250506100ba60018261020f60201b90919060201c565b6101408181525050818051906020012060e08181525050808051906020012061010081815250504660a081815250506100f761025c60201b60201c565b608081815250503073ffffffffffffffffffffffffffffffffffffffff1660c08173ffffffffffffffffffffffffffffffffffffffff1681525050505080600390816101439190610e8d565b5050610154836102b660201b60201c565b6101638261032960201b60201c565b610172816103e260201b60201c565b5050508073ffffffffffffffffffffffffffffffffffffffff166101608173ffffffffffffffffffffffffffffffffffffffff1681525050506101ba8161042760201b60201c565b506101ca8161050160201b60201c565b5050506113eb565b60606040518060400160405280600181526020017f3100000000000000000000000000000000000000000000000000000000000000815250905090565b5f602083511015610230576102298361059e60201b60201c565b9050610256565b826102408361060360201b60201c565b5f01908161024e9190610e8d565b5060ff5f1b90505b92915050565b5f7f8b73c3c69bb8fe3d512ecc4cf759cc79239f7b179b0ffacaa9a75d522b39400f60e05161010051463060405160200161029b959493929190610f92565b60405160208183030381529060405280519060200120905090565b7fc565b045403dc03c2eea82b81a0465edad9e2e7fc4d97e11421c209da93d7a9360085f9054906101000a900465ffffffffffff16826040516102fa929190611024565b60405180910390a18060085f6101000a81548165ffffffffffff021916908365ffffffffffff16021790555050565b5f8163ffffffff1603610373575f6040517ff1cfbf0500000000000000000000000000000000000000000000000000000000815260040161036a9190611084565b60405180910390fd5b7f7e3f7f0708a84de9203036abaa450dccc85ad5ff52f78c170f3edb55cf5e8828600860069054906101000a900463ffffffff16826040516103b69291906110dc565b60405180910390a180600860066101000a81548163ffffffff021916908363ffffffff16021790555050565b7fccb45da8d5717e6c4544694297c4ba5cf151d455c9bb0ed4fc7a38411bc0546160075482604051610415929190611103565b60405180910390a18060078190555050565b5f61043661060c60201b60201c565b90508082111561047f5781816040517f243e5445000000000000000000000000000000000000000000000000000000008152600401610476929190611103565b60405180910390fd5b5f61048e61061460201b60201c565b90506104c16104a161064660201b60201c565b6104b0856106dd60201b60201c565b600a61074a60201b9092919060201c565b50507f0553476bf02ef2726e8ce5ced78d63e26e602e4a2257b1f559418e24b463399781846040516104f4929190611103565b60405180910390a1505050565b7f08f74ea46ef7894f65eabfb5e6e695de773a000b47c529ab559178069b226401600b5f9054906101000a900473ffffffffffffffffffffffffffffffffffffffff168260405161055392919061112a565b60405180910390a180600b5f6101000a81548173ffffffffffffffffffffffffffffffffffffffff021916908373ffffffffffffffffffffffffffffffffffffffff16021790555050565b5f5f829050601f815111156105ea57826040517f305a27a90000000000000000000000000000000000000000000000000000000081526004016105e191906111b7565b60405180910390fd5b8051816105f690611204565b5f1c175f1b915050919050565b5f819050919050565b5f6064905090565b5f610625600a61076b60201b60201c565b79ffffffffffffffffffffffffffffffffffffffffffffffffffff16905090565b5f6106556107d360201b60201c565b73ffffffffffffffffffffffffffffffffffffffff166391ddadf46040518163ffffffff1660e01b8152600401602060405180830381865afa9250505080156106bc57506040513d601f19601f820116820180604052508101906106b99190611294565b60015b6106d5576106ce6107dd60201b60201c565b90506106da565b809150505b90565b5f79ffffffffffffffffffffffffffffffffffffffffffffffffffff80168211156107425760d0826040517f6dfcc650000000000000000000000000000000000000000000000000000000008152600401610739929190611304565b60405180910390fd5b819050919050565b5f5f61075f855f0185856107f260201b60201c565b91509150935093915050565b5f5f825f018054905090505f81146107c95761079b835f016001836107909190611358565b610aec60201b60201c565b5f0160069054906101000a900479ffffffffffffffffffffffffffffffffffffffffffffffffffff166107cb565b5f5b915050919050565b5f61016051905090565b5f6107ed43610afe60201b60201c565b905090565b5f5f5f858054905090505f811115610a04575f610821876001846108169190611358565b610aec60201b60201c565b90505f815f015f9054906101000a900465ffffffffffff1690505f825f0160069054906101000a900479ffffffffffffffffffffffffffffffffffffffffffffffffffff1690508765ffffffffffff168265ffffffffffff1611156108b2576040517f2520601d00000000000000000000000000000000000000000000000000000000815260040160405180910390fd5b8765ffffffffffff168265ffffffffffff160361091c5786835f0160066101000a81548179ffffffffffffffffffffffffffffffffffffffffffffffffffff021916908379ffffffffffffffffffffffffffffffffffffffffffffffffffff1602179055506109f5565b8860405180604001604052808a65ffffffffffff1681526020018979ffffffffffffffffffffffffffffffffffffffffffffffffffff16815250908060018154018082558091505060019003905f5260205f20015f909190919091505f820151815f015f6101000a81548165ffffffffffff021916908365ffffffffffff1602179055506020820151815f0160066101000a81548179ffffffffffffffffffffffffffffffffffffffffffffffffffff021916908379ffffffffffffffffffffffffffffffffffffffffffffffffffff16021790555050505b80879550955050505050610ae4565b8560405180604001604052808765ffffffffffff1681526020018679ffffffffffffffffffffffffffffffffffffffffffffffffffff16815250908060018154018082558091505060019003905f5260205f20015f909190919091505f820151815f015f6101000a81548165ffffffffffff021916908365ffffffffffff1602179055506020820151815f0160066101000a81548179ffffffffffffffffffffffffffffffffffffffffffffffffffff021916908379ffffffffffffffffffffffffffffffffffffffffffffffffffff16021790555050505f8492509250505b935093915050565b5f825f528160205f2001905092915050565b5f65ffffffffffff8016821115610b4f576030826040517f6dfcc650000000000000000000000000000000000000000000000000000000008152600401610b469291906113c4565b60405180910390fd5b819050919050565b5f5ffd5b5f73ffffffffffffffffffffffffffffffffffffffff82169050919050565b5f610b8482610b5b565b9050919050565b5f610b9582610b7a565b9050919050565b610ba581610b8b565b8114610baf575f5ffd5b50565b5f81519050610bc081610b9c565b92915050565b5f610bd082610b5b565b9050919050565b5f610be182610bc6565b9050919050565b610bf181610bd7565b8114610bfb575f5ffd5b50565b5f81519050610c0c81610be8565b92915050565b5f5f60408385031215610c2857610c27610b57565b5b5f610c3585828601610bb2565b9250506020610c4685828601610bfe565b9150509250929050565b5f81519050919050565b7f4e487b71000000000000000000000000000000000000000000000000000000005f52604160045260245ffd5b7f4e487b71000000000000000000000000000000000000000000000000000000005f52602260045260245ffd5b5f6002820490506001821680610ccb57607f821691505b602082108103610cde57610cdd610c87565b5b50919050565b5f819050815f5260205f209050919050565b5f6020601f8301049050919050565b5f82821b905092915050565b5f60088302610d407fffffffffffffffffffffffffffffffffffffffffffffffffffffffffffffffff82610d05565b610d4a8683610d05565b95508019841693508086168417925050509392505050565b5f819050919050565b5f819050919050565b5f610d8e610d89610d8484610d62565b610d6b565b610d62565b9050919050565b5f819050919050565b610da783610d74565b610dbb610db382610d95565b848454610d11565b825550505050565b5f5f905090565b610dd2610dc3565b610ddd818484610d9e565b505050565b5b81811015610e0057610df55f82610dca565b600181019050610de3565b5050565b601f821115610e4557610e1681610ce4565b610e1f84610cf6565b81016020851015610e2e578190505b610e42610e3a85610cf6565b830182610de2565b50505b505050565b5f82821c905092915050565b5f610e655f1984600802610e4a565b1980831691505092915050565b5f610e7d8383610e56565b9150826002028217905092915050565b610e9682610c50565b67ffffffffffffffff811115610eaf57610eae610c5a565b5b610eb98254610cb4565b610ec4828285610e04565b5f60209050601f831160018114610ef5575f8415610ee3578287015190505b610eed8582610e72565b865550610f54565b601f198416610f0386610ce4565b5f5b82811015610f2a57848901518255600182019150602085019450602081019050610f05565b86831015610f475784890151610f43601f891682610e56565b8355505b6001600288020188555050505b505050505050565b5f819050919050565b610f6e81610f5c565b82525050565b610f7d81610d62565b82525050565b610f8c81610b7a565b82525050565b5f60a082019050610fa55f830188610f65565b610fb26020830187610f65565b610fbf6040830186610f65565b610fcc6060830185610f74565b610fd96080830184610f83565b9695505050505050565b5f65ffffffffffff82169050919050565b5f61100e61100961100484610fe3565b610d6b565b610d62565b9050919050565b61101e81610ff4565b82525050565b5f6040820190506110375f830185611015565b6110446020830184611015565b9392505050565b5f819050919050565b5f61106e6110696110648461104b565b610d6b565b610d62565b9050919050565b61107e81611054565b82525050565b5f6020820190506110975f830184611075565b92915050565b5f63ffffffff82169050919050565b5f6110c66110c16110bc8461109d565b610d6b565b610d62565b9050919050565b6110d6816110ac565b82525050565b5f6040820190506110ef5f8301856110cd565b6110fc60208301846110cd565b9392505050565b5f6040820190506111165f830185610f74565b6111236020830184610f74565b9392505050565b5f60408201905061113d5f830185610f83565b61114a6020830184610f83565b9392505050565b5f82825260208201905092915050565b8281835e5f83830152505050565b5f601f19601f8301169050919050565b5f61118982610c50565b6111938185611151565b93506111a3818560208601611161565b6111ac8161116f565b840191505092915050565b5f6020820190508181035f8301526111cf818461117f565b905092915050565b5f81519050919050565b5f819050602082019050919050565b5f6111fb8251610f5c565b80915050919050565b5f61120e826111d7565b82611218846111e1565b9050611223816111f0565b925060208210156112635761125e7fffffffffffffffffffffffffffffffffffffffffffffffffffffffffffffffff83602003600802610d05565b831692505b5050919050565b61127381610fe3565b811461127d575f5ffd5b50565b5f8151905061128e8161126a565b92915050565b5f602082840312156112a9576112a8610b57565b5b5f6112b684828501611280565b91505092915050565b5f819050919050565b5f60ff82169050919050565b5f6112ee6112e96112e4846112bf565b610d6b565b6112c8565b9050919050565b6112fe816112d4565b82525050565b5f6040820190506113175f8301856112f5565b6113246020830184610f74565b9392505050565b7f4e487b71000000000000000000000000000000000000000000000000000000005f52601160045260245ffd5b5f61136282610d62565b915061136d83610d62565b92508282039050818111156113855761138461132b565b5b92915050565b5f819050919050565b5f6113ae6113a96113a48461138b565b610d6b565b6112c8565b9050919050565b6113be81611394565b82525050565b5f6040820190506113d75f8301856113b5565b6113e46020830184610f74565b9392505050565b60805160a05160c05160e05161010051610120516101405161016051616fcc6114465f395f611be001525f61281c01525f6127e101525f61480c01525f6147eb01525f6141ff01525f61425501525f61427e0152616fcc5ff3fe6080604052600436106102b1575f3560e01c80637ecebe0011610174578063bc197c81116100db578063deaaa7cc11610094578063ece40cc11161006e578063ece40cc114610c44578063f23a6e6114610c6c578063f8ce560a14610ca8578063fc0c546a14610ce457610324565b8063deaaa7cc14610bb6578063e540d01d14610be0578063eb9019d414610c0857610324565b8063bc197c8114610a92578063c01f9e3714610ace578063c28bc2fa14610b0a578063c59057e414610b26578063d33219b414610b62578063dd4e2ba514610b8c57610324565b8063a7713a701161012d578063a7713a7014610962578063a890c9101461098c578063a8f8a668146109b4578063a9a95294146109f0578063ab58fb8e14610a2c578063b58131b014610a6857610324565b80637ecebe001461082a57806384b0196e146108665780638ff262e31461089657806391ddadf4146108d257806397c3d334146108fc5780639a802a6d1461092657610324565b806343859632116102185780635b8d0e0d116101d15780635b8d0e0d146106d65780635f398a141461071257806360c4247f1461074e578063790518871461078a5780637b3c71d3146107b25780637d5e81e2146107ee57610324565b80634385963214610590578063452115d6146105cc5780634bf5d7e914610608578063544ffc9c1461063257806354fd4d5014610670578063567813881461069a57610324565b8063160cbed71161026a578063160cbed7146104585780632656227d146104945780632d63f693146104c45780632fe3e261146105005780633932abb11461052a5780633e4f49e61461055457610324565b806301ffc9a71461032857806302a251a31461036457806306f3f9e61461038e57806306fdde03146103b6578063143489d0146103e0578063150b7a021461041c57610324565b36610324573073ffffffffffffffffffffffffffffffffffffffff166102d5610d0e565b73ffffffffffffffffffffffffffffffffffffffff1614610322576040517fe90a651e00000000000000000000000000000000000000000000000000000000815260040160405180910390fd5b005b5f5ffd5b348015610333575f5ffd5b5061034e60048036038101906103499190614bf5565b610d1c565b60405161035b9190614c3a565b60405180910390f35b34801561036f575f5ffd5b50610378610d2d565b6040516103859190614c6b565b60405180910390f35b348015610399575f5ffd5b506103b460048036038101906103af9190614cae565b610d3b565b005b3480156103c1575f5ffd5b506103ca610d4f565b6040516103d79190614d49565b60405180910390f35b3480156103eb575f5ffd5b5061040660048036038101906104019190614cae565b610ddf565b6040516104139190614da8565b60405180910390f35b348015610427575f5ffd5b50610442600480360381019061043d9190614f17565b610e1a565b60405161044f9190614fa6565b60405180910390f35b348015610463575f5ffd5b5061047e60048036038101906104799190615254565b610e99565b60405161048b9190614c6b565b60405180910390f35b6104ae60048036038101906104a99190615254565b610f8f565b6040516104bb9190614c6b565b60405180910390f35b3480156104cf575f5ffd5b506104ea60048036038101906104e59190614cae565b61116c565b6040516104f79190614c6b565b60405180910390f35b34801561050b575f5ffd5b506105146111a2565b604051610521919061531b565b60405180910390f35b348015610535575f5ffd5b5061053e6111c6565b60405161054b9190614c6b565b60405180910390f35b34801561055f575f5ffd5b5061057a60048036038101906105759190614cae565b6111d4565b60405161058791906153a7565b60405180910390f35b34801561059b575f5ffd5b506105b660048036038101906105b191906153c0565b6111e5565b6040516105c39190614c3a565b60405180910390f35b3480156105d7575f5ffd5b506105f260048036038101906105ed9190615254565b61124a565b6040516105ff9190614c6b565b60405180910390f35b348015610613575f5ffd5b5061061c6112ca565b6040516106299190614d49565b60405180910390f35b34801561063d575f5ffd5b5061065860048036038101906106539190614cae565b611387565b604051610667939291906153fe565b60405180910390f35b34801561067b575f5ffd5b506106846113ba565b6040516106919190614d49565b60405180910390f35b3480156106a5575f5ffd5b506106c060048036038101906106bb9190615469565b6113f7565b6040516106cd9190614c6b565b60405180910390f35b3480156106e1575f5ffd5b506106fc60048036038101906106f79190615500565b611426565b6040516107099190614c6b565b60405180910390f35b34801561071d575f5ffd5b50610738600480360381019061073391906155e2565b611516565b6040516107459190614c6b565b60405180910390f35b348015610759575f5ffd5b50610774600480360381019061076f9190614cae565b61157e565b6040516107819190614c6b565b60405180910390f35b348015610795575f5ffd5b506107b060048036038101906107ab91906156bd565b611591565b005b3480156107bd575f5ffd5b506107d860048036038101906107d391906156e8565b6115a5565b6040516107e59190614c6b565b60405180910390f35b3480156107f9575f5ffd5b50610814600480360381019061080f91906157f7565b61160b565b6040516108219190614c6b565b60405180910390f35b348015610835575f5ffd5b50610850600480360381019061084b91906158cb565b611622565b60405161085d9190614c6b565b60405180910390f35b348015610871575f5ffd5b5061087a611668565b60405161088d97969594939291906159e7565b60405180910390f35b3480156108a1575f5ffd5b506108bc60048036038101906108b79190615a69565b61170d565b6040516108c99190614c6b565b60405180910390f35b3480156108dd575f5ffd5b506108e661177f565b6040516108f39190615af8565b60405180910390f35b348015610907575f5ffd5b5061091061180a565b60405161091d9190614c6b565b60405180910390f35b348015610931575f5ffd5b5061094c60048036038101906109479190615b11565b611812565b6040516109599190614c6b565b60405180910390f35b34801561096d575f5ffd5b50610976611827565b6040516109839190614c6b565b60405180910390f35b348015610997575f5ffd5b506109b260048036038101906109ad9190615bc9565b611853565b005b3480156109bf575f5ffd5b506109da60048036038101906109d59190615254565b611867565b6040516109e79190614c6b565b60405180910390f35b3480156109fb575f5ffd5b50610a166004803603810190610a119190614cae565b61187e565b604051610a239190614c3a565b60405180910390f35b348015610a37575f5ffd5b50610a526004803603810190610a4d9190614cae565b61188f565b604051610a5f9190614c6b565b60405180910390f35b348015610a73575f5ffd5b50610a7c6118c5565b604051610a899190614c6b565b60405180910390f35b348015610a9d575f5ffd5b50610ab86004803603810190610ab39190615bf4565b6118d3565b604051610ac59190614fa6565b60405180910390f35b348015610ad9575f5ffd5b50610af46004803603810190610aef9190614cae565b611953565b604051610b019190614c6b565b60405180910390f35b610b246004803603810190610b1f9190615d14565b6119bd565b005b348015610b31575f5ffd5b50610b4c6004803603810190610b479190615254565b611a46565b604051610b599190614c6b565b60405180910390f35b348015610b6d575f5ffd5b50610b76611a80565b604051610b839190614da8565b60405180910390f35b348015610b97575f5ffd5b50610ba0611aa8565b604051610bad9190614d49565b60405180910390f35b348015610bc1575f5ffd5b50610bca611ae5565b604051610bd7919061531b565b60405180910390f35b348015610beb575f5ffd5b50610c066004803603810190610c019190615dbe565b611b09565b005b348015610c13575f5ffd5b50610c2e6004803603810190610c299190615de9565b611b1d565b604051610c3b9190614c6b565b60405180910390f35b348015610c4f575f5ffd5b50610c6a6004803603810190610c659190614cae565b611b38565b005b348015610c77575f5ffd5b50610c926004803603810190610c8d9190615e27565b611b4c565b604051610c9f9190614fa6565b60405180910390f35b348015610cb3575f5ffd5b50610cce6004803603810190610cc99190614cae565b611bcc565b604051610cdb9190614c6b565b60405180910390f35b348015610cef575f5ffd5b50610cf8611bdd565b604051610d059190615f15565b60405180910390f35b5f610d17611c04565b905090565b5f610d2682611c2c565b9050919050565b5f610d36611d7e565b905090565b610d43611d9d565b610d4c81611e92565b50565b606060038054610d5e90615f5b565b80601f0160208091040260200160405190810160405280929190818152602001828054610d8a90615f5b565b8015610dd55780601f10610dac57610100808354040283529160200191610dd5565b820191905f5260205f20905b815481529060010190602001808311610db857829003601f168201915b5050505050905090565b5f60045f8381526020019081526020015f205f015f9054906101000a900473ffffffffffffffffffffffffffffffffffffffff169050919050565b5f3073ffffffffffffffffffffffffffffffffffffffff16610e3a610d0e565b73ffffffffffffffffffffffffffffffffffffffff1614610e87576040517fe90a651e00000000000000000000000000000000000000000000000000000000815260040160405180910390fd5b63150b7a0260e01b9050949350505050565b5f5f610ea786868686611867565b9050610ebc81610eb76004611f54565b611f78565b505f610ecb8288888888611fe3565b90505f8165ffffffffffff1614610f50578060045f8481526020019081526020015f206001015f6101000a81548165ffffffffffff021916908365ffffffffffff1602179055507f9a2e42fd6722813d69113e7d0079d3d940171428df7373df9c7f7617cfda28928282604051610f43929190615fbb565b60405180910390a1610f82565b6040517f90884a4600000000000000000000000000000000000000000000000000000000815260040160405180910390fd5b8192505050949350505050565b5f5f610f9d86868686611867565b9050610fbd81610fad6005611f54565b610fb76004611f54565b17611f78565b50600160045f8381526020019081526020015f205f01601e6101000a81548160ff0219169083151502179055503073ffffffffffffffffffffffffffffffffffffffff16611009610d0e565b73ffffffffffffffffffffffffffffffffffffffff16146110c2575f5f90505b86518110156110c0573073ffffffffffffffffffffffffffffffffffffffff1687828151811061105c5761105b615fe2565b5b602002602001015173ffffffffffffffffffffffffffffffffffffffff16036110b5576110b485828151811061109557611094615fe2565b5b6020026020010151805190602001206005611ffc90919063ffffffff16565b5b806001019050611029565b505b6110cf81878787876120f4565b3073ffffffffffffffffffffffffffffffffffffffff166110ee610d0e565b73ffffffffffffffffffffffffffffffffffffffff161415801561111957506111176005612108565b155b15611129576111286005612174565b5b7f712ae1383f79ac853f8d882153778e0260ef8f03b504e2866e0593e04d2b291f816040516111589190614c6b565b60405180910390a180915050949350505050565b5f60045f8381526020019081526020015f205f0160149054906101000a900465ffffffffffff1665ffffffffffff169050919050565b7f3e83946653575f9a39005e1545185629e92736b7528ab20ca3816f315424a81181565b5f6111cf6121ea565b905090565b5f6111de8261220c565b9050919050565b5f60095f8481526020019081526020015f206003015f8373ffffffffffffffffffffffffffffffffffffffff1673ffffffffffffffffffffffffffffffffffffffff1681526020019081526020015f205f9054906101000a900460ff16905092915050565b5f5f61125886868686611867565b90505f6112636123c1565b905061126f82826123c8565b6112b25781816040517f8fe5d8a90000000000000000000000000000000000000000000000000000000081526004016112a992919061600f565b60405180910390fd5b6112be8787878761243f565b92505050949350505050565b60606112d4611bdd565b73ffffffffffffffffffffffffffffffffffffffff16634bf5d7e96040518163ffffffff1660e01b81526004015f60405180830381865afa92505050801561133e57506040513d5f823e3d601f19601f8201168201806040525081019061133b91906160a4565b60015b61137f576040518060400160405280601d81526020017f6d6f64653d626c6f636b6e756d6265722666726f6d3d64656661756c740000008152509050611384565b809150505b90565b5f5f5f5f60095f8681526020019081526020015f209050805f015481600101548260020154935093509350509193909250565b60606040518060400160405280600181526020017f3100000000000000000000000000000000000000000000000000000000000000815250905090565b5f5f6114016123c1565b905061141d84828560405180602001604052805f815250612456565b91505092915050565b5f61147888888888888080601f0160208091040260200160405190810160405280939291908181526020018383808284375f81840152601f19601f820116905080830192505050505050508787612475565b6114b957856040517f94ab6c070000000000000000000000000000000000000000000000000000000081526004016114b09190614da8565b60405180910390fd5b61150988878988888080601f0160208091040260200160405190810160405280939291908181526020018383808284375f81840152601f19601f82011690508083019250505050505050876124fd565b9050979650505050505050565b5f5f6115206123c1565b905061157287828888888080601f0160208091040260200160405190810160405280939291908181526020018383808284375f81840152601f19601f82011690508083019250505050505050876124fd565b91505095945050505050565b5f61158a600a83612607565b9050919050565b611599611d9d565b6115a281612670565b50565b5f5f6115af6123c1565b905061160086828787878080601f0160208091040260200160405190810160405280939291908181526020018383808284375f81840152601f19601f82011690508083019250505050505050612456565b915050949350505050565b5f611618858585856126e3565b9050949350505050565b5f60025f8373ffffffffffffffffffffffffffffffffffffffff1673ffffffffffffffffffffffffffffffffffffffff1681526020019081526020015f20549050919050565b5f6060805f5f5f60606116796127d9565b611681612813565b46305f5f1b5f67ffffffffffffffff8111156116a05761169f614df3565b5b6040519080825280602002602001820160405280156116ce5781602001602082028036833780820191505090505b507f0f00000000000000000000000000000000000000000000000000000000000000959493929190965096509650965096509650965090919293949596565b5f61171a8585858561284e565b61175b57826040517f94ab6c070000000000000000000000000000000000000000000000000000000081526004016117529190614da8565b60405180910390fd5b61177585848660405180602001604052805f815250612456565b9050949350505050565b5f611788611bdd565b73ffffffffffffffffffffffffffffffffffffffff166391ddadf46040518163ffffffff1660e01b8152600401602060405180830381865afa9250505080156117ef57506040513d601f19601f820116820180604052508101906117ec91906160ff565b60015b611802576117fb6128c2565b9050611807565b809150505b90565b5f6064905090565b5f61181e8484846128d1565b90509392505050565b5f611832600a61295c565b79ffffffffffffffffffffffffffffffffffffffffffffffffffff16905090565b61185b611d9d565b611864816129be565b50565b5f61187485858585611a46565b9050949350505050565b5f61188882612a5b565b9050919050565b5f60045f8381526020019081526020015f206001015f9054906101000a900465ffffffffffff1665ffffffffffff169050919050565b5f6118ce612a65565b905090565b5f3073ffffffffffffffffffffffffffffffffffffffff166118f3610d0e565b73ffffffffffffffffffffffffffffffffffffffff1614611940576040517fe90a651e00000000000000000000000000000000000000000000000000000000815260040160405180910390fd5b63bc197c8160e01b905095945050505050565b5f60045f8381526020019081526020015f205f01601a9054906101000a900463ffffffff1663ffffffff1660045f8481526020019081526020015f205f0160149054906101000a900465ffffffffffff166119ae9190616157565b65ffffffffffff169050919050565b6119c5611d9d565b5f5f8573ffffffffffffffffffffffffffffffffffffffff168585856040516119ef9291906161be565b5f6040518083038185875af1925050503d805f8114611a29576040519150601f19603f3d011682016040523d82523d5f602084013e611a2e565b606091505b5091509150611a3d8282612a6e565b50505050505050565b5f84848484604051602001611a5e949392919061639a565b604051602081830303815290604052805190602001205f1c9050949350505050565b5f600b5f9054906101000a900473ffffffffffffffffffffffffffffffffffffffff16905090565b60606040518060400160405280602081526020017f737570706f72743d627261766f2671756f72756d3d666f722c6162737461696e815250905090565b7ff2aad550cf55f045cb27e9c559f9889fdfb6e6cdaa032301d6ea397784ae51d781565b611b11611d9d565b611b1a81612a92565b50565b5f611b308383611b2b612b4b565b6128d1565b905092915050565b611b40611d9d565b611b4981612b61565b50565b5f3073ffffffffffffffffffffffffffffffffffffffff16611b6c610d0e565b73ffffffffffffffffffffffffffffffffffffffff1614611bb9576040517fe90a651e00000000000000000000000000000000000000000000000000000000815260040160405180910390fd5b63f23a6e6160e01b905095945050505050565b5f611bd682612ba6565b9050919050565b5f7f0000000000000000000000000000000000000000000000000000000000000000905090565b5f600b5f9054906101000a900473ffffffffffffffffffffffffffffffffffffffff16905090565b5f7fcdbdfcee000000000000000000000000000000000000000000000000000000007bffffffffffffffffffffffffffffffffffffffffffffffffffffffff1916827bffffffffffffffffffffffffffffffffffffffffffffffffffffffff19161480611cff575063a8f8a66860e01b7fcdbdfcee00000000000000000000000000000000000000000000000000000000187bffffffffffffffffffffffffffffffffffffffffffffffffffffffff1916827bffffffffffffffffffffffffffffffffffffffffffffffffffffffff1916145b80611d6757507f4e2312e0000000000000000000000000000000000000000000000000000000007bffffffffffffffffffffffffffffffffffffffffffffffffffffffff1916827bffffffffffffffffffffffffffffffffffffffffffffffffffffffff1916145b80611d775750611d7682612c46565b5b9050919050565b5f600860069054906101000a900463ffffffff1663ffffffff16905090565b611da56123c1565b73ffffffffffffffffffffffffffffffffffffffff16611dc3610d0e565b73ffffffffffffffffffffffffffffffffffffffff1614611e2257611de66123c1565b6040517f47096e47000000000000000000000000000000000000000000000000000000008152600401611e199190614da8565b60405180910390fd5b3073ffffffffffffffffffffffffffffffffffffffff16611e41610d0e565b73ffffffffffffffffffffffffffffffffffffffff1614611e90575f611e65612caf565b604051611e739291906161be565b604051809103902090505b80611e896005612cbb565b03611e7e57505b565b5f611e9b61180a565b905080821115611ee45781816040517f243e5445000000000000000000000000000000000000000000000000000000008152600401611edb9291906163f2565b60405180910390fd5b5f611eed611827565b9050611f14611efa61177f565b611f0385612de9565b600a612e569092919063ffffffff16565b50507f0553476bf02ef2726e8ce5ced78d63e26e602e4a2257b1f559418e24b46339978184604051611f479291906163f2565b60405180910390a1505050565b5f816007811115611f6857611f67615334565b5b60ff166001901b5f1b9050919050565b5f5f611f83846111d4565b90505f5f1b83611f9283611f54565b1603611fd9578381846040517f31b75e4d000000000000000000000000000000000000000000000000000000008152600401611fd093929190616419565b60405180910390fd5b8091505092915050565b5f611ff18686868686612e71565b905095945050505050565b5f825f0160109054906101000a90046fffffffffffffffffffffffffffffffff169050825f015f9054906101000a90046fffffffffffffffffffffffffffffffff166fffffffffffffffffffffffffffffffff16600182016fffffffffffffffffffffffffffffffff1603612076576120756041613077565b5b81836001015f836fffffffffffffffffffffffffffffffff166fffffffffffffffffffffffffffffffff1681526020019081526020015f208190555060018101835f0160106101000a8154816fffffffffffffffffffffffffffffffff02191690836fffffffffffffffffffffffffffffffff160217905550505050565b6121018585858585613088565b5050505050565b5f815f015f9054906101000a90046fffffffffffffffffffffffffffffffff166fffffffffffffffffffffffffffffffff16825f0160109054906101000a90046fffffffffffffffffffffffffffffffff166fffffffffffffffffffffffffffffffff16149050919050565b5f815f015f6101000a8154816fffffffffffffffffffffffffffffffff02191690836fffffffffffffffffffffffffffffffff1602179055505f815f0160106101000a8154816fffffffffffffffffffffffffffffffff02191690836fffffffffffffffffffffffffffffffff16021790555050565b5f60085f9054906101000a900465ffffffffffff1665ffffffffffff16905090565b5f5f6122178361313c565b90506005600781111561222d5761222c615334565b5b8160078111156122405761223f615334565b5b1461224e57809150506123bc565b5f600c5f8581526020019081526020015f20549050600b5f9054906101000a900473ffffffffffffffffffffffffffffffffffffffff1673ffffffffffffffffffffffffffffffffffffffff1663584b153e826040518263ffffffff1660e01b81526004016122bd919061531b565b602060405180830381865afa1580156122d8573d5f5f3e3d5ffd5b505050506040513d601f19601f820116820180604052508101906122fc9190616478565b1561230c576005925050506123bc565b600b5f9054906101000a900473ffffffffffffffffffffffffffffffffffffffff1673ffffffffffffffffffffffffffffffffffffffff16632ab0f529826040518263ffffffff1660e01b8152600401612366919061531b565b602060405180830381865afa158015612381573d5f5f3e3d5ffd5b505050506040513d601f19601f820116820180604052508101906123a59190616478565b156123b5576007925050506123bc565b6002925050505b919050565b5f33905090565b5f5f60078111156123dc576123db615334565b5b6123e5846111d4565b60078111156123f7576123f6615334565b5b148015612437575061240883610ddf565b73ffffffffffffffffffffffffffffffffffffffff168273ffffffffffffffffffffffffffffffffffffffff16145b905092915050565b5f61244c85858585613293565b9050949350505050565b5f61246b85858585612466612b4b565b6124fd565b9050949350505050565b5f6124f1856124eb7f3e83946653575f9a39005e1545185629e92736b7528ab20ca3816f315424a8118a8a8a6124aa8c61336a565b8b805190602001208b805190602001206040516020016124d097969594939291906164b2565b604051602081830303815290604052805190602001206133bd565b846133d6565b90509695505050505050565b5f6125118661250c6001611f54565b611f78565b505f612526866125208961116c565b856128d1565b90505f6125368888888588613482565b90505f845103612599578673ffffffffffffffffffffffffffffffffffffffff167fb8e138887d0aa13bab447e82de9d5c1777041ecd21ca36ba824ff1e6c07ddda48988848960405161258c949392919061651f565b60405180910390a26125f0565b8673ffffffffffffffffffffffffffffffffffffffff167fe2babfbac5889a709b63bb7f598b324e08bc5a4fb9ec647fb3cbc9ec07eb871289888489896040516125e79594939291906165b1565b60405180910390a25b6125f988613677565b809250505095945050505050565b5f5f5f6126138561367a565b9250925050838265ffffffffffff1611156126485761264361263485613709565b8661376290919063ffffffff16565b61264a565b805b79ffffffffffffffffffffffffffffffffffffffffffffffffffff169250505092915050565b7fc565b045403dc03c2eea82b81a0465edad9e2e7fc4d97e11421c209da93d7a9360085f9054906101000a900465ffffffffffff16826040516126b4929190616610565b60405180910390a18060085f6101000a81548165ffffffffffff021916908365ffffffffffff16021790555050565b5f5f6126ed6123c1565b90506126f98184613852565b61273a57806040517fd9b395570000000000000000000000000000000000000000000000000000000081526004016127319190614da8565b60405180910390fd5b5f6127436118c5565b90505f8111156127c0575f61277383600161275c61177f565b6127669190616637565b65ffffffffffff16611b1d565b9050818110156127be578281836040517fc242ee160000000000000000000000000000000000000000000000000000000081526004016127b593929190616670565b60405180910390fd5b505b6127cd8787878786613938565b92505050949350505050565b606061280e5f7f0000000000000000000000000000000000000000000000000000000000000000613bbd90919063ffffffff16565b905090565b606061284960017f0000000000000000000000000000000000000000000000000000000000000000613bbd90919063ffffffff16565b905090565b5f6128b8836128b27ff2aad550cf55f045cb27e9c559f9889fdfb6e6cdaa032301d6ea397784ae51d78888886128838a61336a565b6040516020016128979594939291906166a5565b604051602081830303815290604052805190602001206133bd565b846133d6565b9050949350505050565b5f6128cc43613709565b905090565b5f6128da611bdd565b73ffffffffffffffffffffffffffffffffffffffff16633a46b1a885856040518363ffffffff1660e01b81526004016129149291906166f6565b602060405180830381865afa15801561292f573d5f5f3e3d5ffd5b505050506040513d601f19601f820116820180604052508101906129539190616731565b90509392505050565b5f5f825f018054905090505f81146129b457612986835f01600183612981919061675c565b613c6a565b5f0160069054906101000a900479ffffffffffffffffffffffffffffffffffffffffffffffffffff166129b6565b5f5b915050919050565b7f08f74ea46ef7894f65eabfb5e6e695de773a000b47c529ab559178069b226401600b5f9054906101000a900473ffffffffffffffffffffffffffffffffffffffff1682604051612a1092919061678f565b60405180910390a180600b5f6101000a81548173ffffffffffffffffffffffffffffffffffffffff021916908373ffffffffffffffffffffffffffffffffffffffff16021790555050565b5f60019050919050565b5f600754905090565b606082612a8357612a7e82613c7c565b612a8b565b819050612a8c565b5b92915050565b5f8163ffffffff1603612adc575f6040517ff1cfbf05000000000000000000000000000000000000000000000000000000008152600401612ad391906167ef565b60405180910390fd5b7f7e3f7f0708a84de9203036abaa450dccc85ad5ff52f78c170f3edb55cf5e8828600860069054906101000a900463ffffffff1682604051612b1f929190616838565b60405180910390a180600860066101000a81548163ffffffff021916908363ffffffff16021790555050565b606060405180602001604052805f815250905090565b7fccb45da8d5717e6c4544694297c4ba5cf151d455c9bb0ed4fc7a38411bc0546160075482604051612b949291906163f2565b60405180910390a18060078190555050565b5f612c3f612bb2611bdd565b73ffffffffffffffffffffffffffffffffffffffff16638e539e8c846040518263ffffffff1660e01b8152600401612bea9190614c6b565b602060405180830381865afa158015612c05573d5f5f3e3d5ffd5b505050506040513d601f19601f82011682018060405250810190612c299190616731565b612c328461157e565b612c3a61180a565b613cbf565b9050919050565b5f7f01ffc9a7000000000000000000000000000000000000000000000000000000007bffffffffffffffffffffffffffffffffffffffffffffffffffffffff1916827bffffffffffffffffffffffffffffffffffffffffffffffffffffffff1916149050919050565b365f5f36915091509091565b5f5f825f015f9054906101000a90046fffffffffffffffffffffffffffffffff169050825f0160109054906101000a90046fffffffffffffffffffffffffffffffff166fffffffffffffffffffffffffffffffff16816fffffffffffffffffffffffffffffffff1603612d3357612d326031613077565b5b826001015f826fffffffffffffffffffffffffffffffff166fffffffffffffffffffffffffffffffff1681526020019081526020015f20549150826001015f826fffffffffffffffffffffffffffffffff166fffffffffffffffffffffffffffffffff1681526020019081526020015f205f905560018101835f015f6101000a8154816fffffffffffffffffffffffffffffffff02191690836fffffffffffffffffffffffffffffffff16021790555050919050565b5f79ffffffffffffffffffffffffffffffffffffffffffffffffffff8016821115612e4e5760d0826040517f6dfcc650000000000000000000000000000000000000000000000000000000008152600401612e45929190616898565b60405180910390fd5b819050919050565b5f5f612e65855f018585613d9e565b91509150935093915050565b5f5f600b5f9054906101000a900473ffffffffffffffffffffffffffffffffffffffff1673ffffffffffffffffffffffffffffffffffffffff1663f27a0c926040518163ffffffff1660e01b8152600401602060405180830381865afa158015612edd573d5f5f3e3d5ffd5b505050506040513d601f19601f82011682018060405250810190612f019190616731565b90505f612f0d84614092565b9050600b5f9054906101000a900473ffffffffffffffffffffffffffffffffffffffff1673ffffffffffffffffffffffffffffffffffffffff1663b1c5f4278888885f866040518663ffffffff1660e01b8152600401612f719594939291906168fa565b602060405180830381865afa158015612f8c573d5f5f3e3d5ffd5b505050506040513d601f19601f82011682018060405250810190612fb09190616974565b600c5f8a81526020019081526020015f2081905550600b5f9054906101000a900473ffffffffffffffffffffffffffffffffffffffff1673ffffffffffffffffffffffffffffffffffffffff16638f2a0bb08888885f86886040518763ffffffff1660e01b81526004016130299695949392919061699f565b5f604051808303815f87803b158015613040575f5ffd5b505af1158015613052573d5f5f3e3d5ffd5b5050505061306a82426130659190616a13565b613709565b9250505095945050505050565b634e487b715f52806020526024601cfd5b600b5f9054906101000a900473ffffffffffffffffffffffffffffffffffffffff1673ffffffffffffffffffffffffffffffffffffffff1663e38335e5348686865f6130d388614092565b6040518763ffffffff1660e01b81526004016130f39594939291906168fa565b5f604051808303818588803b15801561310a575f5ffd5b505af115801561311c573d5f5f3e3d5ffd5b5050505050600c5f8681526020019081526020015f205f90555050505050565b5f5f60045f8481526020019081526020015f2090505f815f01601e9054906101000a900460ff1690505f825f01601f9054906101000a900460ff169050811561318b576007935050505061328e565b801561319d576002935050505061328e565b5f6131a78661116c565b90505f81036131ed57856040517f6ad060750000000000000000000000000000000000000000000000000000000081526004016131e49190614c6b565b60405180910390fd5b5f6131f661177f565b65ffffffffffff169050808210613214575f9550505050505061328e565b5f61321e88611953565b9050818110613236576001965050505050505061328e565b61323f886140af565b1580613251575061324f886140f3565b155b15613265576003965050505050505061328e565b5f61326f8961188f565b03613283576004965050505050505061328e565b600596505050505050505b919050565b5f5f6132a18686868661411a565b90505f600c5f8381526020019081526020015f205490505f5f1b811461335d57600b5f9054906101000a900473ffffffffffffffffffffffffffffffffffffffff1673ffffffffffffffffffffffffffffffffffffffff1663c4d252f5826040518263ffffffff1660e01b815260040161331b919061531b565b5f604051808303815f87803b158015613332575f5ffd5b505af1158015613344573d5f5f3e3d5ffd5b50505050600c5f8381526020019081526020015f205f90555b8192505050949350505050565b5f60025f8373ffffffffffffffffffffffffffffffffffffffff1673ffffffffffffffffffffffffffffffffffffffff1681526020019081526020015f205f815480929190600101919050559050919050565b5f6133cf6133c96141fc565b836142b2565b9050919050565b5f5f8473ffffffffffffffffffffffffffffffffffffffff163b0361346d575f5f61340185856142f2565b50915091505f600381111561341957613418615334565b5b81600381111561342c5761342b615334565b5b14801561346457508573ffffffffffffffffffffffffffffffffffffffff168273ffffffffffffffffffffffffffffffffffffffff16145b9250505061347b565b613478848484614347565b90505b9392505050565b5f5f60095f8881526020019081526020015f209050806003015f8773ffffffffffffffffffffffffffffffffffffffff1673ffffffffffffffffffffffffffffffffffffffff1681526020019081526020015f205f9054906101000a900460ff161561352557856040517f71c6af4900000000000000000000000000000000000000000000000000000000815260040161351c9190614da8565b60405180910390fd5b6001816003015f8873ffffffffffffffffffffffffffffffffffffffff1673ffffffffffffffffffffffffffffffffffffffff1681526020019081526020015f205f6101000a81548160ff0219169083151502179055505f600281111561358f5761358e615334565b5b60ff168560ff16036135b95783815f015f8282546135ad9190616a13565b9250508190555061366a565b600160028111156135cd576135cc615334565b5b60ff168560ff16036135f85783816001015f8282546135ec9190616a13565b92505081905550613669565b60028081111561360b5761360a615334565b5b60ff168560ff16036136365783816002015f82825461362a9190616a13565b92505081905550613668565b6040517f06b337c200000000000000000000000000000000000000000000000000000000815260040160405180910390fd5b5b5b8391505095945050505050565b50565b5f5f5f5f845f018054905090505f810361369d575f5f5f93509350935050613702565b5f6136b6865f016001846136b1919061675c565b613c6a565b90506001815f015f9054906101000a900465ffffffffffff16825f0160069054906101000a900479ffffffffffffffffffffffffffffffffffffffffffffffffffff1694509450945050505b9193909250565b5f65ffffffffffff801682111561375a576030826040517f6dfcc650000000000000000000000000000000000000000000000000000000008152600401613751929190616a7f565b60405180910390fd5b819050919050565b5f5f835f018054905090505f5f90505f82905060058311156137e6575f61378884614398565b84613793919061675c565b90506137a1875f0182613c6a565b5f015f9054906101000a900465ffffffffffff1665ffffffffffff168665ffffffffffff1610156137d4578091506137e4565b6001816137e19190616a13565b92505b505b5f6137f5875f01878585614532565b90505f811461384457613816875f01600183613811919061675c565b613c6a565b5f0160069054906101000a900479ffffffffffffffffffffffffffffffffffffffffffffffffffff16613846565b5f5b94505050505092915050565b5f5f82519050603481101561386b576001915050613932565b5f61387984603484036145a7565b90507f2370726f706f7365723d0000000000000000000000000000000000000000000075ffffffffffffffffffffffffffffffffffffffffffff19168175ffffffffffffffffffffffffffffffffffffffffffff1916146138df57600192505050613932565b5f5f6138ef86602a8603866145b7565b9150915081158061392b57508673ffffffffffffffffffffffffffffffffffffffff168173ffffffffffffffffffffffffffffffffffffffff16145b9450505050505b92915050565b5f61394c8686868680519060200120611867565b90508451865114158061396157508351865114155b8061396c57505f8651145b156139b5578551845186516040517f447b05d00000000000000000000000000000000000000000000000000000000081526004016139ac939291906153fe565b60405180910390fd5b5f60045f8381526020019081526020015f205f0160149054906101000a900465ffffffffffff1665ffffffffffff1614613a3457806139f3826111d4565b5f5f1b6040517f31b75e4d000000000000000000000000000000000000000000000000000000008152600401613a2b93929190616419565b60405180910390fd5b5f613a3d6111c6565b613a4561177f565b65ffffffffffff16613a579190616a13565b90505f613a62610d2d565b90505f60045f8581526020019081526020015f20905084815f015f6101000a81548173ffffffffffffffffffffffffffffffffffffffff021916908373ffffffffffffffffffffffffffffffffffffffff160217905550613ac283613709565b815f0160146101000a81548165ffffffffffff021916908365ffffffffffff160217905550613af0826146c8565b815f01601a6101000a81548163ffffffff021916908363ffffffff1602179055507f7d84a6263ae0d98d3329bd7b46bb4e8d6f98cd35a7adb45c274c8b7fd5ebd5e084868b8b8d5167ffffffffffffffff811115613b5157613b50614df3565b5b604051908082528060200260200182016040528015613b8457816020015b6060815260200190600190039081613b6f5790505b508c89898b613b939190616a13565b8e604051613ba999989796959493929190616ba9565b60405180910390a150505095945050505050565b606060ff5f1b8314613bd957613bd28361471f565b9050613c64565b818054613be590615f5b565b80601f0160208091040260200160405190810160405280929190818152602001828054613c1190615f5b565b8015613c5c5780601f10613c3357610100808354040283529160200191613c5c565b820191905f5260205f20905b815481529060010190602001808311613c3f57829003601f168201915b505050505090505b92915050565b5f825f528160205f2001905092915050565b5f81511115613c8d57805160208201fd5b6040517fd6bda27500000000000000000000000000000000000000000000000000000000815260040160405180910390fd5b5f5f5f613ccc8686614791565b915091505f8203613cf157838181613ce757613ce6616c57565b5b0492505050613d97565b818411613d1057613d0f613d0a5f8614601260116147ae565b613077565b5b5f8486880990508181118303925080820391505f855f038616905080860495508083049250600181825f0304019050808402831792505f600287600302189050808702600203810290508087026002038102905080870260020381029050808702600203810290508087026002038102905080870260020381029050808402955050505050505b9392505050565b5f5f5f858054905090505f811115613faa575f613dc787600184613dc2919061675c565b613c6a565b90505f815f015f9054906101000a900465ffffffffffff1690505f825f0160069054906101000a900479ffffffffffffffffffffffffffffffffffffffffffffffffffff1690508765ffffffffffff168265ffffffffffff161115613e58576040517f2520601d00000000000000000000000000000000000000000000000000000000815260040160405180910390fd5b8765ffffffffffff168265ffffffffffff1603613ec25786835f0160066101000a81548179ffffffffffffffffffffffffffffffffffffffffffffffffffff021916908379ffffffffffffffffffffffffffffffffffffffffffffffffffff160217905550613f9b565b8860405180604001604052808a65ffffffffffff1681526020018979ffffffffffffffffffffffffffffffffffffffffffffffffffff16815250908060018154018082558091505060019003905f5260205f20015f909190919091505f820151815f015f6101000a81548165ffffffffffff021916908365ffffffffffff1602179055506020820151815f0160066101000a81548179ffffffffffffffffffffffffffffffffffffffffffffffffffff021916908379ffffffffffffffffffffffffffffffffffffffffffffffffffff16021790555050505b8087955095505050505061408a565b8560405180604001604052808765ffffffffffff1681526020018679ffffffffffffffffffffffffffffffffffffffffffffffffffff16815250908060018154018082558091505060019003905f5260205f20015f909190919091505f820151815f015f6101000a81548165ffffffffffff021916908365ffffffffffff1602179055506020820151815f0160066101000a81548179ffffffffffffffffffffffffffffffffffffffffffffffffffff021916908379ffffffffffffffffffffffffffffffffffffffffffffffffffff16021790555050505f8492509250505b935093915050565b5f813060601b6bffffffffffffffffffffffff1916189050919050565b5f5f60095f8481526020019081526020015f209050806002015481600101546140d89190616a13565b6140e96140e48561116c565b611bcc565b1115915050919050565b5f5f60095f8481526020019081526020015f209050805f0154816001015411915050919050565b5f5f61412886868686611867565b905061418c816141386007611f54565b6141426006611f54565b61414c6002611f54565b60018060078081111561416257614161615334565b5b61416c9190616c84565b60026141789190616de7565b614182919061675c565b5f1b181818611f78565b50600160045f8381526020019081526020015f205f01601f6101000a81548160ff0219169083151502179055507f789cf55be980739dad1d0699b93b58e806b51c9d96619bfa8fe0a28abaa7b30c816040516141e89190614c6b565b60405180910390a180915050949350505050565b5f7f000000000000000000000000000000000000000000000000000000000000000073ffffffffffffffffffffffffffffffffffffffff163073ffffffffffffffffffffffffffffffffffffffff1614801561427757507f000000000000000000000000000000000000000000000000000000000000000046145b156142a4577f000000000000000000000000000000000000000000000000000000000000000090506142af565b6142ac6147c7565b90505b90565b5f6040517f190100000000000000000000000000000000000000000000000000000000000081528360028201528260228201526042812091505092915050565b5f5f5f6041845103614332575f5f5f602087015192506040870151915060608701515f1a90506143248882858561485c565b955095509550505050614340565b5f600285515f1b9250925092505b9250925092565b5f5f631626ba7e60e01b90505f83519050604051828152856004820152604060248201526020820185604483015e60205f60648401838a5afa835f511460193d111681169450505050509392505050565b5f600182116143a95781905061452d565b5f8290505f6001905070010000000000000000000000000000000082106143d957608082901c9150604081901b90505b6801000000000000000082106143f857604082901c9150602081901b90505b640100000000821061441357602082901c9150601081901b90505b62010000821061442c57601082901c9150600881901b90505b610100821061444457600882901c9150600481901b90505b6010821061445b57600482901c9150600281901b90505b6004821061446b57600181901b90505b600181600302901c9050600181858161448757614486616c57565b5b048201901c905060018185816144a05761449f616c57565b5b048201901c905060018185816144b9576144b8616c57565b5b048201901c905060018185816144d2576144d1616c57565b5b048201901c905060018185816144eb576144ea616c57565b5b048201901c9050600181858161450457614503616c57565b5b048201901c905061452681858161451e5761451d616c57565b5b048211614943565b8103925050505b919050565b5f5b8183101561459c575f614547848461494e565b90508465ffffffffffff1661455c8783613c6a565b5f015f9054906101000a900465ffffffffffff1665ffffffffffff16111561458657809250614596565b6001816145939190616a13565b93505b50614534565b819050949350505050565b5f81602084010151905092915050565b5f5f84518311806145c757508284115b156145d7575f5f915091506146c0565b5f6001856145e59190616a13565b8411801561465d57507f30780000000000000000000000000000000000000000000000000000000000007dffffffffffffffffffffffffffffffffffffffffffffffffffffffffffff191661463a8787614973565b7dffffffffffffffffffffffffffffffffffffffffffffffffffffffffffff1916145b90505f600261466d831515614943565b6146779190616e31565b60286146839190616a13565b9050808686614692919061675c565b036146b7575f5f6146a4898989614983565b91509150818195509550505050506146c0565b5f5f9350935050505b935093915050565b5f63ffffffff8016821115614717576020826040517f6dfcc65000000000000000000000000000000000000000000000000000000000815260040161470e929190616eab565b60405180910390fd5b819050919050565b60605f61472b83614ab1565b90505f602067ffffffffffffffff81111561474957614748614df3565b5b6040519080825280601f01601f19166020018201604052801561477b5781602001600182028036833780820191505090505b5090508181528360208201528092505050919050565b5f5f5f198385098385029150818110828203039250509250929050565b5f6147b884614943565b82841802821890509392505050565b5f7f8b73c3c69bb8fe3d512ecc4cf759cc79239f7b179b0ffacaa9a75d522b39400f7f00000000000000000000000000000000000000000000000000000000000000007f00000000000000000000000000000000000000000000000000000000000000004630604051602001614841959493929190616ed2565b60405160208183030381529060405280519060200120905090565b5f5f5f7f7fffffffffffffffffffffffffffffff5d576e7357a4501ddfe92f46681b20a0845f1c1115614898575f600385925092509250614939565b5f6001888888886040515f81526020016040526040516148bb9493929190616f23565b6020604051602081039080840390855afa1580156148db573d5f5f3e3d5ffd5b5050506020604051035190505f73ffffffffffffffffffffffffffffffffffffffff168173ffffffffffffffffffffffffffffffffffffffff160361492c575f60015f5f1b93509350935050614939565b805f5f5f1b935093509350505b9450945094915050565b5f8115159050919050565b5f600282841861495e9190616f66565b82841661496b9190616a13565b905092915050565b5f81602084010151905092915050565b5f5f5f8590505f6001866149979190616a13565b85118015614a0f57507f30780000000000000000000000000000000000000000000000000000000000007dffffffffffffffffffffffffffffffffffffffffffffffffffffffffffff19166149ec8388614973565b7dffffffffffffffffffffffffffffffffffffffffffffffffffffffffffff1916145b90505f6002614a1f831515614943565b614a299190616e31565b90505f5f90505f8289614a3c9190616a13565b90505b87811015614a9c575f614a5a614a558784614973565b614aff565b9050600f8160ff161115614a79575f5f97509750505050505050614aa9565b601083614a869190616e31565b92508060ff168301925050806001019050614a3f565b5060018195509550505050505b935093915050565b5f5f60ff835f1c169050601f811115614af6576040517fb3512b0c00000000000000000000000000000000000000000000000000000000815260040160405180910390fd5b80915050919050565b5f5f8260f81c9050602f8160ff16118015614b1d5750603a8160ff16105b15614b2d57603081039050614b85565b60608160ff16118015614b43575060678160ff16105b15614b5357605781039050614b84565b60408160ff16118015614b69575060478160ff16105b15614b7957603781039050614b83565b60ff915050614b8a565b5b5b809150505b919050565b5f604051905090565b5f5ffd5b5f5ffd5b5f7fffffffff0000000000000000000000000000000000000000000000000000000082169050919050565b614bd481614ba0565b8114614bde575f5ffd5b50565b5f81359050614bef81614bcb565b92915050565b5f60208284031215614c0a57614c09614b98565b5b5f614c1784828501614be1565b91505092915050565b5f8115159050919050565b614c3481614c20565b82525050565b5f602082019050614c4d5f830184614c2b565b92915050565b5f819050919050565b614c6581614c53565b82525050565b5f602082019050614c7e5f830184614c5c565b92915050565b614c8d81614c53565b8114614c97575f5ffd5b50565b5f81359050614ca881614c84565b92915050565b5f60208284031215614cc357614cc2614b98565b5b5f614cd084828501614c9a565b91505092915050565b5f81519050919050565b5f82825260208201905092915050565b8281835e5f83830152505050565b5f601f19601f8301169050919050565b5f614d1b82614cd9565b614d258185614ce3565b9350614d35818560208601614cf3565b614d3e81614d01565b840191505092915050565b5f6020820190508181035f830152614d618184614d11565b905092915050565b5f73ffffffffffffffffffffffffffffffffffffffff82169050919050565b5f614d9282614d69565b9050919050565b614da281614d88565b82525050565b5f602082019050614dbb5f830184614d99565b92915050565b614dca81614d88565b8114614dd4575f5ffd5b50565b5f81359050614de581614dc1565b92915050565b5f5ffd5b5f5ffd5b7f4e487b71000000000000000000000000000000000000000000000000000000005f52604160045260245ffd5b614e2982614d01565b810181811067ffffffffffffffff82111715614e4857614e47614df3565b5b80604052505050565b5f614e5a614b8f565b9050614e668282614e20565b919050565b5f67ffffffffffffffff821115614e8557614e84614df3565b5b614e8e82614d01565b9050602081019050919050565b828183375f83830152505050565b5f614ebb614eb684614e6b565b614e51565b905082815260208101848484011115614ed757614ed6614def565b5b614ee2848285614e9b565b509392505050565b5f82601f830112614efe57614efd614deb565b5b8135614f0e848260208601614ea9565b91505092915050565b5f5f5f5f60808587031215614f2f57614f2e614b98565b5b5f614f3c87828801614dd7565b9450506020614f4d87828801614dd7565b9350506040614f5e87828801614c9a565b925050606085013567ffffffffffffffff811115614f7f57614f7e614b9c565b5b614f8b87828801614eea565b91505092959194509250565b614fa081614ba0565b82525050565b5f602082019050614fb95f830184614f97565b92915050565b5f67ffffffffffffffff821115614fd957614fd8614df3565b5b602082029050602081019050919050565b5f5ffd5b5f615000614ffb84614fbf565b614e51565b9050808382526020820190506020840283018581111561502357615022614fea565b5b835b8181101561504c57806150388882614dd7565b845260208401935050602081019050615025565b5050509392505050565b5f82601f83011261506a57615069614deb565b5b813561507a848260208601614fee565b91505092915050565b5f67ffffffffffffffff82111561509d5761509c614df3565b5b602082029050602081019050919050565b5f6150c06150bb84615083565b614e51565b905080838252602082019050602084028301858111156150e3576150e2614fea565b5b835b8181101561510c57806150f88882614c9a565b8452602084019350506020810190506150e5565b5050509392505050565b5f82601f83011261512a57615129614deb565b5b813561513a8482602086016150ae565b91505092915050565b5f67ffffffffffffffff82111561515d5761515c614df3565b5b602082029050602081019050919050565b5f61518061517b84615143565b614e51565b905080838252602082019050602084028301858111156151a3576151a2614fea565b5b835b818110156151ea57803567ffffffffffffffff8111156151c8576151c7614deb565b5b8086016151d58982614eea565b855260208501945050506020810190506151a5565b5050509392505050565b5f82601f83011261520857615207614deb565b5b813561521884826020860161516e565b91505092915050565b5f819050919050565b61523381615221565b811461523d575f5ffd5b50565b5f8135905061524e8161522a565b92915050565b5f5f5f5f6080858703121561526c5761526b614b98565b5b5f85013567ffffffffffffffff81111561528957615288614b9c565b5b61529587828801615056565b945050602085013567ffffffffffffffff8111156152b6576152b5614b9c565b5b6152c287828801615116565b935050604085013567ffffffffffffffff8111156152e3576152e2614b9c565b5b6152ef878288016151f4565b925050606061530087828801615240565b91505092959194509250565b61531581615221565b82525050565b5f60208201905061532e5f83018461530c565b92915050565b7f4e487b71000000000000000000000000000000000000000000000000000000005f52602160045260245ffd5b6008811061537257615371615334565b5b50565b5f81905061538282615361565b919050565b5f61539182615375565b9050919050565b6153a181615387565b82525050565b5f6020820190506153ba5f830184615398565b92915050565b5f5f604083850312156153d6576153d5614b98565b5b5f6153e385828601614c9a565b92505060206153f485828601614dd7565b9150509250929050565b5f6060820190506154115f830186614c5c565b61541e6020830185614c5c565b61542b6040830184614c5c565b949350505050565b5f60ff82169050919050565b61544881615433565b8114615452575f5ffd5b50565b5f813590506154638161543f565b92915050565b5f5f6040838503121561547f5761547e614b98565b5b5f61548c85828601614c9a565b925050602061549d85828601615455565b9150509250929050565b5f5ffd5b5f5f83601f8401126154c0576154bf614deb565b5b8235905067ffffffffffffffff8111156154dd576154dc6154a7565b5b6020830191508360018202830111156154f9576154f8614fea565b5b9250929050565b5f5f5f5f5f5f5f60c0888a03121561551b5761551a614b98565b5b5f6155288a828b01614c9a565b97505060206155398a828b01615455565b965050604061554a8a828b01614dd7565b955050606088013567ffffffffffffffff81111561556b5761556a614b9c565b5b6155778a828b016154ab565b9450945050608088013567ffffffffffffffff81111561559a57615599614b9c565b5b6155a68a828b01614eea565b92505060a088013567ffffffffffffffff8111156155c7576155c6614b9c565b5b6155d38a828b01614eea565b91505092959891949750929550565b5f5f5f5f5f608086880312156155fb576155fa614b98565b5b5f61560888828901614c9a565b955050602061561988828901615455565b945050604086013567ffffffffffffffff81111561563a57615639614b9c565b5b615646888289016154ab565b9350935050606086013567ffffffffffffffff81111561566957615668614b9c565b5b61567588828901614eea565b9150509295509295909350565b5f65ffffffffffff82169050919050565b61569c81615682565b81146156a6575f5ffd5b50565b5f813590506156b781615693565b92915050565b5f602082840312156156d2576156d1614b98565b5b5f6156df848285016156a9565b91505092915050565b5f5f5f5f60608587031215615700576156ff614b98565b5b5f61570d87828801614c9a565b945050602061571e87828801615455565b935050604085013567ffffffffffffffff81111561573f5761573e614b9c565b5b61574b878288016154ab565b925092505092959194509250565b5f67ffffffffffffffff82111561577357615772614df3565b5b61577c82614d01565b9050602081019050919050565b5f61579b61579684615759565b614e51565b9050828152602081018484840111156157b7576157b6614def565b5b6157c2848285614e9b565b509392505050565b5f82601f8301126157de576157dd614deb565b5b81356157ee848260208601615789565b91505092915050565b5f5f5f5f6080858703121561580f5761580e614b98565b5b5f85013567ffffffffffffffff81111561582c5761582b614b9c565b5b61583887828801615056565b945050602085013567ffffffffffffffff81111561585957615858614b9c565b5b61586587828801615116565b935050604085013567ffffffffffffffff81111561588657615885614b9c565b5b615892878288016151f4565b925050606085013567ffffffffffffffff8111156158b3576158b2614b9c565b5b6158bf878288016157ca565b91505092959194509250565b5f602082840312156158e0576158df614b98565b5b5f6158ed84828501614dd7565b91505092915050565b5f7fff0000000000000000000000000000000000000000000000000000000000000082169050919050565b61592a816158f6565b82525050565b5f81519050919050565b5f82825260208201905092915050565b5f819050602082019050919050565b61596281614c53565b82525050565b5f6159738383615959565b60208301905092915050565b5f602082019050919050565b5f61599582615930565b61599f818561593a565b93506159aa8361594a565b805f5b838110156159da5781516159c18882615968565b97506159cc8361597f565b9250506001810190506159ad565b5085935050505092915050565b5f60e0820190506159fa5f83018a615921565b8181036020830152615a0c8189614d11565b90508181036040830152615a208188614d11565b9050615a2f6060830187614c5c565b615a3c6080830186614d99565b615a4960a083018561530c565b81810360c0830152615a5b818461598b565b905098975050505050505050565b5f5f5f5f60808587031215615a8157615a80614b98565b5b5f615a8e87828801614c9a565b9450506020615a9f87828801615455565b9350506040615ab087828801614dd7565b925050606085013567ffffffffffffffff811115615ad157615ad0614b9c565b5b615add87828801614eea565b91505092959194509250565b615af281615682565b82525050565b5f602082019050615b0b5f830184615ae9565b92915050565b5f5f5f60608486031215615b2857615b27614b98565b5b5f615b3586828701614dd7565b9350506020615b4686828701614c9a565b925050604084013567ffffffffffffffff811115615b6757615b66614b9c565b5b615b7386828701614eea565b9150509250925092565b5f615b8782614d69565b9050919050565b5f615b9882615b7d565b9050919050565b615ba881615b8e565b8114615bb2575f5ffd5b50565b5f81359050615bc381615b9f565b92915050565b5f60208284031215615bde57615bdd614b98565b5b5f615beb84828501615bb5565b91505092915050565b5f5f5f5f5f60a08688031215615c0d57615c0c614b98565b5b5f615c1a88828901614dd7565b9550506020615c2b88828901614dd7565b945050604086013567ffffffffffffffff811115615c4c57615c4b614b9c565b5b615c5888828901615116565b935050606086013567ffffffffffffffff811115615c7957615c78614b9c565b5b615c8588828901615116565b925050608086013567ffffffffffffffff811115615ca657615ca5614b9c565b5b615cb288828901614eea565b9150509295509295909350565b5f5f83601f840112615cd457615cd3614deb565b5b8235905067ffffffffffffffff811115615cf157615cf06154a7565b5b602083019150836001820283011115615d0d57615d0c614fea565b5b9250929050565b5f5f5f5f60608587031215615d2c57615d2b614b98565b5b5f615d3987828801614dd7565b9450506020615d4a87828801614c9a565b935050604085013567ffffffffffffffff811115615d6b57615d6a614b9c565b5b615d7787828801615cbf565b925092505092959194509250565b5f63ffffffff82169050919050565b615d9d81615d85565b8114615da7575f5ffd5b50565b5f81359050615db881615d94565b92915050565b5f60208284031215615dd357615dd2614b98565b5b5f615de084828501615daa565b91505092915050565b5f5f60408385031215615dff57615dfe614b98565b5b5f615e0c85828601614dd7565b9250506020615e1d85828601614c9a565b9150509250929050565b5f5f5f5f5f60a08688031215615e4057615e3f614b98565b5b5f615e4d88828901614dd7565b9550506020615e5e88828901614dd7565b9450506040615e6f88828901614c9a565b9350506060615e8088828901614c9a565b925050608086013567ffffffffffffffff811115615ea157615ea0614b9c565b5b615ead88828901614eea565b9150509295509295909350565b5f819050919050565b5f615edd615ed8615ed384614d69565b615eba565b614d69565b9050919050565b5f615eee82615ec3565b9050919050565b5f615eff82615ee4565b9050919050565b615f0f81615ef5565b82525050565b5f602082019050615f285f830184615f06565b92915050565b7f4e487b71000000000000000000000000000000000000000000000000000000005f52602260045260245ffd5b5f6002820490506001821680615f7257607f821691505b602082108103615f8557615f84615f2e565b5b50919050565b5f615fa5615fa0615f9b84615682565b615eba565b614c53565b9050919050565b615fb581615f8b565b82525050565b5f604082019050615fce5f830185614c5c565b615fdb6020830184615fac565b9392505050565b7f4e487b71000000000000000000000000000000000000000000000000000000005f52603260045260245ffd5b5f6040820190506160225f830185614c5c565b61602f6020830184614d99565b9392505050565b5f61604861604384615759565b614e51565b90508281526020810184848401111561606457616063614def565b5b61606f848285614cf3565b509392505050565b5f82601f83011261608b5761608a614deb565b5b815161609b848260208601616036565b91505092915050565b5f602082840312156160b9576160b8614b98565b5b5f82015167ffffffffffffffff8111156160d6576160d5614b9c565b5b6160e284828501616077565b91505092915050565b5f815190506160f981615693565b92915050565b5f6020828403121561611457616113614b98565b5b5f616121848285016160eb565b91505092915050565b7f4e487b71000000000000000000000000000000000000000000000000000000005f52601160045260245ffd5b5f61616182615682565b915061616c83615682565b9250828201905065ffffffffffff81111561618a5761618961612a565b5b92915050565b5f81905092915050565b5f6161a58385616190565b93506161b2838584614e9b565b82840190509392505050565b5f6161ca82848661619a565b91508190509392505050565b5f81519050919050565b5f82825260208201905092915050565b5f819050602082019050919050565b61620881614d88565b82525050565b5f61621983836161ff565b60208301905092915050565b5f602082019050919050565b5f61623b826161d6565b61624581856161e0565b9350616250836161f0565b805f5b83811015616280578151616267888261620e565b975061627283616225565b925050600181019050616253565b5085935050505092915050565b5f81519050919050565b5f82825260208201905092915050565b5f819050602082019050919050565b5f81519050919050565b5f82825260208201905092915050565b5f6162da826162b6565b6162e481856162c0565b93506162f4818560208601614cf3565b6162fd81614d01565b840191505092915050565b5f61631383836162d0565b905092915050565b5f602082019050919050565b5f6163318261628d565b61633b8185616297565b93508360208202850161634d856162a7565b805f5b8581101561638857848403895281516163698582616308565b94506163748361631b565b925060208a01995050600181019050616350565b50829750879550505050505092915050565b5f6080820190508181035f8301526163b28187616231565b905081810360208301526163c6818661598b565b905081810360408301526163da8185616327565b90506163e9606083018461530c565b95945050505050565b5f6040820190506164055f830185614c5c565b6164126020830184614c5c565b9392505050565b5f60608201905061642c5f830186614c5c565b6164396020830185615398565b616446604083018461530c565b949350505050565b61645781614c20565b8114616461575f5ffd5b50565b5f815190506164728161644e565b92915050565b5f6020828403121561648d5761648c614b98565b5b5f61649a84828501616464565b91505092915050565b6164ac81615433565b82525050565b5f60e0820190506164c55f83018a61530c565b6164d26020830189614c5c565b6164df60408301886164a3565b6164ec6060830187614d99565b6164f96080830186614c5c565b61650660a083018561530c565b61651360c083018461530c565b98975050505050505050565b5f6080820190506165325f830187614c5c565b61653f60208301866164a3565b61654c6040830185614c5c565b818103606083015261655e8184614d11565b905095945050505050565b5f82825260208201905092915050565b5f616583826162b6565b61658d8185616569565b935061659d818560208601614cf3565b6165a681614d01565b840191505092915050565b5f60a0820190506165c45f830188614c5c565b6165d160208301876164a3565b6165de6040830186614c5c565b81810360608301526165f08185614d11565b905081810360808301526166048184616579565b90509695505050505050565b5f6040820190506166235f830185615fac565b6166306020830184615fac565b9392505050565b5f61664182615682565b915061664c83615682565b9250828203905065ffffffffffff81111561666a5761666961612a565b5b92915050565b5f6060820190506166835f830186614d99565b6166906020830185614c5c565b61669d6040830184614c5c565b949350505050565b5f60a0820190506166b85f83018861530c565b6166c56020830187614c5c565b6166d260408301866164a3565b6166df6060830185614d99565b6166ec6080830184614c5c565b9695505050505050565b5f6040820190506167095f830185614d99565b6167166020830184614c5c565b9392505050565b5f8151905061672b81614c84565b92915050565b5f6020828403121561674657616745614b98565b5b5f6167538482850161671d565b91505092915050565b5f61676682614c53565b915061677183614c53565b92508282039050818111156167895761678861612a565b5b92915050565b5f6040820190506167a25f830185614d99565b6167af6020830184614d99565b9392505050565b5f819050919050565b5f6167d96167d46167cf846167b6565b615eba565b614c53565b9050919050565b6167e9816167bf565b82525050565b5f6020820190506168025f8301846167e0565b92915050565b5f61682261681d61681884615d85565b615eba565b614c53565b9050919050565b61683281616808565b82525050565b5f60408201905061684b5f830185616829565b6168586020830184616829565b9392505050565b5f819050919050565b5f61688261687d6168788461685f565b615eba565b615433565b9050919050565b61689281616868565b82525050565b5f6040820190506168ab5f830185616889565b6168b86020830184614c5c565b9392505050565b5f815f1b9050919050565b5f6168e46168df6168da846167b6565b6168bf565b615221565b9050919050565b6168f4816168ca565b82525050565b5f60a0820190508181035f8301526169128188616231565b90508181036020830152616926818761598b565b9050818103604083015261693a8186616327565b905061694960608301856168eb565b616956608083018461530c565b9695505050505050565b5f8151905061696e8161522a565b92915050565b5f6020828403121561698957616988614b98565b5b5f61699684828501616960565b91505092915050565b5f60c0820190508181035f8301526169b78189616231565b905081810360208301526169cb818861598b565b905081810360408301526169df8187616327565b90506169ee60608301866168eb565b6169fb608083018561530c565b616a0860a0830184614c5c565b979650505050505050565b5f616a1d82614c53565b9150616a2883614c53565b9250828201905080821115616a4057616a3f61612a565b5b92915050565b5f819050919050565b5f616a69616a64616a5f84616a46565b615eba565b615433565b9050919050565b616a7981616a4f565b82525050565b5f604082019050616a925f830185616a70565b616a9f6020830184614c5c565b9392505050565b5f81519050919050565b5f82825260208201905092915050565b5f819050602082019050919050565b5f82825260208201905092915050565b5f616ae982614cd9565b616af38185616acf565b9350616b03818560208601614cf3565b616b0c81614d01565b840191505092915050565b5f616b228383616adf565b905092915050565b5f602082019050919050565b5f616b4082616aa6565b616b4a8185616ab0565b935083602082028501616b5c85616ac0565b805f5b85811015616b975784840389528151616b788582616b17565b9450616b8383616b2a565b925060208a01995050600181019050616b5f565b50829750879550505050505092915050565b5f61012082019050616bbd5f83018c614c5c565b616bca602083018b614d99565b8181036040830152616bdc818a616231565b90508181036060830152616bf0818961598b565b90508181036080830152616c048188616b36565b905081810360a0830152616c188187616327565b9050616c2760c0830186614c5c565b616c3460e0830185614c5c565b818103610100830152616c478184614d11565b90509a9950505050505050505050565b7f4e487b71000000000000000000000000000000000000000000000000000000005f52601260045260245ffd5b5f616c8e82615433565b9150616c9983615433565b9250828201905060ff811115616cb257616cb161612a565b5b92915050565b5f8160011c9050919050565b5f5f8291508390505b6001851115616d0d57808604811115616ce957616ce861612a565b5b6001851615616cf85780820291505b8081029050616d0685616cb8565b9450616ccd565b94509492505050565b5f82616d255760019050616de0565b81616d32575f9050616de0565b8160018114616d485760028114616d5257616d81565b6001915050616de0565b60ff841115616d6457616d6361612a565b5b8360020a915084821115616d7b57616d7a61612a565b5b50616de0565b5060208310610133831016604e8410600b8410161715616db65782820a905083811115616db157616db061612a565b5b616de0565b616dc38484846001616cc4565b92509050818404811115616dda57616dd961612a565b5b81810290505b9392505050565b5f616df182614c53565b9150616dfc83615433565b9250616e297fffffffffffffffffffffffffffffffffffffffffffffffffffffffffffffffff8484616d16565b905092915050565b5f616e3b82614c53565b9150616e4683614c53565b9250828202616e5481614c53565b91508282048414831517616e6b57616e6a61612a565b5b5092915050565b5f819050919050565b5f616e95616e90616e8b84616e72565b615eba565b615433565b9050919050565b616ea581616e7b565b82525050565b5f604082019050616ebe5f830185616e9c565b616ecb6020830184614c5c565b9392505050565b5f60a082019050616ee55f83018861530c565b616ef2602083018761530c565b616eff604083018661530c565b616f0c6060830185614c5c565b616f196080830184614d99565b9695505050505050565b5f608082019050616f365f83018761530c565b616f4360208301866164a3565b616f50604083018561530c565b616f5d606083018461530c565b95945050505050565b5f616f7082614c53565b9150616f7b83614c53565b925082616f8b57616f8a616c57565b5b82820490509291505056fea26469706673582212200e7748f728a191389425e685cbb1777897fdd04d61a273b4c4a9edd6d91c5eec64736f6c634300081e0033","linkReferences":{}},"methodIdentifiers":{"BALLOT_TYPEHASH()":"deaaa7cc","CLOCK_MODE()":"4bf5d7e9","COUNTING_MODE()":"dd4e2ba5","EXTENDED_BALLOT_TYPEHASH()":"2fe3e261","cancel(address[],uint256[],bytes[],bytes32)":"452115d6","castVote(uint256,uint8)":"56781388","castVoteBySig(uint256,uint8,address,bytes)":"8ff262e3","castVoteWithReason(uint256,uint8,string)":"7b3c71d3","castVoteWithReasonAndParams(uint256,uint8,string,bytes)":"5f398a14","castVoteWithReasonAndParamsBySig(uint256,uint8,address,string,bytes,bytes)":"5b8d0e0d","clock()":"91ddadf4","eip712Domain()":"84b0196e","execute(address[],uint256[],bytes[],bytes32)":"2656227d","getProposalId(address[],uint256[],bytes[],bytes32)":"a8f8a668","getVotes(address,uint256)":"eb9019d4","getVotesWithParams(address,uint256,bytes)":"9a802a6d","hasVoted(uint256,address)":"43859632","hashProposal(address[],uint256[],bytes[],bytes32)":"c59057e4","name()":"06fdde03","nonces(address)":"7ecebe00","onERC1155BatchReceived(address,address,uint256[],uint256[],bytes)":"bc197c81","onERC1155Received(address,address,uint256,uint256,bytes)":"f23a6e61","onERC721Received(address,address,uint256,bytes)":"150b7a02","proposalDeadline(uint256)":"c01f9e37","proposalEta(uint256)":"ab58fb8e","proposalNeedsQueuing(uint256)":"a9a95294","proposalProposer(uint256)":"143489d0","proposalSnapshot(uint256)":"2d63f693","proposalThreshold()":"b58131b0","proposalVotes(uint256)":"544ffc9c","propose(address[],uint256[],bytes[],string)":"7d5e81e2","queue(address[],uint256[],bytes[],bytes32)":"160cbed7","quorum(uint256)":"f8ce560a","quorumDenominator()":"97c3d334","quorumNumerator()":"a7713a70","quorumNumerator(uint256)":"60c4247f","relay(address,uint256,bytes)":"c28bc2fa","setProposalThreshold(uint256)":"ece40cc1","setVotingDelay(uint48)":"79051887","setVotingPeriod(uint32)":"e540d01d","state(uint256)":"3e4f49e6","supportsInterface(bytes4)":"01ffc9a7","timelock()":"d33219b4","token()":"fc0c546a","updateQuorumNumerator(uint256)":"06f3f9e6","updateTimelock(address)":"a890c910","version()":"54fd4d50","votingDelay()":"3932abb1","votingPeriod()":"02a251a3"},"id":1}