{"abi":[{"type":"constructor","inputs":[{"name":"_token","type":"address","internalType":"contract IERC5805"}],"stateMutability":"nonpayable"},{"type":"receive","stateMutability":"payable"},{"type":"function","name":"BALLOT_TYPEHASH","inputs":[],"outputs":[{"name":"","type":"bytes32","internalType":"bytes32"}],"stateMutability":"view"},{"type":"function","name":"CLOCK_MODE","inputs":[],"outputs":[{"name":"","type":"string","internalType":"string"}],"stateMutability":"view"},{"type":"function","name":"COUNTING_MODE","inputs":[],"outputs":[{"name":"","type":"string","internalType":"string"}],"stateMutability":"pure"},{"type":"function","name":"EXTENDED_BALLOT_TYPEHASH","inputs":[],"outputs":[{"name":"","type":"bytes32","internalType":"bytes32"}],"stateMutability":"view"},{"type":"function","name":"cancel","inputs":[{"name":"targets","type":"address[]","internalType":"address[]"},{"name":"values","type":"uint256[]","internalType":"uint256[]"},{"name":"calldatas","type":"bytes[]","internalType":"bytes[]"},{"name":"descriptionHash","type":"bytes32","internalType":"bytes32"}],"outputs":[{"name":"","type":"uint256","internalType":"uint256"}],"stateMutability":"nonpayable"},{"type":"function","name":"castVote","inputs":[{"name":"proposalId","type":"uint256","internalType":"uint256"},{"name":"support","type":"uint8","internalType":"uint8"}],"outputs":[{"name":"","type":"uint256","internalType":"uint256"}],"stateMutability":"nonpayable"},{"type":"function","name":"castVoteBySig","inputs":[{"name":"proposalId","type":"uint256","internalType":"uint256"},{"name":"support","type":"uint8","internalType":"uint8"},{"name":"voter","type":"address","internalType":"address"},{"name":"signature","type":"bytes","internalType":"bytes"}],"outputs":[{"name":"","type":"uint256","internalType":"uint256"}],"stateMutability":"nonpayable"},{"type":"function","name":"castVoteWithReason","inputs":[{"name":"proposalId","type":"uint256","internalType":"uint256"},{"name":"support","type":"uint8","internalType":"uint8"},{"name":"reason","type":"string","internalType":"string"}],"outputs":[{"name":"","type":"uint256","internalType":"uint256"}],"stateMutability":"nonpayable"},{"type":"function","name":"castVoteWithReasonAndParams","inputs":[{"name":"proposalId","type":"uint256","internalType":"uint256"},{"name":"support","type":"uint8","internalType":"uint8"},{"name":"reason","type":"string","internalType":"string"},{"name":"params","type":"bytes","internalType":"bytes"}],"outputs":[{"name":"","type":"uint256","internalType":"uint256"}],"stateMutability":"nonpayable"},{"type":"function","name":"castVoteWithReasonAndParamsBySig","inputs":[{"name":"proposalId","type":"uint256","internalType":"uint256"},{"name":"support","type":"uint8","internalType":"uint8"},{"name":"voter","type":"address","internalType":"address"},{"name":"reason","type":"string","internalType":"string"},{"name":"params","type":"bytes","internalType":"bytes"},{"name":"signature","type":"bytes","internalType":"bytes"}],"outputs":[{"name":"","type":"uint256","internalType":"uint256"}],"stateMutability":"nonpayable"},{"type":"function","name":"clock","inputs":[],"outputs":[{"name":"","type":"uint48","internalType":"uint48"}],"stateMutability":"view"},{"type":"function","name":"eip712Domain","inputs":[],"outputs":[{"name":"fields","type":"bytes1","internalType":"bytes1"},{"name":"name","type":"string","internalType":"string"},{"name":"version","type":"string","internalType":"string"},{"name":"chainId","type":"uint256","internalType":"uint256"},{"name":"verifyingContract","type":"address","internalType":"address"},{"name":"salt","type":"bytes32","internalType":"bytes32"},{"name":"extensions","type":"uint256[]","internalType":"uint256[]"}],"stateMutability":"view"},{"type":"function","name":"execute","inputs":[{"name":"targets","type":"address[]","internalType":"address[]"},{"name":"values","type":"uint256[]","internalType":"uint256[]"},{"name":"calldatas","type":"bytes[]","internalType":"bytes[]"},{"name":"descriptionHash","type":"bytes32","internalType":"bytes32"}],"outputs":[{"name":"","type":"uint256","internalType":"uint256"}],"stateMutability":"payable"},{"type":"function","name":"getProposalId","inputs":[{"name":"targets","type":"address[]","internalType":"address[]"},{"name":"values","type":"uint256[]","internalType":"uint256[]"},{"name":"calldatas","type":"bytes[]","internalType":"bytes[]"},{"name":"descriptionHash","type":"bytes32","internalType":"bytes32"}],"outputs":[{"name":"","type":"uint256","internalType":"uint256"}],"stateMutability":"view"},{"type":"function","name":"getVotes","inputs":[{"name":"account","type":"address","internalType":"address"},{"name":"timepoint","type":"uint256","internalType":"uint256"}],"outputs":[{"name":"","type":"uint256","internalType":"uint256"}],"stateMutability":"view"},{"type":"function","name":"getVotesWithParams","inputs":[{"name":"account","type":"address","internalType":"address"},{"name":"timepoint","type":"uint256","internalType":"uint256"},{"name":"params","type":"bytes","internalType":"bytes"}],"outputs":[{"name":"","type":"uint256","internalType":"uint256"}],"stateMutability":"view"},{"type":"function","name":"hasVoted","inputs":[{"name":"proposalId","type":"uint256","internalType":"uint256"},{"name":"account","type":"address","internalType":"address"}],"outputs":[{"name":"","type":"bool","internalType":"bool"}],"stateMutability":"view"},{"type":"function","name":"hashProposal","inputs":[{"name":"targets","type":"address[]","internalType":"address[]"},{"name":"values","type":"uint256[]","internalType":"uint256[]"},{"name":"calldatas","type":"bytes[]","internalType":"bytes[]"},{"name":"descriptionHash","type":"bytes32","internalType":"bytes32"}],"outputs":[{"name":"","type":"uint256","internalType":"uint256"}],"stateMutability":"pure"},{"type":"function","name":"name","inputs":[],"outputs":[{"name":"","type":"string","internalType":"string"}],"stateMutability":"view"},{"type":"function","name":"nonces","inputs":[{"name":"owner","type":"address","internalType":"address"}],"outputs":[{"name":"","type":"uint256","internalType":"uint256"}],"stateMutability":"view"},{"type":"function","name":"onERC1155BatchReceived","inputs":[{"name":"","type":"address","internalType":"address"},{"name":"","type":"address","internalType":"address"},{"name":"","type":"uint256[]","internalType":"uint256[]"},{"name":"","type":"uint256[]","internalType":"uint256[]"},{"name":"","type":"bytes","internalType":"bytes"}],"outputs":[{"name":"","type":"bytes4","internalType":"bytes4"}],"stateMutability":"nonpayable"},{"type":"function","name":"onERC1155Received","inputs":[{"name":"","type":"address","internalType":"address"},{"name":"","type":"address","internalType":"address"},{"name":"","type":"uint256","internalType":"uint256"},{"name":"","type":"uint256","internalType":"uint256"},{"name":"","type":"bytes","internalType":"bytes"}],"outputs":[{"name":"","type":"bytes4","internalType":"bytes4"}],"stateMutability":"nonpayable"},{"type":"function","name":"onERC721Received","inputs":[{"name":"","type":"address","internalType":"address"},{"name":"","type":"address","internalType":"address"},{"name":"","type":"uint256","internalType":"uint256"},{"name":"","type":"bytes","internalType":"bytes"}],"outputs":[{"name":"","type":"bytes4","internalType":"bytes4"}],"stateMutability":"nonpayable"},{"type":"function","name":"proposalDeadline","inputs":[{"name":"proposalId","type":"uint256","internalType":"uint256"}],"outputs":[{"name":"","type":"uint256","internalType":"uint256"}],"stateMutability":"view"},{"type":"function","name":"proposalEta","inputs":[{"name":"proposalId","type":"uint256","internalType":"uint256"}],"outputs":[{"name":"","type":"uint256","internalType":"uint256"}],"stateMutability":"view"},{"type":"function","name":"proposalNeedsQueuing","inputs":[{"name":"","type":"uint256","internalType":"uint256"}],"outputs":[{"name":"","type":"bool","internalType":"bool"}],"stateMutability":"view"},{"type":"function","name":"proposalProposer","inputs":[{"name":"proposalId","type":"uint256","internalType":"uint256"}],"outputs":[{"name":"","type":"address","internalType":"address"}],"stateMutability":"view"},{"type":"function","name":"proposalSnapshot","inputs":[{"name":"proposalId","type":"uint256","internalType":"uint256"}],"outputs":[{"name":"","type":"uint256","internalType":"uint256"}],"stateMutability":"view"},{"type":"function","name":"proposalThreshold","inputs":[],"outputs":[{"name":"","type":"uint256","internalType":"uint256"}],"stateMutability":"pure"},{"type":"function","name":"proposalVotes","inputs":[{"name":"proposalId","type":"uint256","internalType":"uint256"}],"outputs":[{"name":"againstVotes","type":"uint256","internalType":"uint256"},{"name":"forVotes","type":"uint256","internalType":"uint256"},{"name":"abstainVotes","type":"uint256","internalType":"uint256"}],"stateMutability":"view"},{"type":"function","name":"propose","inputs":[{"name":"targets","type":"address[]","internalType":"address[]"},{"name":"values","type":"uint256[]","internalType":"uint256[]"},{"name":"calldatas","type":"bytes[]","internalType":"bytes[]"},{"name":"description","type":"string","internalType":"string"}],"outputs":[{"name":"","type":"uint256","internalType":"uint256"}],"stateMutability":"nonpayable"},{"type":"function","name":"queue","inputs":[{"name":"targets","type":"address[]","internalType":"address[]"},{"name":"values","type":"uint256[]","internalType":"uint256[]"},{"name":"calldatas","type":"bytes[]","internalType":"bytes[]"},{"name":"descriptionHash","type":"bytes32","internalType":"bytes32"}],"outputs":[{"name":"","type":"uint256","internalType":"uint256"}],"stateMutability":"nonpayable"},{"type":"function","name":"quorum","inputs":[{"name":"blockNumber","type":"uint256","internalType":"uint256"}],"outputs":[{"name":"","type":"uint256","internalType":"uint256"}],"stateMutability":"view"},{"type":"function","name":"relay","inputs":[{"name":"target","type":"address","internalType":"address"},{"name":"value","type":"uint256","internalType":"uint256"},{"name":"data","type":"bytes","internalType":"bytes"}],"outputs":[],"stateMutability":"payable"},{"type":"function","name":"state","inputs":[{"name":"proposalId","type":"uint256","internalType":"uint256"}],"outputs":[{"name":"","type":"uint8","internalType":"enum IGovernor.ProposalState"}],"stateMutability":"view"},{"type":"function","name":"supportsInterface","inputs":[{"name":"interfaceId","type":"bytes4","internalType":"bytes4"}],"outputs":[{"name":"","type":"bool","internalType":"bool"}],"stateMutability":"view"},{"type":"function","name":"token","inputs":[],"outputs":[{"name":"","type":"address","internalType":"contract IERC5805"}],"stateMutability":"view"},{"type":"function","name":"version","inputs":[],"outputs":[{"name":"","type":"string","internalType":"string"}],"stateMutability":"view"},{"type":"function","name":"votingDelay","inputs":[],"outputs":[{"name":"","type":"uint256","internalType":"uint256"}],"stateMutability":"pure"},{"type":"function","name":"votingPeriod","inputs":[],"outputs":[{"name":"","type":"uint256","internalType":"uint256"}],"stateMutability":"pure"},{"type":"event","name":"EIP712DomainChanged","inputs":[],"anonymous":false},{"type":"event","name":"ProposalCanceled","inputs":[{"name":"proposalId","type":"uint256","indexed":false,"internalType":"uint256"}],"anonymous":false},{"type":"event","name":"ProposalCreated","inputs":[{"name":"proposalId","type":"uint256","indexed":false,"internalType":"uint256"},{"name":"proposer","type":"address","indexed":false,"internalType":"address"},{"name":"targets","type":"address[]","indexed":false,"internalType":"address[]"},{"name":"values","type":"uint256[]","indexed":false,"internalType":"uint256[]"},{"name":"signatures","type":"string[]","indexed":false,"internalType":"string[]"},{"name":"calldatas","type":"bytes[]","indexed":false,"internalType":"bytes[]"},{"name":"voteStart","type":"uint256","indexed":false,"internalType":"uint256"},{"name":"voteEnd","type":"uint256","indexed":false,"internalType":"uint256"},{"name":"description","type":"string","indexed":false,"internalType":"string"}],"anonymous":false},{"type":"event","name":"ProposalExecuted","inputs":[{"name":"proposalId","type":"uint256","indexed":false,"internalType":"uint256"}],"anonymous":false},{"type":"event","name":"ProposalQueued","inputs":[{"name":"proposalId","type":"uint256","indexed":false,"internalType":"uint256"},{"name":"etaSeconds","type":"uint256","indexed":false,"internalType":"uint256"}],"anonymous":false},{"type":"event","name":"VoteCast","inputs":[{"name":"voter","type":"address","indexed":true,"internalType":"address"},{"name":"proposalId","type":"uint256","indexed":false,"internalType":"uint256"},{"name":"support","type":"uint8","indexed":false,"internalType":"uint8"},{"name":"weight","type":"uint256","indexed":false,"internalType":"uint256"},{"name":"reason","type":"string","indexed":false,"internalType":"string"}],"anonymous":false},{"type":"event","name":"VoteCastWithParams","inputs":[{"name":"voter","type":"address","indexed":true,"internalType":"address"},{"name":"proposalId","type":"uint256","indexed":false,"internalType":"uint256"},{"name":"support","type":"uint8","indexed":false,"internalType":"uint8"},{"name":"weight","type":"uint256","indexed":false,"internalType":"uint256"},{"name":"reason","type":"string","indexed":false,"internalType":"string"},{"name":"params","type":"bytes","indexed":false,"internalType":"bytes"}],"anonymous":false},{"type":"error","name":"FailedCall","inputs":[]},{"type":"error","name":"GovernorAlreadyCastVote","inputs":[{"name":"voter","type":"address","internalType":"address"}]},{"type":"error","name":"GovernorAlreadyQueuedProposal","inputs":[{"name":"proposalId","type":"uint256","internalType":"uint256"}]},{"type":"error","name":"GovernorDisabledDeposit","inputs":[]},{"type":"error","name":"GovernorInsufficientProposerVotes","inputs":[{"name":"proposer","type":"address","internalType":"address"},{"name":"votes","type":"uint256","internalType":"uint256"},{"name":"threshold","type":"uint256","internalType":"uint256"}]},{"type":"error","name":"GovernorInvalidProposalLength","inputs":[{"name":"targets","type":"uint256","internalType":"uint256"},{"name":"calldatas","type":"uint256","internalType":"uint256"},{"name":"values","type":"uint256","internalType":"uint256"}]},{"type":"error","name":"GovernorInvalidSignature","inputs":[{"name":"voter","type":"address","internalType":"address"}]},{"type":"error","name":"GovernorInvalidVoteParams","inputs":[]},{"type":"error","name":"GovernorInvalidVoteType","inputs":[]},{"type":"error","name":"GovernorInvalidVotingPeriod","inputs":[{"name":"votingPeriod","type":"uint256","internalType":"uint256"}]},{"type":"error","name":"GovernorNonexistentProposal","inputs":[{"name":"proposalId","type":"uint256","internalType":"uint256"}]},{"type":"error","name":"GovernorNotQueuedProposal","inputs":[{"name":"proposalId","type":"uint256","internalType":"uint256"}]},{"type":"error","name":"GovernorOnlyExecutor","inputs":[{"name":"account","type":"address","internalType":"address"}]},{"type":"error","name":"GovernorQueueNotImplemented","inputs":[]},{"type":"error","name":"GovernorRestrictedProposer","inputs":[{"name":"proposer","type":"address","internalType":"address"}]},{"type":"error","name":"GovernorUnableToCancel","inputs":[{"name":"proposalId","type":"uint256","internalType":"uint256"},{"name":"account","type":"address","internalType":"address"}]},{"type":"error","name":"GovernorUnexpectedProposalState","inputs":[{"name":"proposalId","type":"uint256","internalType":"uint256"},{"name":"current","type":"uint8","internalType":"enum IGovernor.ProposalState"},{"name":"expectedStates","type":"bytes32","internalType":"bytes32"}]},{"type":"error","name":"InvalidAccountNonce","inputs":[{"name":"account","type":"address","internalType":"address"},{"name":"currentNonce","type":"uint256","internalType":"uint256"}]},{"type":"error","name":"InvalidShortString","inputs":[]},{"type":"error","name":"SafeCastOverflowedUintDowncast","inputs":[{"name":"bits","type":"uint8","internalType":"uint8"},{"name":"value","type":"uint256","internalType":"uint256"}]},{"type":"error","name":"StringTooLong","inputs":[{"name":"str","type":"string","internalType":"string"}]}],"bytecode":{"object":"0x610180604052348015610010575f5ffd5b50604051615fe9380380615fe98339818101604052810190610032919061032f565b806040518060400160405280601381526020017f436861696e48697665476f7665726e616e6365000000000000000000000000008152508061007861016e60201b60201c565b61008b5f836101ab60201b90919060201c565b61012081815250506100a76001826101ab60201b90919060201c565b6101408181525050818051906020012060e08181525050808051906020012061010081815250504660a081815250506100e46101f860201b60201c565b608081815250503073ffffffffffffffffffffffffffffffffffffffff1660c08173ffffffffffffffffffffffffffffffffffffffff1681525050505080600390816101309190610597565b50508073ffffffffffffffffffffffffffffffffffffffff166101608173ffffffffffffffffffffffffffffffffffffffff16815250505050610806565b60606040518060400160405280600181526020017f3100000000000000000000000000000000000000000000000000000000000000815250905090565b5f6020835110156101cc576101c58361025260201b60201c565b90506101f2565b826101dc836102b760201b60201c565b5f0190816101ea9190610597565b5060ff5f1b90505b92915050565b5f7f8b73c3c69bb8fe3d512ecc4cf759cc79239f7b179b0ffacaa9a75d522b39400f60e05161010051463060405160200161023795949392919061069c565b60405160208183030381529060405280519060200120905090565b5f5f829050601f8151111561029e57826040517f305a27a90000000000000000000000000000000000000000000000000000000081526004016102959190610753565b60405180910390fd5b8051816102aa906107a0565b5f1c175f1b915050919050565b5f819050919050565b5f5ffd5b5f73ffffffffffffffffffffffffffffffffffffffff82169050919050565b5f6102ed826102c4565b9050919050565b5f6102fe826102e3565b9050919050565b61030e816102f4565b8114610318575f5ffd5b50565b5f8151905061032981610305565b92915050565b5f60208284031215610344576103436102c0565b5b5f6103518482850161031b565b91505092915050565b5f81519050919050565b7f4e487b71000000000000000000000000000000000000000000000000000000005f52604160045260245ffd5b7f4e487b71000000000000000000000000000000000000000000000000000000005f52602260045260245ffd5b5f60028204905060018216806103d557607f821691505b6020821081036103e8576103e7610391565b5b50919050565b5f819050815f5260205f209050919050565b5f6020601f8301049050919050565b5f82821b905092915050565b5f6008830261044a7fffffffffffffffffffffffffffffffffffffffffffffffffffffffffffffffff8261040f565b610454868361040f565b95508019841693508086168417925050509392505050565b5f819050919050565b5f819050919050565b5f61049861049361048e8461046c565b610475565b61046c565b9050919050565b5f819050919050565b6104b18361047e565b6104c56104bd8261049f565b84845461041b565b825550505050565b5f5f905090565b6104dc6104cd565b6104e78184846104a8565b505050565b5b8181101561050a576104ff5f826104d4565b6001810190506104ed565b5050565b601f82111561054f57610520816103ee565b61052984610400565b81016020851015610538578190505b61054c61054485610400565b8301826104ec565b50505b505050565b5f82821c905092915050565b5f61056f5f1984600802610554565b1980831691505092915050565b5f6105878383610560565b9150826002028217905092915050565b6105a08261035a565b67ffffffffffffffff8111156105b9576105b8610364565b5b6105c382546103be565b6105ce82828561050e565b5f60209050601f8311600181146105ff575f84156105ed578287015190505b6105f7858261057c565b86555061065e565b601f19841661060d866103ee565b5f5b828110156106345784890151825560018201915060208501945060208101905061060f565b86831015610651578489015161064d601f891682610560565b8355505b6001600288020188555050505b505050505050565b5f819050919050565b61067881610666565b82525050565b6106878161046c565b82525050565b610696816102e3565b82525050565b5f60a0820190506106af5f83018861066f565b6106bc602083018761066f565b6106c9604083018661066f565b6106d6606083018561067e565b6106e3608083018461068d565b9695505050505050565b5f82825260208201905092915050565b8281835e5f83830152505050565b5f601f19601f8301169050919050565b5f6107258261035a565b61072f81856106ed565b935061073f8185602086016106fd565b6107488161070b565b840191505092915050565b5f6020820190508181035f83015261076b818461071b565b905092915050565b5f81519050919050565b5f819050602082019050919050565b5f6107978251610666565b80915050919050565b5f6107aa82610773565b826107b48461077d565b90506107bf8161078c565b925060208210156107ff576107fa7fffffffffffffffffffffffffffffffffffffffffffffffffffffffffffffffff8360200360080261040f565b831692505b5050919050565b60805160a05160c05160e051610100516101205161014051610160516157886108615f395f611cf501525f61280a01525f6127cf01525f61353101525f61351001525f61319801525f6131ee01525f61321701526157885ff3fe60806040526004361061023e575f3560e01c80637d5e81e21161012d578063bc197c81116100aa578063deaaa7cc1161006e578063deaaa7cc14610a11578063eb9019d414610a3b578063f23a6e6114610a77578063f8ce560a14610ab3578063fc0c546a14610aef576102b1565b8063bc197c8114610917578063c01f9e3714610953578063c28bc2fa1461098f578063c59057e4146109ab578063dd4e2ba5146109e7576102b1565b80639a802a6d116100f15780639a802a6d146107fd578063a8f8a66814610839578063a9a9529414610875578063ab58fb8e146108b1578063b58131b0146108ed576102b1565b80637d5e81e2146106ef5780637ecebe001461072b57806384b0196e146107675780638ff262e31461079757806391ddadf4146107d3576102b1565b80633e4f49e6116101bb57806354fd4d501161017f57806354fd4d50146105d557806356781388146105ff5780635b8d0e0d1461063b5780635f398a14146106775780637b3c71d3146106b3576102b1565b80633e4f49e6146104b957806343859632146104f5578063452115d6146105315780634bf5d7e91461056d578063544ffc9c14610597576102b1565b8063160cbed711610202578063160cbed7146103bd5780632656227d146103f95780632d63f693146104295780632fe3e261146104655780633932abb11461048f576102b1565b806301ffc9a7146102b557806302a251a3146102f157806306fdde031461031b578063143489d014610345578063150b7a0214610381576102b1565b366102b1573073ffffffffffffffffffffffffffffffffffffffff16610262610b19565b73ffffffffffffffffffffffffffffffffffffffff16146102af576040517fe90a651e00000000000000000000000000000000000000000000000000000000815260040160405180910390fd5b005b5f5ffd5b3480156102c0575f5ffd5b506102db60048036038101906102d691906137ac565b610b20565b6040516102e891906137f1565b60405180910390f35b3480156102fc575f5ffd5b50610305610c72565b6040516103129190613822565b60405180910390f35b348015610326575f5ffd5b5061032f610c7b565b60405161033c91906138ab565b60405180910390f35b348015610350575f5ffd5b5061036b600480360381019061036691906138f5565b610d0b565b604051610378919061395f565b60405180910390f35b34801561038c575f5ffd5b506103a760048036038101906103a29190613ace565b610d46565b6040516103b49190613b5d565b60405180910390f35b3480156103c8575f5ffd5b506103e360048036038101906103de9190613e0b565b610dc5565b6040516103f09190613822565b60405180910390f35b610413600480360381019061040e9190613e0b565b610ebb565b6040516104209190613822565b60405180910390f35b348015610434575f5ffd5b5061044f600480360381019061044a91906138f5565b611098565b60405161045c9190613822565b60405180910390f35b348015610470575f5ffd5b506104796110ce565b6040516104869190613ed2565b60405180910390f35b34801561049a575f5ffd5b506104a36110f2565b6040516104b09190613822565b60405180910390f35b3480156104c4575f5ffd5b506104df60048036038101906104da91906138f5565b6110fb565b6040516104ec9190613f5e565b60405180910390f35b348015610500575f5ffd5b5061051b60048036038101906105169190613f77565b611252565b60405161052891906137f1565b60405180910390f35b34801561053c575f5ffd5b5061055760048036038101906105529190613e0b565b6112b7565b6040516105649190613822565b60405180910390f35b348015610578575f5ffd5b50610581611337565b60405161058e91906138ab565b60405180910390f35b3480156105a2575f5ffd5b506105bd60048036038101906105b891906138f5565b6113f4565b6040516105cc93929190613fb5565b60405180910390f35b3480156105e0575f5ffd5b506105e9611427565b6040516105f691906138ab565b60405180910390f35b34801561060a575f5ffd5b5061062560048036038101906106209190614020565b611464565b6040516106329190613822565b60405180910390f35b348015610646575f5ffd5b50610661600480360381019061065c91906140b7565b611493565b60405161066e9190613822565b60405180910390f35b348015610682575f5ffd5b5061069d60048036038101906106989190614199565b611583565b6040516106aa9190613822565b60405180910390f35b3480156106be575f5ffd5b506106d960048036038101906106d49190614239565b6115eb565b6040516106e69190613822565b60405180910390f35b3480156106fa575f5ffd5b5061071560048036038101906107109190614348565b611651565b6040516107229190613822565b60405180910390f35b348015610736575f5ffd5b50610751600480360381019061074c919061441c565b611747565b60405161075e9190613822565b60405180910390f35b348015610772575f5ffd5b5061077b61178d565b60405161078e9796959493929190614538565b60405180910390f35b3480156107a2575f5ffd5b506107bd60048036038101906107b891906145ba565b611832565b6040516107ca9190613822565b60405180910390f35b3480156107de575f5ffd5b506107e76118a4565b6040516107f4919061465a565b60405180910390f35b348015610808575f5ffd5b50610823600480360381019061081e9190614673565b61192f565b6040516108309190613822565b60405180910390f35b348015610844575f5ffd5b5061085f600480360381019061085a9190613e0b565b611944565b60405161086c9190613822565b60405180910390f35b348015610880575f5ffd5b5061089b600480360381019061089691906138f5565b61195b565b6040516108a891906137f1565b60405180910390f35b3480156108bc575f5ffd5b506108d760048036038101906108d291906138f5565b611964565b6040516108e49190613822565b60405180910390f35b3480156108f8575f5ffd5b5061090161199a565b60405161090e9190613822565b60405180910390f35b348015610922575f5ffd5b5061093d600480360381019061093891906146df565b6119aa565b60405161094a9190613b5d565b60405180910390f35b34801561095e575f5ffd5b50610979600480360381019061097491906138f5565b611a2a565b6040516109869190613822565b60405180910390f35b6109a960048036038101906109a491906147ff565b611a94565b005b3480156109b6575f5ffd5b506109d160048036038101906109cc9190613e0b565b611b1d565b6040516109de9190613822565b60405180910390f35b3480156109f2575f5ffd5b506109fb611b57565b604051610a0891906138ab565b60405180910390f35b348015610a1c575f5ffd5b50610a25611b94565b604051610a329190613ed2565b60405180910390f35b348015610a46575f5ffd5b50610a616004803603810190610a5c9190614870565b611bb8565b604051610a6e9190613822565b60405180910390f35b348015610a82575f5ffd5b50610a9d6004803603810190610a9891906148ae565b611bd3565b604051610aaa9190613b5d565b60405180910390f35b348015610abe575f5ffd5b50610ad96004803603810190610ad491906138f5565b611c53565b604051610ae69190613822565b60405180910390f35b348015610afa575f5ffd5b50610b03611cf2565b604051610b10919061499c565b60405180910390f35b5f30905090565b5f7fcdbdfcee000000000000000000000000000000000000000000000000000000007bffffffffffffffffffffffffffffffffffffffffffffffffffffffff1916827bffffffffffffffffffffffffffffffffffffffffffffffffffffffff19161480610bf3575063a8f8a66860e01b7fcdbdfcee00000000000000000000000000000000000000000000000000000000187bffffffffffffffffffffffffffffffffffffffffffffffffffffffff1916827bffffffffffffffffffffffffffffffffffffffffffffffffffffffff1916145b80610c5b57507f4e2312e0000000000000000000000000000000000000000000000000000000007bffffffffffffffffffffffffffffffffffffffffffffffffffffffff1916827bffffffffffffffffffffffffffffffffffffffffffffffffffffffff1916145b80610c6b5750610c6a82611d19565b5b9050919050565b5f61c4e0905090565b606060038054610c8a906149e2565b80601f0160208091040260200160405190810160405280929190818152602001828054610cb6906149e2565b8015610d015780601f10610cd857610100808354040283529160200191610d01565b820191905f5260205f20905b815481529060010190602001808311610ce457829003601f168201915b5050505050905090565b5f60045f8381526020019081526020015f205f015f9054906101000a900473ffffffffffffffffffffffffffffffffffffffff169050919050565b5f3073ffffffffffffffffffffffffffffffffffffffff16610d66610b19565b73ffffffffffffffffffffffffffffffffffffffff1614610db3576040517fe90a651e00000000000000000000000000000000000000000000000000000000815260040160405180910390fd5b63150b7a0260e01b9050949350505050565b5f5f610dd386868686611944565b9050610de881610de36004611d82565b611da6565b505f610df78288888888611e11565b90505f8165ffffffffffff1614610e7c578060045f8481526020019081526020015f206001015f6101000a81548165ffffffffffff021916908365ffffffffffff1602179055507f9a2e42fd6722813d69113e7d0079d3d940171428df7373df9c7f7617cfda28928282604051610e6f929190614a42565b60405180910390a1610eae565b6040517f90884a4600000000000000000000000000000000000000000000000000000000815260040160405180910390fd5b8192505050949350505050565b5f5f610ec986868686611944565b9050610ee981610ed96005611d82565b610ee36004611d82565b17611da6565b50600160045f8381526020019081526020015f205f01601e6101000a81548160ff0219169083151502179055503073ffffffffffffffffffffffffffffffffffffffff16610f35610b19565b73ffffffffffffffffffffffffffffffffffffffff1614610fee575f5f90505b8651811015610fec573073ffffffffffffffffffffffffffffffffffffffff16878281518110610f8857610f87614a69565b5b602002602001015173ffffffffffffffffffffffffffffffffffffffff1603610fe157610fe0858281518110610fc157610fc0614a69565b5b6020026020010151805190602001206005611e1e90919063ffffffff16565b5b806001019050610f55565b505b610ffb8187878787611f16565b3073ffffffffffffffffffffffffffffffffffffffff1661101a610b19565b73ffffffffffffffffffffffffffffffffffffffff161415801561104557506110436005611ffe565b155b1561105557611054600561206a565b5b7f712ae1383f79ac853f8d882153778e0260ef8f03b504e2866e0593e04d2b291f816040516110849190613822565b60405180910390a180915050949350505050565b5f60045f8381526020019081526020015f205f0160149054906101000a900465ffffffffffff1665ffffffffffff169050919050565b7f3e83946653575f9a39005e1545185629e92736b7528ab20ca3816f315424a81181565b5f611c20905090565b5f5f60045f8481526020019081526020015f2090505f815f01601e9054906101000a900460ff1690505f825f01601f9054906101000a900460ff169050811561114a576007935050505061124d565b801561115c576002935050505061124d565b5f61116686611098565b90505f81036111ac57856040517f6ad060750000000000000000000000000000000000000000000000000000000081526004016111a39190613822565b60405180910390fd5b5f6111b56118a4565b65ffffffffffff1690508082106111d3575f9550505050505061124d565b5f6111dd88611a2a565b90508181106111f5576001965050505050505061124d565b6111fe886120e0565b1580611210575061120e88612124565b155b15611224576003965050505050505061124d565b5f61122e89611964565b03611242576004965050505050505061124d565b600596505050505050505b919050565b5f60075f8481526020019081526020015f206003015f8373ffffffffffffffffffffffffffffffffffffffff1673ffffffffffffffffffffffffffffffffffffffff1681526020019081526020015f205f9054906101000a900460ff16905092915050565b5f5f6112c586868686611944565b90505f6112d061214b565b90506112dc8282612152565b61131f5781816040517f8fe5d8a9000000000000000000000000000000000000000000000000000000008152600401611316929190614a96565b60405180910390fd5b61132b878787876121c9565b92505050949350505050565b6060611341611cf2565b73ffffffffffffffffffffffffffffffffffffffff16634bf5d7e96040518163ffffffff1660e01b81526004015f60405180830381865afa9250505080156113ab57506040513d5f823e3d601f19601f820116820180604052508101906113a89190614b2b565b60015b6113ec576040518060400160405280601d81526020017f6d6f64653d626c6f636b6e756d6265722666726f6d3d64656661756c7400000081525090506113f1565b809150505b90565b5f5f5f5f60075f8681526020019081526020015f209050805f015481600101548260020154935093509350509193909250565b60606040518060400160405280600181526020017f3100000000000000000000000000000000000000000000000000000000000000815250905090565b5f5f61146e61214b565b905061148a84828560405180602001604052805f8152506122ab565b91505092915050565b5f6114e588888888888080601f0160208091040260200160405190810160405280939291908181526020018383808284375f81840152601f19601f8201169050808301925050505050505087876122ca565b61152657856040517f94ab6c0700000000000000000000000000000000000000000000000000000000815260040161151d919061395f565b60405180910390fd5b61157688878988888080601f0160208091040260200160405190810160405280939291908181526020018383808284375f81840152601f19601f8201169050808301925050505050505087612352565b9050979650505050505050565b5f5f61158d61214b565b90506115df87828888888080601f0160208091040260200160405190810160405280939291908181526020018383808284375f81840152601f19601f8201169050808301925050505050505087612352565b91505095945050505050565b5f5f6115f561214b565b905061164686828787878080601f0160208091040260200160405190810160405280939291908181526020018383808284375f81840152601f19601f820116905080830192505050505050506122ab565b915050949350505050565b5f5f61165b61214b565b9050611667818461245c565b6116a857806040517fd9b3955700000000000000000000000000000000000000000000000000000000815260040161169f919061395f565b60405180910390fd5b5f6116b161199a565b90505f81111561172e575f6116e18360016116ca6118a4565b6116d49190614b9f565b65ffffffffffff16611bb8565b90508181101561172c578281836040517fc242ee1600000000000000000000000000000000000000000000000000000000815260040161172393929190614bd8565b60405180910390fd5b505b61173b8787878786612542565b92505050949350505050565b5f60025f8373ffffffffffffffffffffffffffffffffffffffff1673ffffffffffffffffffffffffffffffffffffffff1681526020019081526020015f20549050919050565b5f6060805f5f5f606061179e6127c7565b6117a6612801565b46305f5f1b5f67ffffffffffffffff8111156117c5576117c46139aa565b5b6040519080825280602002602001820160405280156117f35781602001602082028036833780820191505090505b507f0f00000000000000000000000000000000000000000000000000000000000000959493929190965096509650965096509650965090919293949596565b5f61183f8585858561283c565b61188057826040517f94ab6c07000000000000000000000000000000000000000000000000000000008152600401611877919061395f565b60405180910390fd5b61189a85848660405180602001604052805f8152506122ab565b9050949350505050565b5f6118ad611cf2565b73ffffffffffffffffffffffffffffffffffffffff166391ddadf46040518163ffffffff1660e01b8152600401602060405180830381865afa92505050801561191457506040513d601f19601f820116820180604052508101906119119190614c37565b60015b611927576119206128b0565b905061192c565b809150505b90565b5f61193b8484846128bf565b90509392505050565b5f61195185858585611b1d565b9050949350505050565b5f5f9050919050565b5f60045f8381526020019081526020015f206001015f9054906101000a900465ffffffffffff1665ffffffffffff169050919050565b5f683635c9adc5dea00000905090565b5f3073ffffffffffffffffffffffffffffffffffffffff166119ca610b19565b73ffffffffffffffffffffffffffffffffffffffff1614611a17576040517fe90a651e00000000000000000000000000000000000000000000000000000000815260040160405180910390fd5b63bc197c8160e01b905095945050505050565b5f60045f8381526020019081526020015f205f01601a9054906101000a900463ffffffff1663ffffffff1660045f8481526020019081526020015f205f0160149054906101000a900465ffffffffffff16611a859190614c62565b65ffffffffffff169050919050565b611a9c61294a565b5f5f8573ffffffffffffffffffffffffffffffffffffffff16858585604051611ac6929190614cc9565b5f6040518083038185875af1925050503d805f8114611b00576040519150601f19603f3d011682016040523d82523d5f602084013e611b05565b606091505b5091509150611b148282612a3f565b50505050505050565b5f84848484604051602001611b359493929190614ea5565b604051602081830303815290604052805190602001205f1c9050949350505050565b60606040518060400160405280602081526020017f737570706f72743d627261766f2671756f72756d3d666f722c6162737461696e815250905090565b7ff2aad550cf55f045cb27e9c559f9889fdfb6e6cdaa032301d6ea397784ae51d781565b5f611bcb8383611bc6612a63565b6128bf565b905092915050565b5f3073ffffffffffffffffffffffffffffffffffffffff16611bf3610b19565b73ffffffffffffffffffffffffffffffffffffffff1614611c40576040517fe90a651e00000000000000000000000000000000000000000000000000000000815260040160405180910390fd5b63f23a6e6160e01b905095945050505050565b5f60646004611c60611cf2565b73ffffffffffffffffffffffffffffffffffffffff16638e539e8c856040518263ffffffff1660e01b8152600401611c989190613822565b602060405180830381865afa158015611cb3573d5f5f3e3d5ffd5b505050506040513d601f19601f82011682018060405250810190611cd79190614f11565b611ce19190614f3c565b611ceb9190614faa565b9050919050565b5f7f0000000000000000000000000000000000000000000000000000000000000000905090565b5f7f01ffc9a7000000000000000000000000000000000000000000000000000000007bffffffffffffffffffffffffffffffffffffffffffffffffffffffff1916827bffffffffffffffffffffffffffffffffffffffffffffffffffffffff1916149050919050565b5f816007811115611d9657611d95613eeb565b5b60ff166001901b5f1b9050919050565b5f5f611db1846110fb565b90505f5f1b83611dc083611d82565b1603611e07578381846040517f31b75e4d000000000000000000000000000000000000000000000000000000008152600401611dfe93929190614fda565b60405180910390fd5b8091505092915050565b5f5f905095945050505050565b5f825f0160109054906101000a90046fffffffffffffffffffffffffffffffff169050825f015f9054906101000a90046fffffffffffffffffffffffffffffffff166fffffffffffffffffffffffffffffffff16600182016fffffffffffffffffffffffffffffffff1603611e9857611e976041612a79565b5b81836001015f836fffffffffffffffffffffffffffffffff166fffffffffffffffffffffffffffffffff1681526020019081526020015f208190555060018101835f0160106101000a8154816fffffffffffffffffffffffffffffffff02191690836fffffffffffffffffffffffffffffffff160217905550505050565b5f5f90505b8451811015611ff6575f5f868381518110611f3957611f38614a69565b5b602002602001015173ffffffffffffffffffffffffffffffffffffffff16868481518110611f6a57611f69614a69565b5b6020026020010151868581518110611f8557611f84614a69565b5b6020026020010151604051611f9a919061503f565b5f6040518083038185875af1925050503d805f8114611fd4576040519150601f19603f3d011682016040523d82523d5f602084013e611fd9565b606091505b5091509150611fe88282612a3f565b505050806001019050611f1b565b505050505050565b5f815f015f9054906101000a90046fffffffffffffffffffffffffffffffff166fffffffffffffffffffffffffffffffff16825f0160109054906101000a90046fffffffffffffffffffffffffffffffff166fffffffffffffffffffffffffffffffff16149050919050565b5f815f015f6101000a8154816fffffffffffffffffffffffffffffffff02191690836fffffffffffffffffffffffffffffffff1602179055505f815f0160106101000a8154816fffffffffffffffffffffffffffffffff02191690836fffffffffffffffffffffffffffffffff16021790555050565b5f5f60075f8481526020019081526020015f209050806002015481600101546121099190615055565b61211a61211585611098565b611c53565b1115915050919050565b5f5f60075f8481526020019081526020015f209050805f0154816001015411915050919050565b5f33905090565b5f5f600781111561216657612165613eeb565b5b61216f846110fb565b600781111561218157612180613eeb565b5b1480156121c1575061219283610d0b565b73ffffffffffffffffffffffffffffffffffffffff168273ffffffffffffffffffffffffffffffffffffffff16145b905092915050565b5f5f6121d786868686611944565b905061223b816121e76007611d82565b6121f16006611d82565b6121fb6002611d82565b60018060078081111561221157612210613eeb565b5b61221b9190615088565b600261222791906151eb565b6122319190615235565b5f1b181818611da6565b50600160045f8381526020019081526020015f205f01601f6101000a81548160ff0219169083151502179055507f789cf55be980739dad1d0699b93b58e806b51c9d96619bfa8fe0a28abaa7b30c816040516122979190613822565b60405180910390a180915050949350505050565b5f6122c0858585856122bb612a63565b612352565b9050949350505050565b5f612346856123407f3e83946653575f9a39005e1545185629e92736b7528ab20ca3816f315424a8118a8a8a6122ff8c612a8a565b8b805190602001208b805190602001206040516020016123259796959493929190615277565b60405160208183030381529060405280519060200120612add565b84612af6565b90509695505050505050565b5f612366866123616001611d82565b611da6565b505f61237b8661237589611098565b856128bf565b90505f61238b8888888588612ba2565b90505f8451036123ee578673ffffffffffffffffffffffffffffffffffffffff167fb8e138887d0aa13bab447e82de9d5c1777041ecd21ca36ba824ff1e6c07ddda4898884896040516123e194939291906152e4565b60405180910390a2612445565b8673ffffffffffffffffffffffffffffffffffffffff167fe2babfbac5889a709b63bb7f598b324e08bc5a4fb9ec647fb3cbc9ec07eb8712898884898960405161243c959493929190615376565b60405180910390a25b61244e88612d97565b809250505095945050505050565b5f5f82519050603481101561247557600191505061253c565b5f6124838460348403612d9a565b90507f2370726f706f7365723d0000000000000000000000000000000000000000000075ffffffffffffffffffffffffffffffffffffffffffff19168175ffffffffffffffffffffffffffffffffffffffffffff1916146124e95760019250505061253c565b5f5f6124f986602a860386612daa565b9150915081158061253557508673ffffffffffffffffffffffffffffffffffffffff168173ffffffffffffffffffffffffffffffffffffffff16145b9450505050505b92915050565b5f6125568686868680519060200120611944565b90508451865114158061256b57508351865114155b8061257657505f8651145b156125bf578551845186516040517f447b05d00000000000000000000000000000000000000000000000000000000081526004016125b693929190613fb5565b60405180910390fd5b5f60045f8381526020019081526020015f205f0160149054906101000a900465ffffffffffff1665ffffffffffff161461263e57806125fd826110fb565b5f5f1b6040517f31b75e4d00000000000000000000000000000000000000000000000000000000815260040161263593929190614fda565b60405180910390fd5b5f6126476110f2565b61264f6118a4565b65ffffffffffff166126619190615055565b90505f61266c610c72565b90505f60045f8581526020019081526020015f20905084815f015f6101000a81548173ffffffffffffffffffffffffffffffffffffffff021916908373ffffffffffffffffffffffffffffffffffffffff1602179055506126cc83612ebb565b815f0160146101000a81548165ffffffffffff021916908365ffffffffffff1602179055506126fa82612f14565b815f01601a6101000a81548163ffffffff021916908363ffffffff1602179055507f7d84a6263ae0d98d3329bd7b46bb4e8d6f98cd35a7adb45c274c8b7fd5ebd5e084868b8b8d5167ffffffffffffffff81111561275b5761275a6139aa565b5b60405190808252806020026020018201604052801561278e57816020015b60608152602001906001900390816127795790505b508c89898b61279d9190615055565b8e6040516127b3999897969594939291906154d8565b60405180910390a150505095945050505050565b60606127fc5f7f0000000000000000000000000000000000000000000000000000000000000000612f6b90919063ffffffff16565b905090565b606061283760017f0000000000000000000000000000000000000000000000000000000000000000612f6b90919063ffffffff16565b905090565b5f6128a6836128a07ff2aad550cf55f045cb27e9c559f9889fdfb6e6cdaa032301d6ea397784ae51d78888886128718a612a8a565b604051602001612885959493929190615586565b60405160208183030381529060405280519060200120612add565b84612af6565b9050949350505050565b5f6128ba43612ebb565b905090565b5f6128c8611cf2565b73ffffffffffffffffffffffffffffffffffffffff16633a46b1a885856040518363ffffffff1660e01b81526004016129029291906155d7565b602060405180830381865afa15801561291d573d5f5f3e3d5ffd5b505050506040513d601f19601f820116820180604052508101906129419190614f11565b90509392505050565b61295261214b565b73ffffffffffffffffffffffffffffffffffffffff16612970610b19565b73ffffffffffffffffffffffffffffffffffffffff16146129cf5761299361214b565b6040517f47096e470000000000000000000000000000000000000000000000000000000081526004016129c6919061395f565b60405180910390fd5b3073ffffffffffffffffffffffffffffffffffffffff166129ee610b19565b73ffffffffffffffffffffffffffffffffffffffff1614612a3d575f612a12613018565b604051612a20929190614cc9565b604051809103902090505b80612a366005613024565b03612a2b57505b565b606082612a5457612a4f82613152565b612a5c565b819050612a5d565b5b92915050565b606060405180602001604052805f815250905090565b634e487b715f52806020526024601cfd5b5f60025f8373ffffffffffffffffffffffffffffffffffffffff1673ffffffffffffffffffffffffffffffffffffffff1681526020019081526020015f205f815480929190600101919050559050919050565b5f612aef612ae9613195565b8361324b565b9050919050565b5f5f8473ffffffffffffffffffffffffffffffffffffffff163b03612b8d575f5f612b21858561328b565b50915091505f6003811115612b3957612b38613eeb565b5b816003811115612b4c57612b4b613eeb565b5b148015612b8457508573ffffffffffffffffffffffffffffffffffffffff168273ffffffffffffffffffffffffffffffffffffffff16145b92505050612b9b565b612b988484846132e0565b90505b9392505050565b5f5f60075f8881526020019081526020015f209050806003015f8773ffffffffffffffffffffffffffffffffffffffff1673ffffffffffffffffffffffffffffffffffffffff1681526020019081526020015f205f9054906101000a900460ff1615612c4557856040517f71c6af49000000000000000000000000000000000000000000000000000000008152600401612c3c919061395f565b60405180910390fd5b6001816003015f8873ffffffffffffffffffffffffffffffffffffffff1673ffffffffffffffffffffffffffffffffffffffff1681526020019081526020015f205f6101000a81548160ff0219169083151502179055505f6002811115612caf57612cae613eeb565b5b60ff168560ff1603612cd95783815f015f828254612ccd9190615055565b92505081905550612d8a565b60016002811115612ced57612cec613eeb565b5b60ff168560ff1603612d185783816001015f828254612d0c9190615055565b92505081905550612d89565b600280811115612d2b57612d2a613eeb565b5b60ff168560ff1603612d565783816002015f828254612d4a9190615055565b92505081905550612d88565b6040517f06b337c200000000000000000000000000000000000000000000000000000000815260040160405180910390fd5b5b5b8391505095945050505050565b50565b5f81602084010151905092915050565b5f5f8451831180612dba57508284115b15612dca575f5f91509150612eb3565b5f600185612dd89190615055565b84118015612e5057507f30780000000000000000000000000000000000000000000000000000000000007dffffffffffffffffffffffffffffffffffffffffffffffffffffffffffff1916612e2d8787613331565b7dffffffffffffffffffffffffffffffffffffffffffffffffffffffffffff1916145b90505f6002612e60831515613341565b612e6a9190614f3c565b6028612e769190615055565b9050808686612e859190615235565b03612eaa575f5f612e9789898961334c565b9150915081819550955050505050612eb3565b5f5f9350935050505b935093915050565b5f65ffffffffffff8016821115612f0c576030826040517f6dfcc650000000000000000000000000000000000000000000000000000000008152600401612f03929190615637565b60405180910390fd5b819050919050565b5f63ffffffff8016821115612f63576020826040517f6dfcc650000000000000000000000000000000000000000000000000000000008152600401612f5a929190615697565b60405180910390fd5b819050919050565b606060ff5f1b8314612f8757612f808361347a565b9050613012565b818054612f93906149e2565b80601f0160208091040260200160405190810160405280929190818152602001828054612fbf906149e2565b801561300a5780601f10612fe15761010080835404028352916020019161300a565b820191905f5260205f20905b815481529060010190602001808311612fed57829003601f168201915b505050505090505b92915050565b365f5f36915091509091565b5f5f825f015f9054906101000a90046fffffffffffffffffffffffffffffffff169050825f0160109054906101000a90046fffffffffffffffffffffffffffffffff166fffffffffffffffffffffffffffffffff16816fffffffffffffffffffffffffffffffff160361309c5761309b6031612a79565b5b826001015f826fffffffffffffffffffffffffffffffff166fffffffffffffffffffffffffffffffff1681526020019081526020015f20549150826001015f826fffffffffffffffffffffffffffffffff166fffffffffffffffffffffffffffffffff1681526020019081526020015f205f905560018101835f015f6101000a8154816fffffffffffffffffffffffffffffffff02191690836fffffffffffffffffffffffffffffffff16021790555050919050565b5f8151111561316357805160208201fd5b6040517fd6bda27500000000000000000000000000000000000000000000000000000000815260040160405180910390fd5b5f7f000000000000000000000000000000000000000000000000000000000000000073ffffffffffffffffffffffffffffffffffffffff163073ffffffffffffffffffffffffffffffffffffffff1614801561321057507f000000000000000000000000000000000000000000000000000000000000000046145b1561323d577f00000000000000000000000000000000000000000000000000000000000000009050613248565b6132456134ec565b90505b90565b5f6040517f190100000000000000000000000000000000000000000000000000000000000081528360028201528260228201526042812091505092915050565b5f5f5f60418451036132cb575f5f5f602087015192506040870151915060608701515f1a90506132bd88828585613581565b9550955095505050506132d9565b5f600285515f1b9250925092505b9250925092565b5f5f631626ba7e60e01b90505f83519050604051828152856004820152604060248201526020820185604483015e60205f60648401838a5afa835f511460193d111681169450505050509392505050565b5f81602084010151905092915050565b5f8115159050919050565b5f5f5f8590505f6001866133609190615055565b851180156133d857507f30780000000000000000000000000000000000000000000000000000000000007dffffffffffffffffffffffffffffffffffffffffffffffffffffffffffff19166133b58388613331565b7dffffffffffffffffffffffffffffffffffffffffffffffffffffffffffff1916145b90505f60026133e8831515613341565b6133f29190614f3c565b90505f5f90505f82896134059190615055565b90505b87811015613465575f61342361341e8784613331565b613668565b9050600f8160ff161115613442575f5f97509750505050505050613472565b60108361344f9190614f3c565b92508060ff168301925050806001019050613408565b5060018195509550505050505b935093915050565b60605f613486836136f8565b90505f602067ffffffffffffffff8111156134a4576134a36139aa565b5b6040519080825280601f01601f1916602001820160405280156134d65781602001600182028036833780820191505090505b5090508181528360208201528092505050919050565b5f7f8b73c3c69bb8fe3d512ecc4cf759cc79239f7b179b0ffacaa9a75d522b39400f7f00000000000000000000000000000000000000000000000000000000000000007f000000000000000000000000000000000000000000000000000000000000000046306040516020016135669594939291906156be565b60405160208183030381529060405280519060200120905090565b5f5f5f7f7fffffffffffffffffffffffffffffff5d576e7357a4501ddfe92f46681b20a0845f1c11156135bd575f60038592509250925061365e565b5f6001888888886040515f81526020016040526040516135e0949392919061570f565b6020604051602081039080840390855afa158015613600573d5f5f3e3d5ffd5b5050506020604051035190505f73ffffffffffffffffffffffffffffffffffffffff168173ffffffffffffffffffffffffffffffffffffffff1603613651575f60015f5f1b9350935093505061365e565b805f5f5f1b935093509350505b9450945094915050565b5f5f8260f81c9050602f8160ff161180156136865750603a8160ff16105b15613696576030810390506136ee565b60608160ff161180156136ac575060678160ff16105b156136bc576057810390506136ed565b60408160ff161180156136d2575060478160ff16105b156136e2576037810390506136ec565b60ff9150506136f3565b5b5b809150505b919050565b5f5f60ff835f1c169050601f81111561373d576040517fb3512b0c00000000000000000000000000000000000000000000000000000000815260040160405180910390fd5b80915050919050565b5f604051905090565b5f5ffd5b5f5ffd5b5f7fffffffff0000000000000000000000000000000000000000000000000000000082169050919050565b61378b81613757565b8114613795575f5ffd5b50565b5f813590506137a681613782565b92915050565b5f602082840312156137c1576137c061374f565b5b5f6137ce84828501613798565b91505092915050565b5f8115159050919050565b6137eb816137d7565b82525050565b5f6020820190506138045f8301846137e2565b92915050565b5f819050919050565b61381c8161380a565b82525050565b5f6020820190506138355f830184613813565b92915050565b5f81519050919050565b5f82825260208201905092915050565b8281835e5f83830152505050565b5f601f19601f8301169050919050565b5f61387d8261383b565b6138878185613845565b9350613897818560208601613855565b6138a081613863565b840191505092915050565b5f6020820190508181035f8301526138c38184613873565b905092915050565b6138d48161380a565b81146138de575f5ffd5b50565b5f813590506138ef816138cb565b92915050565b5f6020828403121561390a5761390961374f565b5b5f613917848285016138e1565b91505092915050565b5f73ffffffffffffffffffffffffffffffffffffffff82169050919050565b5f61394982613920565b9050919050565b6139598161393f565b82525050565b5f6020820190506139725f830184613950565b92915050565b6139818161393f565b811461398b575f5ffd5b50565b5f8135905061399c81613978565b92915050565b5f5ffd5b5f5ffd5b7f4e487b71000000000000000000000000000000000000000000000000000000005f52604160045260245ffd5b6139e082613863565b810181811067ffffffffffffffff821117156139ff576139fe6139aa565b5b80604052505050565b5f613a11613746565b9050613a1d82826139d7565b919050565b5f67ffffffffffffffff821115613a3c57613a3b6139aa565b5b613a4582613863565b9050602081019050919050565b828183375f83830152505050565b5f613a72613a6d84613a22565b613a08565b905082815260208101848484011115613a8e57613a8d6139a6565b5b613a99848285613a52565b509392505050565b5f82601f830112613ab557613ab46139a2565b5b8135613ac5848260208601613a60565b91505092915050565b5f5f5f5f60808587031215613ae657613ae561374f565b5b5f613af38782880161398e565b9450506020613b048782880161398e565b9350506040613b15878288016138e1565b925050606085013567ffffffffffffffff811115613b3657613b35613753565b5b613b4287828801613aa1565b91505092959194509250565b613b5781613757565b82525050565b5f602082019050613b705f830184613b4e565b92915050565b5f67ffffffffffffffff821115613b9057613b8f6139aa565b5b602082029050602081019050919050565b5f5ffd5b5f613bb7613bb284613b76565b613a08565b90508083825260208201905060208402830185811115613bda57613bd9613ba1565b5b835b81811015613c035780613bef888261398e565b845260208401935050602081019050613bdc565b5050509392505050565b5f82601f830112613c2157613c206139a2565b5b8135613c31848260208601613ba5565b91505092915050565b5f67ffffffffffffffff821115613c5457613c536139aa565b5b602082029050602081019050919050565b5f613c77613c7284613c3a565b613a08565b90508083825260208201905060208402830185811115613c9a57613c99613ba1565b5b835b81811015613cc35780613caf88826138e1565b845260208401935050602081019050613c9c565b5050509392505050565b5f82601f830112613ce157613ce06139a2565b5b8135613cf1848260208601613c65565b91505092915050565b5f67ffffffffffffffff821115613d1457613d136139aa565b5b602082029050602081019050919050565b5f613d37613d3284613cfa565b613a08565b90508083825260208201905060208402830185811115613d5a57613d59613ba1565b5b835b81811015613da157803567ffffffffffffffff811115613d7f57613d7e6139a2565b5b808601613d8c8982613aa1565b85526020850194505050602081019050613d5c565b5050509392505050565b5f82601f830112613dbf57613dbe6139a2565b5b8135613dcf848260208601613d25565b91505092915050565b5f819050919050565b613dea81613dd8565b8114613df4575f5ffd5b50565b5f81359050613e0581613de1565b92915050565b5f5f5f5f60808587031215613e2357613e2261374f565b5b5f85013567ffffffffffffffff811115613e4057613e3f613753565b5b613e4c87828801613c0d565b945050602085013567ffffffffffffffff811115613e6d57613e6c613753565b5b613e7987828801613ccd565b935050604085013567ffffffffffffffff811115613e9a57613e99613753565b5b613ea687828801613dab565b9250506060613eb787828801613df7565b91505092959194509250565b613ecc81613dd8565b82525050565b5f602082019050613ee55f830184613ec3565b92915050565b7f4e487b71000000000000000000000000000000000000000000000000000000005f52602160045260245ffd5b60088110613f2957613f28613eeb565b5b50565b5f819050613f3982613f18565b919050565b5f613f4882613f2c565b9050919050565b613f5881613f3e565b82525050565b5f602082019050613f715f830184613f4f565b92915050565b5f5f60408385031215613f8d57613f8c61374f565b5b5f613f9a858286016138e1565b9250506020613fab8582860161398e565b9150509250929050565b5f606082019050613fc85f830186613813565b613fd56020830185613813565b613fe26040830184613813565b949350505050565b5f60ff82169050919050565b613fff81613fea565b8114614009575f5ffd5b50565b5f8135905061401a81613ff6565b92915050565b5f5f604083850312156140365761403561374f565b5b5f614043858286016138e1565b92505060206140548582860161400c565b9150509250929050565b5f5ffd5b5f5f83601f840112614077576140766139a2565b5b8235905067ffffffffffffffff8111156140945761409361405e565b5b6020830191508360018202830111156140b0576140af613ba1565b5b9250929050565b5f5f5f5f5f5f5f60c0888a0312156140d2576140d161374f565b5b5f6140df8a828b016138e1565b97505060206140f08a828b0161400c565b96505060406141018a828b0161398e565b955050606088013567ffffffffffffffff81111561412257614121613753565b5b61412e8a828b01614062565b9450945050608088013567ffffffffffffffff81111561415157614150613753565b5b61415d8a828b01613aa1565b92505060a088013567ffffffffffffffff81111561417e5761417d613753565b5b61418a8a828b01613aa1565b91505092959891949750929550565b5f5f5f5f5f608086880312156141b2576141b161374f565b5b5f6141bf888289016138e1565b95505060206141d08882890161400c565b945050604086013567ffffffffffffffff8111156141f1576141f0613753565b5b6141fd88828901614062565b9350935050606086013567ffffffffffffffff8111156142205761421f613753565b5b61422c88828901613aa1565b9150509295509295909350565b5f5f5f5f606085870312156142515761425061374f565b5b5f61425e878288016138e1565b945050602061426f8782880161400c565b935050604085013567ffffffffffffffff8111156142905761428f613753565b5b61429c87828801614062565b925092505092959194509250565b5f67ffffffffffffffff8211156142c4576142c36139aa565b5b6142cd82613863565b9050602081019050919050565b5f6142ec6142e7846142aa565b613a08565b905082815260208101848484011115614308576143076139a6565b5b614313848285613a52565b509392505050565b5f82601f83011261432f5761432e6139a2565b5b813561433f8482602086016142da565b91505092915050565b5f5f5f5f608085870312156143605761435f61374f565b5b5f85013567ffffffffffffffff81111561437d5761437c613753565b5b61438987828801613c0d565b945050602085013567ffffffffffffffff8111156143aa576143a9613753565b5b6143b687828801613ccd565b935050604085013567ffffffffffffffff8111156143d7576143d6613753565b5b6143e387828801613dab565b925050606085013567ffffffffffffffff81111561440457614403613753565b5b6144108782880161431b565b91505092959194509250565b5f602082840312156144315761443061374f565b5b5f61443e8482850161398e565b91505092915050565b5f7fff0000000000000000000000000000000000000000000000000000000000000082169050919050565b61447b81614447565b82525050565b5f81519050919050565b5f82825260208201905092915050565b5f819050602082019050919050565b6144b38161380a565b82525050565b5f6144c483836144aa565b60208301905092915050565b5f602082019050919050565b5f6144e682614481565b6144f0818561448b565b93506144fb8361449b565b805f5b8381101561452b57815161451288826144b9565b975061451d836144d0565b9250506001810190506144fe565b5085935050505092915050565b5f60e08201905061454b5f83018a614472565b818103602083015261455d8189613873565b905081810360408301526145718188613873565b90506145806060830187613813565b61458d6080830186613950565b61459a60a0830185613ec3565b81810360c08301526145ac81846144dc565b905098975050505050505050565b5f5f5f5f608085870312156145d2576145d161374f565b5b5f6145df878288016138e1565b94505060206145f08782880161400c565b93505060406146018782880161398e565b925050606085013567ffffffffffffffff81111561462257614621613753565b5b61462e87828801613aa1565b91505092959194509250565b5f65ffffffffffff82169050919050565b6146548161463a565b82525050565b5f60208201905061466d5f83018461464b565b92915050565b5f5f5f6060848603121561468a5761468961374f565b5b5f6146978682870161398e565b93505060206146a8868287016138e1565b925050604084013567ffffffffffffffff8111156146c9576146c8613753565b5b6146d586828701613aa1565b9150509250925092565b5f5f5f5f5f60a086880312156146f8576146f761374f565b5b5f6147058882890161398e565b95505060206147168882890161398e565b945050604086013567ffffffffffffffff81111561473757614736613753565b5b61474388828901613ccd565b935050606086013567ffffffffffffffff81111561476457614763613753565b5b61477088828901613ccd565b925050608086013567ffffffffffffffff81111561479157614790613753565b5b61479d88828901613aa1565b9150509295509295909350565b5f5f83601f8401126147bf576147be6139a2565b5b8235905067ffffffffffffffff8111156147dc576147db61405e565b5b6020830191508360018202830111156147f8576147f7613ba1565b5b9250929050565b5f5f5f5f606085870312156148175761481661374f565b5b5f6148248782880161398e565b9450506020614835878288016138e1565b935050604085013567ffffffffffffffff81111561485657614855613753565b5b614862878288016147aa565b925092505092959194509250565b5f5f604083850312156148865761488561374f565b5b5f6148938582860161398e565b92505060206148a4858286016138e1565b9150509250929050565b5f5f5f5f5f60a086880312156148c7576148c661374f565b5b5f6148d48882890161398e565b95505060206148e58882890161398e565b94505060406148f6888289016138e1565b9350506060614907888289016138e1565b925050608086013567ffffffffffffffff81111561492857614927613753565b5b61493488828901613aa1565b9150509295509295909350565b5f819050919050565b5f61496461495f61495a84613920565b614941565b613920565b9050919050565b5f6149758261494a565b9050919050565b5f6149868261496b565b9050919050565b6149968161497c565b82525050565b5f6020820190506149af5f83018461498d565b92915050565b7f4e487b71000000000000000000000000000000000000000000000000000000005f52602260045260245ffd5b5f60028204905060018216806149f957607f821691505b602082108103614a0c57614a0b6149b5565b5b50919050565b5f614a2c614a27614a228461463a565b614941565b61380a565b9050919050565b614a3c81614a12565b82525050565b5f604082019050614a555f830185613813565b614a626020830184614a33565b9392505050565b7f4e487b71000000000000000000000000000000000000000000000000000000005f52603260045260245ffd5b5f604082019050614aa95f830185613813565b614ab66020830184613950565b9392505050565b5f614acf614aca846142aa565b613a08565b905082815260208101848484011115614aeb57614aea6139a6565b5b614af6848285613855565b509392505050565b5f82601f830112614b1257614b116139a2565b5b8151614b22848260208601614abd565b91505092915050565b5f60208284031215614b4057614b3f61374f565b5b5f82015167ffffffffffffffff811115614b5d57614b5c613753565b5b614b6984828501614afe565b91505092915050565b7f4e487b71000000000000000000000000000000000000000000000000000000005f52601160045260245ffd5b5f614ba98261463a565b9150614bb48361463a565b9250828203905065ffffffffffff811115614bd257614bd1614b72565b5b92915050565b5f606082019050614beb5f830186613950565b614bf86020830185613813565b614c056040830184613813565b949350505050565b614c168161463a565b8114614c20575f5ffd5b50565b5f81519050614c3181614c0d565b92915050565b5f60208284031215614c4c57614c4b61374f565b5b5f614c5984828501614c23565b91505092915050565b5f614c6c8261463a565b9150614c778361463a565b9250828201905065ffffffffffff811115614c9557614c94614b72565b5b92915050565b5f81905092915050565b5f614cb08385614c9b565b9350614cbd838584613a52565b82840190509392505050565b5f614cd5828486614ca5565b91508190509392505050565b5f81519050919050565b5f82825260208201905092915050565b5f819050602082019050919050565b614d138161393f565b82525050565b5f614d248383614d0a565b60208301905092915050565b5f602082019050919050565b5f614d4682614ce1565b614d508185614ceb565b9350614d5b83614cfb565b805f5b83811015614d8b578151614d728882614d19565b9750614d7d83614d30565b925050600181019050614d5e565b5085935050505092915050565b5f81519050919050565b5f82825260208201905092915050565b5f819050602082019050919050565b5f81519050919050565b5f82825260208201905092915050565b5f614de582614dc1565b614def8185614dcb565b9350614dff818560208601613855565b614e0881613863565b840191505092915050565b5f614e1e8383614ddb565b905092915050565b5f602082019050919050565b5f614e3c82614d98565b614e468185614da2565b935083602082028501614e5885614db2565b805f5b85811015614e935784840389528151614e748582614e13565b9450614e7f83614e26565b925060208a01995050600181019050614e5b565b50829750879550505050505092915050565b5f6080820190508181035f830152614ebd8187614d3c565b90508181036020830152614ed181866144dc565b90508181036040830152614ee58185614e32565b9050614ef46060830184613ec3565b95945050505050565b5f81519050614f0b816138cb565b92915050565b5f60208284031215614f2657614f2561374f565b5b5f614f3384828501614efd565b91505092915050565b5f614f468261380a565b9150614f518361380a565b9250828202614f5f8161380a565b91508282048414831517614f7657614f75614b72565b5b5092915050565b7f4e487b71000000000000000000000000000000000000000000000000000000005f52601260045260245ffd5b5f614fb48261380a565b9150614fbf8361380a565b925082614fcf57614fce614f7d565b5b828204905092915050565b5f606082019050614fed5f830186613813565b614ffa6020830185613f4f565b6150076040830184613ec3565b949350505050565b5f61501982614dc1565b6150238185614c9b565b9350615033818560208601613855565b80840191505092915050565b5f61504a828461500f565b915081905092915050565b5f61505f8261380a565b915061506a8361380a565b925082820190508082111561508257615081614b72565b5b92915050565b5f61509282613fea565b915061509d83613fea565b9250828201905060ff8111156150b6576150b5614b72565b5b92915050565b5f8160011c9050919050565b5f5f8291508390505b6001851115615111578086048111156150ed576150ec614b72565b5b60018516156150fc5780820291505b808102905061510a856150bc565b94506150d1565b94509492505050565b5f8261512957600190506151e4565b81615136575f90506151e4565b816001811461514c576002811461515657615185565b60019150506151e4565b60ff84111561516857615167614b72565b5b8360020a91508482111561517f5761517e614b72565b5b506151e4565b5060208310610133831016604e8410600b84101617156151ba5782820a9050838111156151b5576151b4614b72565b5b6151e4565b6151c784848460016150c8565b925090508184048111156151de576151dd614b72565b5b81810290505b9392505050565b5f6151f58261380a565b915061520083613fea565b925061522d7fffffffffffffffffffffffffffffffffffffffffffffffffffffffffffffffff848461511a565b905092915050565b5f61523f8261380a565b915061524a8361380a565b925082820390508181111561526257615261614b72565b5b92915050565b61527181613fea565b82525050565b5f60e08201905061528a5f83018a613ec3565b6152976020830189613813565b6152a46040830188615268565b6152b16060830187613950565b6152be6080830186613813565b6152cb60a0830185613ec3565b6152d860c0830184613ec3565b98975050505050505050565b5f6080820190506152f75f830187613813565b6153046020830186615268565b6153116040830185613813565b81810360608301526153238184613873565b905095945050505050565b5f82825260208201905092915050565b5f61534882614dc1565b615352818561532e565b9350615362818560208601613855565b61536b81613863565b840191505092915050565b5f60a0820190506153895f830188613813565b6153966020830187615268565b6153a36040830186613813565b81810360608301526153b58185613873565b905081810360808301526153c9818461533e565b90509695505050505050565b5f81519050919050565b5f82825260208201905092915050565b5f819050602082019050919050565b5f82825260208201905092915050565b5f6154188261383b565b61542281856153fe565b9350615432818560208601613855565b61543b81613863565b840191505092915050565b5f615451838361540e565b905092915050565b5f602082019050919050565b5f61546f826153d5565b61547981856153df565b93508360208202850161548b856153ef565b805f5b858110156154c657848403895281516154a78582615446565b94506154b283615459565b925060208a0199505060018101905061548e565b50829750879550505050505092915050565b5f610120820190506154ec5f83018c613813565b6154f9602083018b613950565b818103604083015261550b818a614d3c565b9050818103606083015261551f81896144dc565b905081810360808301526155338188615465565b905081810360a08301526155478187614e32565b905061555660c0830186613813565b61556360e0830185613813565b8181036101008301526155768184613873565b90509a9950505050505050505050565b5f60a0820190506155995f830188613ec3565b6155a66020830187613813565b6155b36040830186615268565b6155c06060830185613950565b6155cd6080830184613813565b9695505050505050565b5f6040820190506155ea5f830185613950565b6155f76020830184613813565b9392505050565b5f819050919050565b5f61562161561c615617846155fe565b614941565b613fea565b9050919050565b61563181615607565b82525050565b5f60408201905061564a5f830185615628565b6156576020830184613813565b9392505050565b5f819050919050565b5f61568161567c6156778461565e565b614941565b613fea565b9050919050565b61569181615667565b82525050565b5f6040820190506156aa5f830185615688565b6156b76020830184613813565b9392505050565b5f60a0820190506156d15f830188613ec3565b6156de6020830187613ec3565b6156eb6040830186613ec3565b6156f86060830185613813565b6157056080830184613950565b9695505050505050565b5f6080820190506157225f830187613ec3565b61572f6020830186615268565b61573c6040830185613ec3565b6157496060830184613ec3565b9594505050505056fea26469706673582212203115471ecb512974639f05971f9b5a5eb6fbfebb35ecceac198c754dab874f7564736f6c634300081e0033","linkReferences":{}},"methodIdentifiers":{"BALLOT_TYPEHASH()":"deaaa7cc","CLOCK_MODE()":"4bf5d7e9","COUNTING_MODE()":"dd4e2ba5","EXTENDED_BALLOT_TYPEHASH()":"2fe3e261","cancel(address[],uint256[],bytes[],bytes32)":"452115d6","castVote(uint256,uint8)":"56781388","castVoteBySig(uint256,uint8,address,bytes)":"8ff262e3","castVoteWithReason(uint256,uint8,string)":"7b3c71d3","castVoteWithReasonAndParams(uint256,uint8,string,bytes)":"5f398a14","castVoteWithReasonAndParamsBySig(uint256,uint8,address,string,bytes,bytes)":"5b8d0e0d","clock()":"91ddadf4","eip712Domain()":"84b0196e","execute(address[],uint256[],bytes[],bytes32)":"2656227d","getProposalId(address[],uint256[],bytes[],bytes32)":"a8f8a668","getVotes(address,uint256)":"eb9019d4","getVotesWithParams(address,uint256,bytes)":"9a802a6d","hasVoted(uint256,address)":"43859632","hashProposal(address[],uint256[],bytes[],bytes32)":"c59057e4","name()":"06fdde03","nonces(address)":"7ecebe00","onERC1155BatchReceived(address,address,uint256[],uint256[],bytes)":"bc197c81","onERC1155Received(address,address,uint256,uint256,bytes)":"f23a6e61","onERC721Received(address,address,uint256,bytes)":"150b7a02","proposalDeadline(uint256)":"c01f9e37","proposalEta(uint256)":"ab58fb8e","proposalNeedsQueuing(uint256)":"a9a95294","proposalProposer(uint256)":"143489d0","proposalSnapshot(uint256)":"2d63f693","proposalThreshold()":"b58131b0","proposalVotes(uint256)":"544ffc9c","propose(address[],uint256[],bytes[],string)":"7d5e81e2","queue(address[],uint256[],bytes[],bytes32)":"160cbed7","quorum(uint256)":"f8ce560a","relay(address,uint256,bytes)":"c28bc2fa","state(uint256)":"3e4f49e6","supportsInterface(bytes4)":"01ffc9a7","token()":"fc0c546a","version()":"54fd4d50","votingDelay()":"3932abb1","votingPeriod()":"02a251a3"},"id":1}