{"abi":[{"type":"constructor","inputs":[],"stateMutability":"nonpayable"},{"type":"function","name":"activeChains","inputs":[{"name":"","type":"uint256","internalType":"uint256"}],"outputs":[{"name":"","type":"uint256","internalType":"uint256"}],"stateMutability":"view"},{"type":"function","name":"addBridgeOperator","inputs":[{"name":"_operator","type":"address","internalType":"address"}],"outputs":[],"stateMutability":"nonpayable"},{"type":"function","name":"addChain","inputs":[{"name":"_chainId","type":"uint256","internalType":"uint256"},{"name":"_contractAddress","type":"address","internalType":"address"}],"outputs":[],"stateMutability":"nonpayable"},{"type":"function","name":"bridgeOperators","inputs":[{"name":"","type":"address","internalType":"address"}],"outputs":[{"name":"","type":"bool","internalType":"bool"}],"stateMutability":"view"},{"type":"function","name":"crossChainMessages","inputs":[{"name":"","type":"bytes32","internalType":"bytes32"}],"outputs":[{"name":"sourceChain","type":"uint256","internalType":"uint256"},{"name":"targetChain","type":"uint256","internalType":"uint256"},{"name":"user","type":"address","internalType":"address"},{"name":"data","type":"bytes","internalType":"bytes"},{"name":"timestamp","type":"uint256","internalType":"uint256"},{"name":"processed","type":"bool","internalType":"bool"}],"stateMutability":"view"},{"type":"function","name":"getChainData","inputs":[{"name":"_chainId","type":"uint256","internalType":"uint256"}],"outputs":[{"name":"","type":"tuple","internalType":"struct ChainHiveMultiChain.ChainData","components":[{"name":"chainId","type":"uint256","internalType":"uint256"},{"name":"contractAddress","type":"address","internalType":"address"},{"name":"isActive","type":"bool","internalType":"bool"},{"name":"lastSyncBlock","type":"uint256","internalType":"uint256"}]}],"stateMutability":"view"},{"type":"function","name":"getCrossChainMessage","inputs":[{"name":"_messageId","type":"bytes32","internalType":"bytes32"}],"outputs":[{"name":"","type":"tuple","internalType":"struct ChainHiveMultiChain.CrossChainMessage","components":[{"name":"sourceChain","type":"uint256","internalType":"uint256"},{"name":"targetChain","type":"uint256","internalType":"uint256"},{"name":"user","type":"address","internalType":"address"},{"name":"data","type":"bytes","internalType":"bytes"},{"name":"timestamp","type":"uint256","internalType":"uint256"},{"name":"processed","type":"bool","internalType":"bool"}]}],"stateMutability":"view"},{"type":"function","name":"getCurrentChainId","inputs":[],"outputs":[{"name":"","type":"uint256","internalType":"uint256"}],"stateMutability":"view"},{"type":"function","name":"getSupportedChains","inputs":[],"outputs":[{"name":"","type":"uint256[]","internalType":"uint256[]"}],"stateMutability":"view"},{"type":"function","name":"getUserDataHash","inputs":[{"name":"_user","type":"address","internalType":"address"},{"name":"_chainId","type":"uint256","internalType":"uint256"}],"outputs":[{"name":"","type":"string","internalType":"string"}],"stateMutability":"view"},{"type":"function","name":"isChainSupported","inputs":[{"name":"_chainId","type":"uint256","internalType":"uint256"}],"outputs":[{"name":"","type":"bool","internalType":"bool"}],"stateMutability":"view"},{"type":"function","name":"messageNonce","inputs":[],"outputs":[{"name":"","type":"uint256","internalType":"uint256"}],"stateMutability":"view"},{"type":"function","name":"owner","inputs":[],"outputs":[{"name":"","type":"address","internalType":"address"}],"stateMutability":"view"},{"type":"function","name":"processCrossChainMessage","inputs":[{"name":"_messageId","type":"bytes32","internalType":"bytes32"}],"outputs":[],"stateMutability":"nonpayable"},{"type":"function","name":"removeBridgeOperator","inputs":[{"name":"_operator","type":"address","internalType":"address"}],"outputs":[],"stateMutability":"nonpayable"},{"type":"function","name":"renounceOwnership","inputs":[],"outputs":[],"stateMutability":"nonpayable"},{"type":"function","name":"sendCrossChainMessage","inputs":[{"name":"_targetChain","type":"uint256","internalType":"uint256"},{"name":"_user","type":"address","internalType":"address"},{"name":"_data","type":"bytes","internalType":"bytes"}],"outputs":[{"name":"messageId","type":"bytes32","internalType":"bytes32"}],"stateMutability":"nonpayable"},{"type":"function","name":"supportedChains","inputs":[{"name":"","type":"uint256","internalType":"uint256"}],"outputs":[{"name":"chainId","type":"uint256","internalType":"uint256"},{"name":"contractAddress","type":"address","internalType":"address"},{"name":"isActive","type":"bool","internalType":"bool"},{"name":"lastSyncBlock","type":"uint256","internalType":"uint256"}],"stateMutability":"view"},{"type":"function","name":"syncUserData","inputs":[{"name":"_user","type":"address","internalType":"address"},{"name":"_sourceChain","type":"uint256","internalType":"uint256"},{"name":"_dataHash","type":"string","internalType":"string"}],"outputs":[],"stateMutability":"nonpayable"},{"type":"function","name":"toggleChain","inputs":[{"name":"_chainId","type":"uint256","internalType":"uint256"}],"outputs":[],"stateMutability":"nonpayable"},{"type":"function","name":"transferOwnership","inputs":[{"name":"newOwner","type":"address","internalType":"address"}],"outputs":[],"stateMutability":"nonpayable"},{"type":"function","name":"updateChainContract","inputs":[{"name":"_chainId","type":"uint256","internalType":"uint256"},{"name":"_contractAddress","type":"address","internalType":"address"}],"outputs":[],"stateMutability":"nonpayable"},{"type":"function","name":"userDataHashes","inputs":[{"name":"","type":"address","internalType":"address"},{"name":"","type":"uint256","internalType":"uint256"}],"outputs":[{"name":"","type":"string","internalType":"string"}],"stateMutability":"view"},{"type":"event","name":"BridgeOperatorAdded","inputs":[{"name":"operator","type":"address","indexed":true,"internalType":"address"}],"anonymous":false},{"type":"event","name":"BridgeOperatorRemoved","inputs":[{"name":"operator","type":"address","indexed":true,"internalType":"address"}],"anonymous":false},{"type":"event","name":"CrossChainDataSynced","inputs":[{"name":"chainId","type":"uint256","indexed":true,"internalType":"uint256"},{"name":"user","type":"address","indexed":true,"internalType":"address"},{"name":"dataHash","type":"string","indexed":false,"internalType":"string"}],"anonymous":false},{"type":"event","name":"OwnershipTransferred","inputs":[{"name":"previousOwner","type":"address","indexed":true,"internalType":"address"},{"name":"newOwner","type":"address","indexed":true,"internalType":"address"}],"anonymous":false},{"type":"error","name":"OwnableInvalidOwner","inputs":[{"name":"owner","type":"address","internalType":"address"}]},{"type":"error","name":"OwnableUnauthorizedAccount","inputs":[{"name":"account","type":"address","internalType":"address"}]},{"type":"error","name":"ReentrancyGuardReentrantCall","inputs":[]}],"bytecode":{"object":"0x608060405234801561000f575f5ffd5b50335f73ffffffffffffffffffffffffffffffffffffffff168173ffffffffffffffffffffffffffffffffffffffff1603610081575f6040517f1e4fbdf700000000000000000000000000000000000000000000000000000000815260040161007891906102f5565b60405180910390fd5b610090816100ea60201b60201c565b50600180819055506100ab60015f60016101ab60201b60201c565b6100be60895f60016101ab60201b60201c565b6100d160385f60016101ab60201b60201c565b6100e561a86a5f60016101ab60201b60201c565b61030e565b5f5f5f9054906101000a900473ffffffffffffffffffffffffffffffffffffffff169050815f5f6101000a81548173ffffffffffffffffffffffffffffffffffffffff021916908373ffffffffffffffffffffffffffffffffffffffff1602179055508173ffffffffffffffffffffffffffffffffffffffff168173ffffffffffffffffffffffffffffffffffffffff167f8be0079c531659141344cd1fd0a4f28419497f9722a3daafe3b4186f6b6457e060405160405180910390a35050565b5f60025f8581526020019081526020015f205f0154036101ec57600683908060018154018082558091505060019003905f5260205f20015f90919091909150555b60405180608001604052808481526020018373ffffffffffffffffffffffffffffffffffffffff16815260200182151581526020014381525060025f8581526020019081526020015f205f820151815f01556020820151816001015f6101000a81548173ffffffffffffffffffffffffffffffffffffffff021916908373ffffffffffffffffffffffffffffffffffffffff16021790555060408201518160010160146101000a81548160ff02191690831515021790555060608201518160020155905050505050565b5f73ffffffffffffffffffffffffffffffffffffffff82169050919050565b5f6102df826102b6565b9050919050565b6102ef816102d5565b82525050565b5f6020820190506103085f8301846102e6565b92915050565b61264c8061031b5f395ff3fe608060405234801561000f575f5ffd5b506004361061014b575f3560e01c80638da5cb5b116100c1578063c0452f181161007a578063c0452f18146103b1578063c4bffe2b146103e1578063ecc70428146103ff578063f2fde38b1461041d578063f83a1a7f14610439578063fcaa63c1146104695761014b565b80638da5cb5b146102c65780639184ba2f146102e45780639a5e6d23146103005780639f9f0c8a14610335578063aeb45f0114610365578063b6fb1c28146103955761014b565b80635221c1f0116101135780635221c1f0146102035780635303942b14610233578063548d496f1461024f5780635cf0e8a414610282578063673c24ee146102a0578063715018a6146102bc5761014b565b80630e2d12391461014f578063297837641461016b5780632be8b84b1461018757806334894b9c146101b75780633d70175a146101d3575b5f5ffd5b610169600480360381019061016491906116da565b610499565b005b61018560048036038101906101809190611779565b61054c565b005b6101a1600480360381019061019c919061181d565b6106de565b6040516101ae9190611976565b60405180910390f35b6101d160048036038101906101cc9190611996565b610825565b005b6101ed60048036038101906101e891906119c1565b6108c8565b6040516101fa9190611a51565b60405180910390f35b61021d60048036038101906102189190611a71565b6109a5565b60405161022a9190611aab565b60405180910390f35b61024d600480360381019061024891906116da565b6109cf565b005b61026960048036038101906102649190611a71565b6109e7565b6040516102799493929190611ae2565b60405180910390f35b61028a610a3f565b6040516102979190611b25565b60405180910390f35b6102ba60048036038101906102b59190611a71565b610a46565b005b6102c4610af4565b005b6102ce610b07565b6040516102db9190611b3e565b60405180910390f35b6102fe60048036038101906102f99190611996565b610b2e565b005b61031a6004803603810190610315919061181d565b610bd0565b60405161032c96959493929190611b9f565b60405180910390f35b61034f600480360381019061034a9190611c5a565b610cb9565b60405161035c9190611cda565b60405180910390f35b61037f600480360381019061037a9190611a71565b610f64565b60405161038c9190611d46565b60405180910390f35b6103af60048036038101906103aa919061181d565b611012565b005b6103cb60048036038101906103c691906119c1565b6111a3565b6040516103d89190611a51565b60405180910390f35b6103e9611249565b6040516103f69190611e07565b60405180910390f35b61040761129f565b6040516104149190611b25565b60405180910390f35b61043760048036038101906104329190611996565b6112a5565b005b610453600480360381019061044e9190611996565b611329565b6040516104609190611aab565b60405180910390f35b610483600480360381019061047e9190611a71565b611346565b6040516104909190611b25565b60405180910390f35b6104a1611366565b5f60025f8481526020019081526020015f205f0154036104f6576040517f08c379a00000000000000000000000000000000000000000000000000000000081526004016104ed90611e71565b60405180910390fd5b8060025f8481526020019081526020015f206001015f6101000a81548173ffffffffffffffffffffffffffffffffffffffff021916908373ffffffffffffffffffffffffffffffffffffffff1602179055505050565b60035f3373ffffffffffffffffffffffffffffffffffffffff1673ffffffffffffffffffffffffffffffffffffffff1681526020019081526020015f205f9054906101000a900460ff16806105d357506105a4610b07565b73ffffffffffffffffffffffffffffffffffffffff163373ffffffffffffffffffffffffffffffffffffffff16145b610612576040517f08c379a000000000000000000000000000000000000000000000000000000000815260040161060990611ed9565b60405180910390fd5b818160055f8773ffffffffffffffffffffffffffffffffffffffff1673ffffffffffffffffffffffffffffffffffffffff1681526020019081526020015f205f8681526020019081526020015f20918261066d92919061212b565b504360025f8581526020019081526020015f20600201819055508373ffffffffffffffffffffffffffffffffffffffff16837f44cc6b9cc58a1780c131d77f817ce8ea89bea2b8bd2b4ba7f623db53c0fc612684846040516106d0929190612232565b60405180910390a350505050565b6106e66115c0565b60045f8381526020019081526020015f206040518060c00160405290815f820154815260200160018201548152602001600282015f9054906101000a900473ffffffffffffffffffffffffffffffffffffffff1673ffffffffffffffffffffffffffffffffffffffff1673ffffffffffffffffffffffffffffffffffffffff16815260200160038201805461077a90611f5b565b80601f01602080910402602001604051908101604052809291908181526020018280546107a690611f5b565b80156107f15780601f106107c8576101008083540402835291602001916107f1565b820191905f5260205f20905b8154815290600101906020018083116107d457829003601f168201915b5050505050815260200160048201548152602001600582015f9054906101000a900460ff1615151515815250509050919050565b61082d611366565b600160035f8373ffffffffffffffffffffffffffffffffffffffff1673ffffffffffffffffffffffffffffffffffffffff1681526020019081526020015f205f6101000a81548160ff0219169083151502179055508073ffffffffffffffffffffffffffffffffffffffff167f07fd8bdde00dfde785188345a6ff568350febf16700961392c8b079cc7e413c760405160405180910390a250565b606060055f8473ffffffffffffffffffffffffffffffffffffffff1673ffffffffffffffffffffffffffffffffffffffff1681526020019081526020015f205f8381526020019081526020015f20805461092190611f5b565b80601f016020809104026020016040519081016040528092919081815260200182805461094d90611f5b565b80156109985780601f1061096f57610100808354040283529160200191610998565b820191905f5260205f20905b81548152906001019060200180831161097b57829003601f168201915b5050505050905092915050565b5f60025f8381526020019081526020015f2060010160149054906101000a900460ff169050919050565b6109d7611366565b6109e3828260016113ed565b5050565b6002602052805f5260405f205f91509050805f015490806001015f9054906101000a900473ffffffffffffffffffffffffffffffffffffffff16908060010160149054906101000a900460ff16908060020154905084565b5f46905090565b610a4e611366565b5f60025f8381526020019081526020015f205f015403610aa3576040517f08c379a0000000000000000000000000000000000000000000000000000000008152600401610a9a90611e71565b60405180910390fd5b60025f8281526020019081526020015f2060010160149054906101000a900460ff161560025f8381526020019081526020015f2060010160146101000a81548160ff02191690831515021790555050565b610afc611366565b610b055f6114f8565b565b5f5f5f9054906101000a900473ffffffffffffffffffffffffffffffffffffffff16905090565b610b36611366565b5f60035f8373ffffffffffffffffffffffffffffffffffffffff1673ffffffffffffffffffffffffffffffffffffffff1681526020019081526020015f205f6101000a81548160ff0219169083151502179055508073ffffffffffffffffffffffffffffffffffffffff167f2541c2ea3c7f2551d38f10f93951cf51468465433cf85cbb32292d083fad2a2b60405160405180910390a250565b6004602052805f5260405f205f91509050805f015490806001015490806002015f9054906101000a900473ffffffffffffffffffffffffffffffffffffffff1690806003018054610c2090611f5b565b80601f0160208091040260200160405190810160405280929190818152602001828054610c4c90611f5b565b8015610c975780601f10610c6e57610100808354040283529160200191610c97565b820191905f5260205f20905b815481529060010190602001808311610c7a57829003601f168201915b505050505090806004015490806005015f9054906101000a900460ff16905086565b5f60035f3373ffffffffffffffffffffffffffffffffffffffff1673ffffffffffffffffffffffffffffffffffffffff1681526020019081526020015f205f9054906101000a900460ff1680610d415750610d12610b07565b73ffffffffffffffffffffffffffffffffffffffff163373ffffffffffffffffffffffffffffffffffffffff16145b610d80576040517f08c379a0000000000000000000000000000000000000000000000000000000008152600401610d7790611ed9565b60405180910390fd5b60025f8681526020019081526020015f2060010160149054906101000a900460ff16610de1576040517f08c379a0000000000000000000000000000000000000000000000000000000008152600401610dd89061229e565b60405180910390fd5b468585858560075f815480929190610df8906122e9565b91905055604051602001610e11969594939291906123c3565b6040516020818303038152906040528051906020012090506040518060c001604052804681526020018681526020018573ffffffffffffffffffffffffffffffffffffffff16815260200184848080601f0160208091040260200160405190810160405280939291908181526020018383808284375f81840152601f19601f8201169050808301925050505050505081526020014281526020015f151581525060045f8381526020019081526020015f205f820151815f0155602082015181600101556040820151816002015f6101000a81548173ffffffffffffffffffffffffffffffffffffffff021916908373ffffffffffffffffffffffffffffffffffffffff1602179055506060820151816003019081610f2f9190612477565b506080820151816004015560a0820151816005015f6101000a81548160ff021916908315150217905550905050949350505050565b610f6c611609565b60025f8381526020019081526020015f206040518060800160405290815f8201548152602001600182015f9054906101000a900473ffffffffffffffffffffffffffffffffffffffff1673ffffffffffffffffffffffffffffffffffffffff1673ffffffffffffffffffffffffffffffffffffffff1681526020016001820160149054906101000a900460ff161515151581526020016002820154815250509050919050565b60035f3373ffffffffffffffffffffffffffffffffffffffff1673ffffffffffffffffffffffffffffffffffffffff1681526020019081526020015f205f9054906101000a900460ff1680611099575061106a610b07565b73ffffffffffffffffffffffffffffffffffffffff163373ffffffffffffffffffffffffffffffffffffffff16145b6110d8576040517f08c379a00000000000000000000000000000000000000000000000000000000081526004016110cf90611ed9565b60405180910390fd5b5f60045f8381526020019081526020015f209050806005015f9054906101000a900460ff161561113d576040517f08c379a000000000000000000000000000000000000000000000000000000000815260040161113490612590565b60405180910390fd5b46816001015414611183576040517f08c379a000000000000000000000000000000000000000000000000000000000815260040161117a906125f8565b60405180910390fd5b6001816005015f6101000a81548160ff0219169083151502179055505050565b6005602052815f5260405f20602052805f5260405f205f915091505080546111ca90611f5b565b80601f01602080910402602001604051908101604052809291908181526020018280546111f690611f5b565b80156112415780601f1061121857610100808354040283529160200191611241565b820191905f5260205f20905b81548152906001019060200180831161122457829003601f168201915b505050505081565b6060600680548060200260200160405190810160405280929190818152602001828054801561129557602002820191905f5260205f20905b815481526020019060010190808311611281575b5050505050905090565b60075481565b6112ad611366565b5f73ffffffffffffffffffffffffffffffffffffffff168173ffffffffffffffffffffffffffffffffffffffff160361131d575f6040517f1e4fbdf70000000000000000000000000000000000000000000000000000000081526004016113149190611b3e565b60405180910390fd5b611326816114f8565b50565b6003602052805f5260405f205f915054906101000a900460ff1681565b60068181548110611355575f80fd5b905f5260205f20015f915090505481565b61136e6115b9565b73ffffffffffffffffffffffffffffffffffffffff1661138c610b07565b73ffffffffffffffffffffffffffffffffffffffff16146113eb576113af6115b9565b6040517f118cdaa70000000000000000000000000000000000000000000000000000000081526004016113e29190611b3e565b60405180910390fd5b565b5f60025f8581526020019081526020015f205f01540361142e57600683908060018154018082558091505060019003905f5260205f20015f90919091909150555b60405180608001604052808481526020018373ffffffffffffffffffffffffffffffffffffffff16815260200182151581526020014381525060025f8581526020019081526020015f205f820151815f01556020820151816001015f6101000a81548173ffffffffffffffffffffffffffffffffffffffff021916908373ffffffffffffffffffffffffffffffffffffffff16021790555060408201518160010160146101000a81548160ff02191690831515021790555060608201518160020155905050505050565b5f5f5f9054906101000a900473ffffffffffffffffffffffffffffffffffffffff169050815f5f6101000a81548173ffffffffffffffffffffffffffffffffffffffff021916908373ffffffffffffffffffffffffffffffffffffffff1602179055508173ffffffffffffffffffffffffffffffffffffffff168173ffffffffffffffffffffffffffffffffffffffff167f8be0079c531659141344cd1fd0a4f28419497f9722a3daafe3b4186f6b6457e060405160405180910390a35050565b5f33905090565b6040518060c001604052805f81526020015f81526020015f73ffffffffffffffffffffffffffffffffffffffff168152602001606081526020015f81526020015f151581525090565b60405180608001604052805f81526020015f73ffffffffffffffffffffffffffffffffffffffff1681526020015f151581526020015f81525090565b5f5ffd5b5f5ffd5b5f819050919050565b61165f8161164d565b8114611669575f5ffd5b50565b5f8135905061167a81611656565b92915050565b5f73ffffffffffffffffffffffffffffffffffffffff82169050919050565b5f6116a982611680565b9050919050565b6116b98161169f565b81146116c3575f5ffd5b50565b5f813590506116d4816116b0565b92915050565b5f5f604083850312156116f0576116ef611645565b5b5f6116fd8582860161166c565b925050602061170e858286016116c6565b9150509250929050565b5f5ffd5b5f5ffd5b5f5ffd5b5f5f83601f84011261173957611738611718565b5b8235905067ffffffffffffffff8111156117565761175561171c565b5b60208301915083600182028301111561177257611771611720565b5b9250929050565b5f5f5f5f6060858703121561179157611790611645565b5b5f61179e878288016116c6565b94505060206117af8782880161166c565b935050604085013567ffffffffffffffff8111156117d0576117cf611649565b5b6117dc87828801611724565b925092505092959194509250565b5f819050919050565b6117fc816117ea565b8114611806575f5ffd5b50565b5f81359050611817816117f3565b92915050565b5f6020828403121561183257611831611645565b5b5f61183f84828501611809565b91505092915050565b6118518161164d565b82525050565b6118608161169f565b82525050565b5f81519050919050565b5f82825260208201905092915050565b8281835e5f83830152505050565b5f601f19601f8301169050919050565b5f6118a882611866565b6118b28185611870565b93506118c2818560208601611880565b6118cb8161188e565b840191505092915050565b5f8115159050919050565b6118ea816118d6565b82525050565b5f60c083015f8301516119055f860182611848565b5060208301516119186020860182611848565b50604083015161192b6040860182611857565b5060608301518482036060860152611943828261189e565b91505060808301516119586080860182611848565b5060a083015161196b60a08601826118e1565b508091505092915050565b5f6020820190508181035f83015261198e81846118f0565b905092915050565b5f602082840312156119ab576119aa611645565b5b5f6119b8848285016116c6565b91505092915050565b5f5f604083850312156119d7576119d6611645565b5b5f6119e4858286016116c6565b92505060206119f58582860161166c565b9150509250929050565b5f81519050919050565b5f82825260208201905092915050565b5f611a23826119ff565b611a2d8185611a09565b9350611a3d818560208601611880565b611a468161188e565b840191505092915050565b5f6020820190508181035f830152611a698184611a19565b905092915050565b5f60208284031215611a8657611a85611645565b5b5f611a938482850161166c565b91505092915050565b611aa5816118d6565b82525050565b5f602082019050611abe5f830184611a9c565b92915050565b611acd8161164d565b82525050565b611adc8161169f565b82525050565b5f608082019050611af55f830187611ac4565b611b026020830186611ad3565b611b0f6040830185611a9c565b611b1c6060830184611ac4565b95945050505050565b5f602082019050611b385f830184611ac4565b92915050565b5f602082019050611b515f830184611ad3565b92915050565b5f82825260208201905092915050565b5f611b7182611866565b611b7b8185611b57565b9350611b8b818560208601611880565b611b948161188e565b840191505092915050565b5f60c082019050611bb25f830189611ac4565b611bbf6020830188611ac4565b611bcc6040830187611ad3565b8181036060830152611bde8186611b67565b9050611bed6080830185611ac4565b611bfa60a0830184611a9c565b979650505050505050565b5f5f83601f840112611c1a57611c19611718565b5b8235905067ffffffffffffffff811115611c3757611c3661171c565b5b602083019150836001820283011115611c5357611c52611720565b5b9250929050565b5f5f5f5f60608587031215611c7257611c71611645565b5b5f611c7f8782880161166c565b9450506020611c90878288016116c6565b935050604085013567ffffffffffffffff811115611cb157611cb0611649565b5b611cbd87828801611c05565b925092505092959194509250565b611cd4816117ea565b82525050565b5f602082019050611ced5f830184611ccb565b92915050565b608082015f820151611d075f850182611848565b506020820151611d1a6020850182611857565b506040820151611d2d60408501826118e1565b506060820151611d406060850182611848565b50505050565b5f608082019050611d595f830184611cf3565b92915050565b5f81519050919050565b5f82825260208201905092915050565b5f819050602082019050919050565b5f611d938383611848565b60208301905092915050565b5f602082019050919050565b5f611db582611d5f565b611dbf8185611d69565b9350611dca83611d79565b805f5b83811015611dfa578151611de18882611d88565b9750611dec83611d9f565b925050600181019050611dcd565b5085935050505092915050565b5f6020820190508181035f830152611e1f8184611dab565b905092915050565b7f436861696e206e6f7420737570706f72746564000000000000000000000000005f82015250565b5f611e5b601383611a09565b9150611e6682611e27565b602082019050919050565b5f6020820190508181035f830152611e8881611e4f565b9050919050565b7f4e6f7420617574686f72697a65640000000000000000000000000000000000005f82015250565b5f611ec3600e83611a09565b9150611ece82611e8f565b602082019050919050565b5f6020820190508181035f830152611ef081611eb7565b9050919050565b5f82905092915050565b7f4e487b71000000000000000000000000000000000000000000000000000000005f52604160045260245ffd5b7f4e487b71000000000000000000000000000000000000000000000000000000005f52602260045260245ffd5b5f6002820490506001821680611f7257607f821691505b602082108103611f8557611f84611f2e565b5b50919050565b5f819050815f5260205f209050919050565b5f6020601f8301049050919050565b5f82821b905092915050565b5f60088302611fe77fffffffffffffffffffffffffffffffffffffffffffffffffffffffffffffffff82611fac565b611ff18683611fac565b95508019841693508086168417925050509392505050565b5f819050919050565b5f61202c6120276120228461164d565b612009565b61164d565b9050919050565b5f819050919050565b61204583612012565b61205961205182612033565b848454611fb8565b825550505050565b5f5f905090565b612070612061565b61207b81848461203c565b505050565b5b8181101561209e576120935f82612068565b600181019050612081565b5050565b601f8211156120e3576120b481611f8b565b6120bd84611f9d565b810160208510156120cc578190505b6120e06120d885611f9d565b830182612080565b50505b505050565b5f82821c905092915050565b5f6121035f19846008026120e8565b1980831691505092915050565b5f61211b83836120f4565b9150826002028217905092915050565b6121358383611ef7565b67ffffffffffffffff81111561214e5761214d611f01565b5b6121588254611f5b565b6121638282856120a2565b5f601f831160018114612190575f841561217e578287013590505b6121888582612110565b8655506121ef565b601f19841661219e86611f8b565b5f5b828110156121c5578489013582556001820191506020850194506020810190506121a0565b868310156121e257848901356121de601f8916826120f4565b8355505b6001600288020188555050505b50505050505050565b828183375f83830152505050565b5f6122118385611a09565b935061221e8385846121f8565b6122278361188e565b840190509392505050565b5f6020820190508181035f83015261224b818486612206565b90509392505050565b7f54617267657420636861696e206e6f74206163746976650000000000000000005f82015250565b5f612288601783611a09565b915061229382612254565b602082019050919050565b5f6020820190508181035f8301526122b58161227c565b9050919050565b7f4e487b71000000000000000000000000000000000000000000000000000000005f52601160045260245ffd5b5f6122f38261164d565b91507fffffffffffffffffffffffffffffffffffffffffffffffffffffffffffffffff8203612325576123246122bc565b5b600182019050919050565b5f819050919050565b61234a6123458261164d565b612330565b82525050565b5f8160601b9050919050565b5f61236682612350565b9050919050565b5f6123778261235c565b9050919050565b61238f61238a8261169f565b61236d565b82525050565b5f81905092915050565b5f6123aa8385612395565b93506123b78385846121f8565b82840190509392505050565b5f6123ce8289612339565b6020820191506123de8288612339565b6020820191506123ee828761237e565b6014820191506123ff82858761239f565b915061240b8284612339565b602082019150819050979650505050505050565b5f819050815f5260205f209050919050565b601f821115612472576124438161241f565b61244c84611f9d565b8101602085101561245b578190505b61246f61246785611f9d565b830182612080565b50505b505050565b61248082611866565b67ffffffffffffffff81111561249957612498611f01565b5b6124a38254611f5b565b6124ae828285612431565b5f60209050601f8311600181146124df575f84156124cd578287015190505b6124d78582612110565b86555061253e565b601f1984166124ed8661241f565b5f5b82811015612514578489015182556001820191506020850194506020810190506124ef565b86831015612531578489015161252d601f8916826120f4565b8355505b6001600288020188555050505b505050505050565b7f4d65737361676520616c72656164792070726f636573736564000000000000005f82015250565b5f61257a601983611a09565b915061258582612546565b602082019050919050565b5f6020820190508181035f8301526125a78161256e565b9050919050565b7f57726f6e672074617267657420636861696e00000000000000000000000000005f82015250565b5f6125e2601283611a09565b91506125ed826125ae565b602082019050919050565b5f6020820190508181035f83015261260f816125d6565b905091905056fea26469706673582212205b5622be9858b70d7996bed295f767d58a35a5e23379aacd545eb61e961209d464736f6c634300081e0033","linkReferences":{}},"methodIdentifiers":{"activeChains(uint256)":"fcaa63c1","addBridgeOperator(address)":"34894b9c","addChain(uint256,address)":"5303942b","bridgeOperators(address)":"f83a1a7f","crossChainMessages(bytes32)":"9a5e6d23","getChainData(uint256)":"aeb45f01","getCrossChainMessage(bytes32)":"2be8b84b","getCurrentChainId()":"5cf0e8a4","getSupportedChains()":"c4bffe2b","getUserDataHash(address,uint256)":"3d70175a","isChainSupported(uint256)":"5221c1f0","messageNonce()":"ecc70428","owner()":"8da5cb5b","processCrossChainMessage(bytes32)":"b6fb1c28","removeBridgeOperator(address)":"9184ba2f","renounceOwnership()":"715018a6","sendCrossChainMessage(uint256,address,bytes)":"9f9f0c8a","supportedChains(uint256)":"548d496f","syncUserData(address,uint256,string)":"29783764","toggleChain(uint256)":"673c24ee","transferOwnership(address)":"f2fde38b","updateChainContract(uint256,address)":"0e2d1239","userDataHashes(address,uint256)":"c0452f18"},"id":2}