{"abi":[{"type":"constructor","inputs":[],"stateMutability":"nonpayable"},{"type":"function","name":"CLOCK_MODE","inputs":[],"outputs":[{"name":"","type":"string","internalType":"string"}],"stateMutability":"view"},{"type":"function","name":"INITIAL_SUPPLY","inputs":[],"outputs":[{"name":"","type":"uint256","internalType":"uint256"}],"stateMutability":"view"},{"type":"function","name":"MAX_SUPPLY","inputs":[],"outputs":[{"name":"","type":"uint256","internalType":"uint256"}],"stateMutability":"view"},{"type":"function","name":"addMinter","inputs":[{"name":"_minter","type":"address","internalType":"address"}],"outputs":[],"stateMutability":"nonpayable"},{"type":"function","name":"allowance","inputs":[{"name":"owner","type":"address","internalType":"address"},{"name":"spender","type":"address","internalType":"address"}],"outputs":[{"name":"","type":"uint256","internalType":"uint256"}],"stateMutability":"view"},{"type":"function","name":"approve","inputs":[{"name":"spender","type":"address","internalType":"address"},{"name":"value","type":"uint256","internalType":"uint256"}],"outputs":[{"name":"","type":"bool","internalType":"bool"}],"stateMutability":"nonpayable"},{"type":"function","name":"balanceOf","inputs":[{"name":"account","type":"address","internalType":"address"}],"outputs":[{"name":"","type":"uint256","internalType":"uint256"}],"stateMutability":"view"},{"type":"function","name":"burn","inputs":[{"name":"value","type":"uint256","internalType":"uint256"}],"outputs":[],"stateMutability":"nonpayable"},{"type":"function","name":"burnFrom","inputs":[{"name":"account","type":"address","internalType":"address"},{"name":"value","type":"uint256","internalType":"uint256"}],"outputs":[],"stateMutability":"nonpayable"},{"type":"function","name":"checkpoints","inputs":[{"name":"account","type":"address","internalType":"address"},{"name":"pos","type":"uint32","internalType":"uint32"}],"outputs":[{"name":"","type":"tuple","internalType":"struct Checkpoints.Checkpoint208","components":[{"name":"_key","type":"uint48","internalType":"uint48"},{"name":"_value","type":"uint208","internalType":"uint208"}]}],"stateMutability":"view"},{"type":"function","name":"clock","inputs":[],"outputs":[{"name":"","type":"uint48","internalType":"uint48"}],"stateMutability":"view"},{"type":"function","name":"decimals","inputs":[],"outputs":[{"name":"","type":"uint8","internalType":"uint8"}],"stateMutability":"view"},{"type":"function","name":"delegate","inputs":[{"name":"delegatee","type":"address","internalType":"address"}],"outputs":[],"stateMutability":"nonpayable"},{"type":"function","name":"delegateBySig","inputs":[{"name":"delegatee","type":"address","internalType":"address"},{"name":"nonce","type":"uint256","internalType":"uint256"},{"name":"expiry","type":"uint256","internalType":"uint256"},{"name":"v","type":"uint8","internalType":"uint8"},{"name":"r","type":"bytes32","internalType":"bytes32"},{"name":"s","type":"bytes32","internalType":"bytes32"}],"outputs":[],"stateMutability":"nonpayable"},{"type":"function","name":"delegates","inputs":[{"name":"account","type":"address","internalType":"address"}],"outputs":[{"name":"","type":"address","internalType":"address"}],"stateMutability":"view"},{"type":"function","name":"eip712Domain","inputs":[],"outputs":[{"name":"fields","type":"bytes1","internalType":"bytes1"},{"name":"name","type":"string","internalType":"string"},{"name":"version","type":"string","internalType":"string"},{"name":"chainId","type":"uint256","internalType":"uint256"},{"name":"verifyingContract","type":"address","internalType":"address"},{"name":"salt","type":"bytes32","internalType":"bytes32"},{"name":"extensions","type":"uint256[]","internalType":"uint256[]"}],"stateMutability":"view"},{"type":"function","name":"getPastTotalSupply","inputs":[{"name":"timepoint","type":"uint256","internalType":"uint256"}],"outputs":[{"name":"","type":"uint256","internalType":"uint256"}],"stateMutability":"view"},{"type":"function","name":"getPastVotes","inputs":[{"name":"account","type":"address","internalType":"address"},{"name":"timepoint","type":"uint256","internalType":"uint256"}],"outputs":[{"name":"","type":"uint256","internalType":"uint256"}],"stateMutability":"view"},{"type":"function","name":"getVotes","inputs":[{"name":"account","type":"address","internalType":"address"}],"outputs":[{"name":"","type":"uint256","internalType":"uint256"}],"stateMutability":"view"},{"type":"function","name":"mint","inputs":[{"name":"to","type":"address","internalType":"address"},{"name":"amount","type":"uint256","internalType":"uint256"}],"outputs":[],"stateMutability":"nonpayable"},{"type":"function","name":"minters","inputs":[{"name":"","type":"address","internalType":"address"}],"outputs":[{"name":"","type":"bool","internalType":"bool"}],"stateMutability":"view"},{"type":"function","name":"name","inputs":[],"outputs":[{"name":"","type":"string","internalType":"string"}],"stateMutability":"view"},{"type":"function","name":"nonces","inputs":[{"name":"owner","type":"address","internalType":"address"}],"outputs":[{"name":"","type":"uint256","internalType":"uint256"}],"stateMutability":"view"},{"type":"function","name":"numCheckpoints","inputs":[{"name":"account","type":"address","internalType":"address"}],"outputs":[{"name":"","type":"uint32","internalType":"uint32"}],"stateMutability":"view"},{"type":"function","name":"owner","inputs":[],"outputs":[{"name":"","type":"address","internalType":"address"}],"stateMutability":"view"},{"type":"function","name":"pause","inputs":[],"outputs":[],"stateMutability":"nonpayable"},{"type":"function","name":"paused","inputs":[],"outputs":[{"name":"","type":"bool","internalType":"bool"}],"stateMutability":"view"},{"type":"function","name":"removeMinter","inputs":[{"name":"_minter","type":"address","internalType":"address"}],"outputs":[],"stateMutability":"nonpayable"},{"type":"function","name":"renounceOwnership","inputs":[],"outputs":[],"stateMutability":"nonpayable"},{"type":"function","name":"symbol","inputs":[],"outputs":[{"name":"","type":"string","internalType":"string"}],"stateMutability":"view"},{"type":"function","name":"totalSupply","inputs":[],"outputs":[{"name":"","type":"uint256","internalType":"uint256"}],"stateMutability":"view"},{"type":"function","name":"transfer","inputs":[{"name":"to","type":"address","internalType":"address"},{"name":"value","type":"uint256","internalType":"uint256"}],"outputs":[{"name":"","type":"bool","internalType":"bool"}],"stateMutability":"nonpayable"},{"type":"function","name":"transferFrom","inputs":[{"name":"from","type":"address","internalType":"address"},{"name":"to","type":"address","internalType":"address"},{"name":"value","type":"uint256","internalType":"uint256"}],"outputs":[{"name":"","type":"bool","internalType":"bool"}],"stateMutability":"nonpayable"},{"type":"function","name":"transferOwnership","inputs":[{"name":"newOwner","type":"address","internalType":"address"}],"outputs":[],"stateMutability":"nonpayable"},{"type":"function","name":"unpause","inputs":[],"outputs":[],"stateMutability":"nonpayable"},{"type":"event","name":"Approval","inputs":[{"name":"owner","type":"address","indexed":true,"internalType":"address"},{"name":"spender","type":"address","indexed":true,"internalType":"address"},{"name":"value","type":"uint256","indexed":false,"internalType":"uint256"}],"anonymous":false},{"type":"event","name":"DelegateChanged","inputs":[{"name":"delegator","type":"address","indexed":true,"internalType":"address"},{"name":"fromDelegate","type":"address","indexed":true,"internalType":"address"},{"name":"toDelegate","type":"address","indexed":true,"internalType":"address"}],"anonymous":false},{"type":"event","name":"DelegateVotesChanged","inputs":[{"name":"delegate","type":"address","indexed":true,"internalType":"address"},{"name":"previousVotes","type":"uint256","indexed":false,"internalType":"uint256"},{"name":"newVotes","type":"uint256","indexed":false,"internalType":"uint256"}],"anonymous":false},{"type":"event","name":"EIP712DomainChanged","inputs":[],"anonymous":false},{"type":"event","name":"MinterAdded","inputs":[{"name":"minter","type":"address","indexed":true,"internalType":"address"}],"anonymous":false},{"type":"event","name":"MinterRemoved","inputs":[{"name":"minter","type":"address","indexed":true,"internalType":"address"}],"anonymous":false},{"type":"event","name":"OwnershipTransferred","inputs":[{"name":"previousOwner","type":"address","indexed":true,"internalType":"address"},{"name":"newOwner","type":"address","indexed":true,"internalType":"address"}],"anonymous":false},{"type":"event","name":"Paused","inputs":[{"name":"account","type":"address","indexed":false,"internalType":"address"}],"anonymous":false},{"type":"event","name":"Transfer","inputs":[{"name":"from","type":"address","indexed":true,"internalType":"address"},{"name":"to","type":"address","indexed":true,"internalType":"address"},{"name":"value","type":"uint256","indexed":false,"internalType":"uint256"}],"anonymous":false},{"type":"event","name":"Unpaused","inputs":[{"name":"account","type":"address","indexed":false,"internalType":"address"}],"anonymous":false},{"type":"error","name":"CheckpointUnorderedInsertion","inputs":[]},{"type":"error","name":"ECDSAInvalidSignature","inputs":[]},{"type":"error","name":"ECDSAInvalidSignatureLength","inputs":[{"name":"length","type":"uint256","internalType":"uint256"}]},{"type":"error","name":"ECDSAInvalidSignatureS","inputs":[{"name":"s","type":"bytes32","internalType":"bytes32"}]},{"type":"error","name":"ERC20ExceededSafeSupply","inputs":[{"name":"increasedSupply","type":"uint256","internalType":"uint256"},{"name":"cap","type":"uint256","internalType":"uint256"}]},{"type":"error","name":"ERC20InsufficientAllowance","inputs":[{"name":"spender","type":"address","internalType":"address"},{"name":"allowance","type":"uint256","internalType":"uint256"},{"name":"needed","type":"uint256","internalType":"uint256"}]},{"type":"error","name":"ERC20InsufficientBalance","inputs":[{"name":"sender","type":"address","internalType":"address"},{"name":"balance","type":"uint256","internalType":"uint256"},{"name":"needed","type":"uint256","internalType":"uint256"}]},{"type":"error","name":"ERC20InvalidApprover","inputs":[{"name":"approver","type":"address","internalType":"address"}]},{"type":"error","name":"ERC20InvalidReceiver","inputs":[{"name":"receiver","type":"address","internalType":"address"}]},{"type":"error","name":"ERC20InvalidSender","inputs":[{"name":"sender","type":"address","internalType":"address"}]},{"type":"error","name":"ERC20InvalidSpender","inputs":[{"name":"spender","type":"address","internalType":"address"}]},{"type":"error","name":"ERC5805FutureLookup","inputs":[{"name":"timepoint","type":"uint256","internalType":"uint256"},{"name":"clock","type":"uint48","internalType":"uint48"}]},{"type":"error","name":"ERC6372InconsistentClock","inputs":[]},{"type":"error","name":"EnforcedPause","inputs":[]},{"type":"error","name":"ExpectedPause","inputs":[]},{"type":"error","name":"InvalidAccountNonce","inputs":[{"name":"account","type":"address","internalType":"address"},{"name":"currentNonce","type":"uint256","internalType":"uint256"}]},{"type":"error","name":"InvalidShortString","inputs":[]},{"type":"error","name":"OwnableInvalidOwner","inputs":[{"name":"owner","type":"address","internalType":"address"}]},{"type":"error","name":"OwnableUnauthorizedAccount","inputs":[{"name":"account","type":"address","internalType":"address"}]},{"type":"error","name":"SafeCastOverflowedUintDowncast","inputs":[{"name":"bits","type":"uint8","internalType":"uint8"},{"name":"value","type":"uint256","internalType":"uint256"}]},{"type":"error","name":"StringTooLong","inputs":[{"name":"str","type":"string","internalType":"string"}]},{"type":"error","name":"VotesExpiredSignature","inputs":[{"name":"expiry","type":"uint256","internalType":"uint256"}]}],"bytecode":{"object":"0x610160604052348015610010575f5ffd5b50336040518060400160405280600f81526020017f436861696e4869766520546f6b656e00000000000000000000000000000000008152506040518060400160405280600181526020017f31000000000000000000000000000000000000000000000000000000000000008152506040518060400160405280600f81526020017f436861696e4869766520546f6b656e00000000000000000000000000000000008152506040518060400160405280600481526020017f484956450000000000000000000000000000000000000000000000000000000081525081600390816100f9919061135d565b508060049081610109919061135d565b50505061012060058361025660201b90919060201c565b610120818152505061013c60068261025660201b90919060201c565b6101408181525050818051906020012060e08181525050808051906020012061010081815250504660a081815250506101796102a360201b60201c565b608081815250503073ffffffffffffffffffffffffffffffffffffffff1660c08173ffffffffffffffffffffffffffffffffffffffff168152505050505f73ffffffffffffffffffffffffffffffffffffffff168173ffffffffffffffffffffffffffffffffffffffff1603610226575f6040517f1e4fbdf700000000000000000000000000000000000000000000000000000000815260040161021d919061146b565b60405180910390fd5b610235816102fd60201b60201c565b50610251336a52b7d2dcc80cd2e40000006103c060201b60201c565b6118a8565b5f602083511015610277576102708361044560201b60201c565b905061029d565b82610287836104aa60201b60201c565b5f019081610295919061135d565b5060ff5f1b90505b92915050565b5f7f8b73c3c69bb8fe3d512ecc4cf759cc79239f7b179b0ffacaa9a75d522b39400f60e0516101005146306040516020016102e29594939291906114ab565b60405160208183030381529060405280519060200120905090565b5f600b5f9054906101000a900473ffffffffffffffffffffffffffffffffffffffff16905081600b5f6101000a81548173ffffffffffffffffffffffffffffffffffffffff021916908373ffffffffffffffffffffffffffffffffffffffff1602179055508173ffffffffffffffffffffffffffffffffffffffff168173ffffffffffffffffffffffffffffffffffffffff167f8be0079c531659141344cd1fd0a4f28419497f9722a3daafe3b4186f6b6457e060405160405180910390a35050565b5f73ffffffffffffffffffffffffffffffffffffffff168273ffffffffffffffffffffffffffffffffffffffff1603610430575f6040517fec442f05000000000000000000000000000000000000000000000000000000008152600401610427919061146b565b60405180910390fd5b6104415f83836104b360201b60201c565b5050565b5f5f829050601f8151111561049157826040517f305a27a90000000000000000000000000000000000000000000000000000000081526004016104889190611562565b60405180910390fd5b80518161049d906115af565b5f1c175f1b915050919050565b5f819050919050565b6104c16104d760201b60201c565b6104d283838361051e60201b60201c565b505050565b6104e56105e460201b60201c565b1561051c576040517fd93c066500000000000000000000000000000000000000000000000000000000815260040160405180910390fd5b565b61052f8383836105fa60201b60201c565b5f73ffffffffffffffffffffffffffffffffffffffff168373ffffffffffffffffffffffffffffffffffffffff16036105ce575f61057161081360201b60201c565b90505f61058261081c60201b60201c565b9050808211156105cb5781816040517f1cb15d260000000000000000000000000000000000000000000000000000000081526004016105c2929190611615565b60405180910390fd5b50505b6105df83838361083f60201b60201c565b505050565b5f600b60149054906101000a900460ff16905090565b5f73ffffffffffffffffffffffffffffffffffffffff168373ffffffffffffffffffffffffffffffffffffffff160361064a578060025f82825461063e9190611669565b92505081905550610718565b5f5f5f8573ffffffffffffffffffffffffffffffffffffffff1673ffffffffffffffffffffffffffffffffffffffff1681526020019081526020015f20549050818110156106d3578381836040517fe450d38c0000000000000000000000000000000000000000000000000000000081526004016106ca9392919061169c565b60405180910390fd5b8181035f5f8673ffffffffffffffffffffffffffffffffffffffff1673ffffffffffffffffffffffffffffffffffffffff1681526020019081526020015f2081905550505b5f73ffffffffffffffffffffffffffffffffffffffff168273ffffffffffffffffffffffffffffffffffffffff160361075f578060025f82825403925050819055506107a9565b805f5f8473ffffffffffffffffffffffffffffffffffffffff1673ffffffffffffffffffffffffffffffffffffffff1681526020019081526020015f205f82825401925050819055505b8173ffffffffffffffffffffffffffffffffffffffff168373ffffffffffffffffffffffffffffffffffffffff167fddf252ad1be2c89b69c2b068fc378daa952ba7f163c4a11628f55a4df523b3ef8360405161080691906116d1565b60405180910390a3505050565b5f600254905090565b5f79ffffffffffffffffffffffffffffffffffffffffffffffffffff8016905090565b5f73ffffffffffffffffffffffffffffffffffffffff168373ffffffffffffffffffffffffffffffffffffffff160361089e5761089b600a61092f60201b61113e176108908461094460201b60201c565b6109b160201b60201c565b50505b5f73ffffffffffffffffffffffffffffffffffffffff168273ffffffffffffffffffffffffffffffffffffffff16036108fd576108fa600a6109f960201b611153176108ef8461094460201b60201c565b6109b160201b60201c565b50505b61092a61090f84610a0e60201b60201c565b61091e84610a0e60201b60201c565b83610a7360201b60201c565b505050565b5f818361093c919061170f565b905092915050565b5f79ffffffffffffffffffffffffffffffffffffffffffffffffffff80168211156109a95760d0826040517f6dfcc6500000000000000000000000000000000000000000000000000000000081526004016109a09291906117a1565b60405180910390fd5b819050919050565b5f5f6109ed6109c4610d0960201b60201c565b6109dd6109d688610d1d60201b60201c565b868860201c565b87610d8560201b9092919060201c565b91509150935093915050565b5f8183610a0691906117c8565b905092915050565b5f60085f8373ffffffffffffffffffffffffffffffffffffffff1673ffffffffffffffffffffffffffffffffffffffff1681526020019081526020015f205f9054906101000a900473ffffffffffffffffffffffffffffffffffffffff169050919050565b8173ffffffffffffffffffffffffffffffffffffffff168373ffffffffffffffffffffffffffffffffffffffff1614158015610aae57505f81115b15610d04575f73ffffffffffffffffffffffffffffffffffffffff168373ffffffffffffffffffffffffffffffffffffffff1614610bdb575f5f610b4c60095f8773ffffffffffffffffffffffffffffffffffffffff1673ffffffffffffffffffffffffffffffffffffffff1681526020019081526020015f206109f960201b61115317610b418661094460201b60201c565b6109b160201b60201c565b79ffffffffffffffffffffffffffffffffffffffffffffffffffff16915079ffffffffffffffffffffffffffffffffffffffffffffffffffff1691508473ffffffffffffffffffffffffffffffffffffffff167fdec2bacdd2f05b59de34da9b523dff8be42e5e38e818c82fdb0bae774387a7248383604051610bd0929190611615565b60405180910390a250505b5f73ffffffffffffffffffffffffffffffffffffffff168273ffffffffffffffffffffffffffffffffffffffff1614610d03575f5f610c7460095f8673ffffffffffffffffffffffffffffffffffffffff1673ffffffffffffffffffffffffffffffffffffffff1681526020019081526020015f2061092f60201b61113e17610c698661094460201b60201c565b6109b160201b60201c565b79ffffffffffffffffffffffffffffffffffffffffffffffffffff16915079ffffffffffffffffffffffffffffffffffffffffffffffffffff1691508373ffffffffffffffffffffffffffffffffffffffff167fdec2bacdd2f05b59de34da9b523dff8be42e5e38e818c82fdb0bae774387a7248383604051610cf8929190611615565b60405180910390a250505b5b505050565b5f610d18610da660201b60201c565b905090565b5f5f825f018054905090505f8114610d7b57610d4d835f01600183610d429190611815565b610dbb60201b60201c565b5f0160069054906101000a900479ffffffffffffffffffffffffffffffffffffffffffffffffffff16610d7d565b5f5b915050919050565b5f5f610d9a855f018585610dcd60201b60201c565b91509150935093915050565b5f610db6436110c760201b60201c565b905090565b5f825f528160205f2001905092915050565b5f5f5f858054905090505f811115610fdf575f610dfc87600184610df19190611815565b610dbb60201b60201c565b90505f815f015f9054906101000a900465ffffffffffff1690505f825f0160069054906101000a900479ffffffffffffffffffffffffffffffffffffffffffffffffffff1690508765ffffffffffff168265ffffffffffff161115610e8d576040517f2520601d00000000000000000000000000000000000000000000000000000000815260040160405180910390fd5b8765ffffffffffff168265ffffffffffff1603610ef75786835f0160066101000a81548179ffffffffffffffffffffffffffffffffffffffffffffffffffff021916908379ffffffffffffffffffffffffffffffffffffffffffffffffffff160217905550610fd0565b8860405180604001604052808a65ffffffffffff1681526020018979ffffffffffffffffffffffffffffffffffffffffffffffffffff16815250908060018154018082558091505060019003905f5260205f20015f909190919091505f820151815f015f6101000a81548165ffffffffffff021916908365ffffffffffff1602179055506020820151815f0160066101000a81548179ffffffffffffffffffffffffffffffffffffffffffffffffffff021916908379ffffffffffffffffffffffffffffffffffffffffffffffffffff16021790555050505b808795509550505050506110bf565b8560405180604001604052808765ffffffffffff1681526020018679ffffffffffffffffffffffffffffffffffffffffffffffffffff16815250908060018154018082558091505060019003905f5260205f20015f909190919091505f820151815f015f6101000a81548165ffffffffffff021916908365ffffffffffff1602179055506020820151815f0160066101000a81548179ffffffffffffffffffffffffffffffffffffffffffffffffffff021916908379ffffffffffffffffffffffffffffffffffffffffffffffffffff16021790555050505f8492509250505b935093915050565b5f65ffffffffffff8016821115611118576030826040517f6dfcc65000000000000000000000000000000000000000000000000000000000815260040161110f929190611881565b60405180910390fd5b819050919050565b5f81519050919050565b7f4e487b71000000000000000000000000000000000000000000000000000000005f52604160045260245ffd5b7f4e487b71000000000000000000000000000000000000000000000000000000005f52602260045260245ffd5b5f600282049050600182168061119b57607f821691505b6020821081036111ae576111ad611157565b5b50919050565b5f819050815f5260205f209050919050565b5f6020601f8301049050919050565b5f82821b905092915050565b5f600883026112107fffffffffffffffffffffffffffffffffffffffffffffffffffffffffffffffff826111d5565b61121a86836111d5565b95508019841693508086168417925050509392505050565b5f819050919050565b5f819050919050565b5f61125e61125961125484611232565b61123b565b611232565b9050919050565b5f819050919050565b61127783611244565b61128b61128382611265565b8484546111e1565b825550505050565b5f5f905090565b6112a2611293565b6112ad81848461126e565b505050565b5b818110156112d0576112c55f8261129a565b6001810190506112b3565b5050565b601f821115611315576112e6816111b4565b6112ef846111c6565b810160208510156112fe578190505b61131261130a856111c6565b8301826112b2565b50505b505050565b5f82821c905092915050565b5f6113355f198460080261131a565b1980831691505092915050565b5f61134d8383611326565b9150826002028217905092915050565b61136682611120565b67ffffffffffffffff81111561137f5761137e61112a565b5b6113898254611184565b6113948282856112d4565b5f60209050601f8311600181146113c5575f84156113b3578287015190505b6113bd8582611342565b865550611424565b601f1984166113d3866111b4565b5f5b828110156113fa578489015182556001820191506020850194506020810190506113d5565b868310156114175784890151611413601f891682611326565b8355505b6001600288020188555050505b505050505050565b5f73ffffffffffffffffffffffffffffffffffffffff82169050919050565b5f6114558261142c565b9050919050565b6114658161144b565b82525050565b5f60208201905061147e5f83018461145c565b92915050565b5f819050919050565b61149681611484565b82525050565b6114a581611232565b82525050565b5f60a0820190506114be5f83018861148d565b6114cb602083018761148d565b6114d8604083018661148d565b6114e5606083018561149c565b6114f2608083018461145c565b9695505050505050565b5f82825260208201905092915050565b8281835e5f83830152505050565b5f601f19601f8301169050919050565b5f61153482611120565b61153e81856114fc565b935061154e81856020860161150c565b6115578161151a565b840191505092915050565b5f6020820190508181035f83015261157a818461152a565b905092915050565b5f81519050919050565b5f819050602082019050919050565b5f6115a68251611484565b80915050919050565b5f6115b982611582565b826115c38461158c565b90506115ce8161159b565b9250602082101561160e576116097fffffffffffffffffffffffffffffffffffffffffffffffffffffffffffffffff836020036008026111d5565b831692505b5050919050565b5f6040820190506116285f83018561149c565b611635602083018461149c565b9392505050565b7f4e487b71000000000000000000000000000000000000000000000000000000005f52601160045260245ffd5b5f61167382611232565b915061167e83611232565b92508282019050808211156116965761169561163c565b5b92915050565b5f6060820190506116af5f83018661145c565b6116bc602083018561149c565b6116c9604083018461149c565b949350505050565b5f6020820190506116e45f83018461149c565b92915050565b5f79ffffffffffffffffffffffffffffffffffffffffffffffffffff82169050919050565b5f611719826116ea565b9150611724836116ea565b9250828201905079ffffffffffffffffffffffffffffffffffffffffffffffffffff8111156117565761175561163c565b5b92915050565b5f819050919050565b5f60ff82169050919050565b5f61178b6117866117818461175c565b61123b565b611765565b9050919050565b61179b81611771565b82525050565b5f6040820190506117b45f830185611792565b6117c1602083018461149c565b9392505050565b5f6117d2826116ea565b91506117dd836116ea565b9250828203905079ffffffffffffffffffffffffffffffffffffffffffffffffffff81111561180f5761180e61163c565b5b92915050565b5f61181f82611232565b915061182a83611232565b92508282039050818111156118425761184161163c565b5b92915050565b5f819050919050565b5f61186b61186661186184611848565b61123b565b611765565b9050919050565b61187b81611851565b82525050565b5f6040820190506118945f830185611872565b6118a1602083018461149c565b9392505050565b60805160a05160c05160e051610100516101205161014051613da46118f95f395f61192401525f6118e901525f6129cd01525f6129ac01525f61232e01525f61238401525f6123ad0152613da45ff3fe608060405234801561000f575f5ffd5b506004361061020f575f3560e01c806370a082311161012357806395d89b41116100ab578063c3cda5201161007a578063c3cda52014610609578063dd62ed3e14610625578063f1127ed814610655578063f2fde38b14610685578063f46eccc4146106a15761020f565b806395d89b411461056f578063983b2d561461058d5780639ab24eb0146105a9578063a9059cbb146105d95761020f565b80638456cb59116100f25780638456cb59146104d557806384b0196e146104df5780638da5cb5b146105035780638e539e8c1461052157806391ddadf4146105515761020f565b806370a082311461044f578063715018a61461047f57806379cc6790146104895780637ecebe00146104a55761020f565b80633a46b1a8116101a65780634bf5d7e9116101755780634bf5d7e914610397578063587cde1e146103b55780635c19a95c146103e55780635c975abb146104015780636fcfff451461041f5761020f565b80633a46b1a8146103255780633f4ba83a1461035557806340c10f191461035f57806342966c681461037b5761020f565b80632ff2e9dc116101e25780632ff2e9dc146102af5780633092afd5146102cd578063313ce567146102e957806332cb6b0c146103075761020f565b806306fdde0314610213578063095ea7b31461023157806318160ddd1461026157806323b872dd1461027f575b5f5ffd5b61021b6106d1565b604051610228919061311a565b60405180910390f35b61024b600480360381019061024691906131cb565b610761565b6040516102589190613223565b60405180910390f35b610269610783565b604051610276919061324b565b60405180910390f35b61029960048036038101906102949190613264565b61078c565b6040516102a69190613223565b60405180910390f35b6102b76107ba565b6040516102c4919061324b565b60405180910390f35b6102e760048036038101906102e291906132b4565b6107c9565b005b6102f161086b565b6040516102fe91906132fa565b60405180910390f35b61030f610873565b60405161031c919061324b565b60405180910390f35b61033f600480360381019061033a91906131cb565b610883565b60405161034c919061324b565b60405180910390f35b61035d6108ff565b005b610379600480360381019061037491906131cb565b610911565b005b61039560048036038101906103909190613313565b610a46565b005b61039f610a5a565b6040516103ac919061311a565b60405180910390f35b6103cf60048036038101906103ca91906132b4565b610aee565b6040516103dc919061334d565b60405180910390f35b6103ff60048036038101906103fa91906132b4565b610b53565b005b610409610b6c565b6040516104169190613223565b60405180910390f35b610439600480360381019061043491906132b4565b610b82565b6040516104469190613384565b60405180910390f35b610469600480360381019061046491906132b4565b610b93565b604051610476919061324b565b60405180910390f35b610487610bd8565b005b6104a3600480360381019061049e91906131cb565b610beb565b005b6104bf60048036038101906104ba91906132b4565b610c0b565b6040516104cc919061324b565b60405180910390f35b6104dd610c51565b005b6104e7610c63565b6040516104fa97969594939291906134a6565b60405180910390f35b61050b610d08565b604051610518919061334d565b60405180910390f35b61053b60048036038101906105369190613313565b610d30565b604051610548919061324b565b60405180910390f35b610559610d70565b6040516105669190613548565b60405180910390f35b610577610d7e565b604051610584919061311a565b60405180910390f35b6105a760048036038101906105a291906132b4565b610e0e565b005b6105c360048036038101906105be91906132b4565b610eb1565b6040516105d0919061324b565b60405180910390f35b6105f360048036038101906105ee91906131cb565b610f1a565b6040516106009190613223565b60405180910390f35b610623600480360381019061061e91906135b5565b610f3c565b005b61063f600480360381019061063a919061363e565b611001565b60405161064c919061324b565b60405180910390f35b61066f600480360381019061066a91906136a6565b611083565b60405161067c9190613754565b60405180910390f35b61069f600480360381019061069a91906132b4565b61109d565b005b6106bb60048036038101906106b691906132b4565b611121565b6040516106c89190613223565b60405180910390f35b6060600380546106e09061379a565b80601f016020809104026020016040519081016040528092919081815260200182805461070c9061379a565b80156107575780601f1061072e57610100808354040283529160200191610757565b820191905f5260205f20905b81548152906001019060200180831161073a57829003601f168201915b5050505050905090565b5f5f61076b611168565b905061077881858561116f565b600191505092915050565b5f600254905090565b5f5f610796611168565b90506107a3858285611181565b6107ae858585611214565b60019150509392505050565b6a52b7d2dcc80cd2e400000081565b6107d1611304565b5f600c5f8373ffffffffffffffffffffffffffffffffffffffff1673ffffffffffffffffffffffffffffffffffffffff1681526020019081526020015f205f6101000a81548160ff0219169083151502179055508073ffffffffffffffffffffffffffffffffffffffff167fe94479a9f7e1952cc78f2d6baab678adc1b772d936c6583def489e524cb6669260405160405180910390a250565b5f6012905090565b6b033b2e3c9fd0803ce800000081565b5f6108db6108908361138b565b60095f8673ffffffffffffffffffffffffffffffffffffffff1673ffffffffffffffffffffffffffffffffffffffff1681526020019081526020015f206113f690919063ffffffff16565b79ffffffffffffffffffffffffffffffffffffffffffffffffffff16905092915050565b610907611304565b61090f6114e6565b565b600c5f3373ffffffffffffffffffffffffffffffffffffffff1673ffffffffffffffffffffffffffffffffffffffff1681526020019081526020015f205f9054906101000a900460ff16806109985750610969610d08565b73ffffffffffffffffffffffffffffffffffffffff163373ffffffffffffffffffffffffffffffffffffffff16145b6109d7576040517f08c379a00000000000000000000000000000000000000000000000000000000081526004016109ce90613814565b60405180910390fd5b6b033b2e3c9fd0803ce8000000816109ed610783565b6109f7919061385f565b1115610a38576040517f08c379a0000000000000000000000000000000000000000000000000000000008152600401610a2f906138dc565b60405180910390fd5b610a428282611548565b5050565b610a57610a51611168565b826115c7565b50565b6060610a64611646565b65ffffffffffff16610a74610d70565b65ffffffffffff1614610ab3576040517f6ff0714000000000000000000000000000000000000000000000000000000000815260040160405180910390fd5b6040518060400160405280601d81526020017f6d6f64653d626c6f636b6e756d6265722666726f6d3d64656661756c74000000815250905090565b5f60085f8373ffffffffffffffffffffffffffffffffffffffff1673ffffffffffffffffffffffffffffffffffffffff1681526020019081526020015f205f9054906101000a900473ffffffffffffffffffffffffffffffffffffffff169050919050565b5f610b5c611168565b9050610b688183611655565b5050565b5f600b60149054906101000a900460ff16905090565b5f610b8c82611765565b9050919050565b5f5f5f8373ffffffffffffffffffffffffffffffffffffffff1673ffffffffffffffffffffffffffffffffffffffff1681526020019081526020015f20549050919050565b610be0611304565b610be95f6117ba565b565b610bfd82610bf7611168565b83611181565b610c0782826115c7565b5050565b5f60075f8373ffffffffffffffffffffffffffffffffffffffff1673ffffffffffffffffffffffffffffffffffffffff1681526020019081526020015f20549050919050565b610c59611304565b610c6161187d565b565b5f6060805f5f5f6060610c746118e0565b610c7c61191b565b46305f5f1b5f67ffffffffffffffff811115610c9b57610c9a6138fa565b5b604051908082528060200260200182016040528015610cc95781602001602082028036833780820191505090505b507f0f00000000000000000000000000000000000000000000000000000000000000959493929190965096509650965096509650965090919293949596565b5f600b5f9054906101000a900473ffffffffffffffffffffffffffffffffffffffff16905090565b5f610d4d610d3d8361138b565b600a6113f690919063ffffffff16565b79ffffffffffffffffffffffffffffffffffffffffffffffffffff169050919050565b5f610d79611646565b905090565b606060048054610d8d9061379a565b80601f0160208091040260200160405190810160405280929190818152602001828054610db99061379a565b8015610e045780601f10610ddb57610100808354040283529160200191610e04565b820191905f5260205f20905b815481529060010190602001808311610de757829003601f168201915b5050505050905090565b610e16611304565b6001600c5f8373ffffffffffffffffffffffffffffffffffffffff1673ffffffffffffffffffffffffffffffffffffffff1681526020019081526020015f205f6101000a81548160ff0219169083151502179055508073ffffffffffffffffffffffffffffffffffffffff167f6ae172837ea30b801fbfcdd4108aa1d5bf8ff775444fd70256b44e6bf3dfc3f660405160405180910390a250565b5f610ef760095f8473ffffffffffffffffffffffffffffffffffffffff1673ffffffffffffffffffffffffffffffffffffffff1681526020019081526020015f20611956565b79ffffffffffffffffffffffffffffffffffffffffffffffffffff169050919050565b5f5f610f24611168565b9050610f31818585611214565b600191505092915050565b83421115610f8157836040517f4683af0e000000000000000000000000000000000000000000000000000000008152600401610f78919061324b565b60405180910390fd5b5f610fe2610fda7fe48329057bfd03d55e49b547132e39cffd9c1820ad7b9d4c5307691425d15adf898989604051602001610fbf9493929190613927565b604051602081830303815290604052805190602001206119b8565b8585856119d1565b9050610fee81876119ff565b610ff88188611655565b50505050505050565b5f60015f8473ffffffffffffffffffffffffffffffffffffffff1673ffffffffffffffffffffffffffffffffffffffff1681526020019081526020015f205f8373ffffffffffffffffffffffffffffffffffffffff1673ffffffffffffffffffffffffffffffffffffffff1681526020019081526020015f2054905092915050565b61108b61306e565b6110958383611a56565b905092915050565b6110a5611304565b5f73ffffffffffffffffffffffffffffffffffffffff168173ffffffffffffffffffffffffffffffffffffffff1603611115575f6040517f1e4fbdf700000000000000000000000000000000000000000000000000000000815260040161110c919061334d565b60405180910390fd5b61111e816117ba565b50565b600c602052805f5260405f205f915054906101000a900460ff1681565b5f818361114b919061396a565b905092915050565b5f818361116091906139b7565b905092915050565b5f33905090565b61117c8383836001611ab5565b505050565b5f61118c8484611001565b90507fffffffffffffffffffffffffffffffffffffffffffffffffffffffffffffffff81101561120e57818110156111ff578281836040517ffb8f41b20000000000000000000000000000000000000000000000000000000081526004016111f693929190613a04565b60405180910390fd5b61120d84848484035f611ab5565b5b50505050565b5f73ffffffffffffffffffffffffffffffffffffffff168373ffffffffffffffffffffffffffffffffffffffff1603611284575f6040517f96c6fd1e00000000000000000000000000000000000000000000000000000000815260040161127b919061334d565b60405180910390fd5b5f73ffffffffffffffffffffffffffffffffffffffff168273ffffffffffffffffffffffffffffffffffffffff16036112f4575f6040517fec442f050000000000000000000000000000000000000000000000000000000081526004016112eb919061334d565b60405180910390fd5b6112ff838383611c84565b505050565b61130c611168565b73ffffffffffffffffffffffffffffffffffffffff1661132a610d08565b73ffffffffffffffffffffffffffffffffffffffff16146113895761134d611168565b6040517f118cdaa7000000000000000000000000000000000000000000000000000000008152600401611380919061334d565b60405180910390fd5b565b5f5f611395610d70565b90508065ffffffffffff1683106113e55782816040517fecd3f81e0000000000000000000000000000000000000000000000000000000081526004016113dc929190613a39565b60405180910390fd5b6113ee83611c9c565b915050919050565b5f5f835f018054905090505f5f90505f829050600583111561147a575f61141c84611cf5565b846114279190613a60565b9050611435875f0182611e8f565b5f015f9054906101000a900465ffffffffffff1665ffffffffffff168665ffffffffffff16101561146857809150611478565b600181611475919061385f565b92505b505b5f611489875f01878585611ea1565b90505f81146114d8576114aa875f016001836114a59190613a60565b611e8f565b5f0160069054906101000a900479ffffffffffffffffffffffffffffffffffffffffffffffffffff166114da565b5f5b94505050505092915050565b6114ee611f16565b5f600b60146101000a81548160ff0219169083151502179055507f5db9ee0a495bf2e6ff9c91a7834c1ba4fdd244a5e8aa4e537bd38aeae4b073aa611531611168565b60405161153e919061334d565b60405180910390a1565b5f73ffffffffffffffffffffffffffffffffffffffff168273ffffffffffffffffffffffffffffffffffffffff16036115b8575f6040517fec442f050000000000000000000000000000000000000000000000000000000081526004016115af919061334d565b60405180910390fd5b6115c35f8383611c84565b5050565b5f73ffffffffffffffffffffffffffffffffffffffff168273ffffffffffffffffffffffffffffffffffffffff1603611637575f6040517f96c6fd1e00000000000000000000000000000000000000000000000000000000815260040161162e919061334d565b60405180910390fd5b611642825f83611c84565b5050565b5f61165043611c9c565b905090565b5f61165f83610aee565b90508160085f8573ffffffffffffffffffffffffffffffffffffffff1673ffffffffffffffffffffffffffffffffffffffff1681526020019081526020015f205f6101000a81548173ffffffffffffffffffffffffffffffffffffffff021916908373ffffffffffffffffffffffffffffffffffffffff1602179055508173ffffffffffffffffffffffffffffffffffffffff168173ffffffffffffffffffffffffffffffffffffffff168473ffffffffffffffffffffffffffffffffffffffff167f3134e8a2e6d97e929a7e54011ea5485d7d196dd5f0ba4d4ef95803e8e3fc257f60405160405180910390a4611760818361175b86611f56565b611f67565b505050565b5f6117b36117ae60095f8573ffffffffffffffffffffffffffffffffffffffff1673ffffffffffffffffffffffffffffffffffffffff1681526020019081526020015f206121d7565b6121e6565b9050919050565b5f600b5f9054906101000a900473ffffffffffffffffffffffffffffffffffffffff16905081600b5f6101000a81548173ffffffffffffffffffffffffffffffffffffffff021916908373ffffffffffffffffffffffffffffffffffffffff1602179055508173ffffffffffffffffffffffffffffffffffffffff168173ffffffffffffffffffffffffffffffffffffffff167f8be0079c531659141344cd1fd0a4f28419497f9722a3daafe3b4186f6b6457e060405160405180910390a35050565b61188561223d565b6001600b60146101000a81548160ff0219169083151502179055507f62e78cea01bee320cd4e420270b5ea74000d11b0c9f74754ebdbfc544b05a2586118c9611168565b6040516118d6919061334d565b60405180910390a1565b606061191660057f000000000000000000000000000000000000000000000000000000000000000061227e90919063ffffffff16565b905090565b606061195160067f000000000000000000000000000000000000000000000000000000000000000061227e90919063ffffffff16565b905090565b5f5f825f018054905090505f81146119ae57611980835f0160018361197b9190613a60565b611e8f565b5f0160069054906101000a900479ffffffffffffffffffffffffffffffffffffffffffffffffffff166119b0565b5f5b915050919050565b5f6119ca6119c461232b565b836123e1565b9050919050565b5f5f5f5f6119e188888888612421565b9250925092506119f18282612508565b829350505050949350505050565b5f611a098361266a565b9050808214611a515782816040517f752d88c0000000000000000000000000000000000000000000000000000000008152600401611a48929190613a93565b60405180910390fd5b505050565b611a5e61306e565b611aad8260095f8673ffffffffffffffffffffffffffffffffffffffff1673ffffffffffffffffffffffffffffffffffffffff1681526020019081526020015f206126bd90919063ffffffff16565b905092915050565b5f73ffffffffffffffffffffffffffffffffffffffff168473ffffffffffffffffffffffffffffffffffffffff1603611b25575f6040517fe602df05000000000000000000000000000000000000000000000000000000008152600401611b1c919061334d565b60405180910390fd5b5f73ffffffffffffffffffffffffffffffffffffffff168373ffffffffffffffffffffffffffffffffffffffff1603611b95575f6040517f94280d62000000000000000000000000000000000000000000000000000000008152600401611b8c919061334d565b60405180910390fd5b8160015f8673ffffffffffffffffffffffffffffffffffffffff1673ffffffffffffffffffffffffffffffffffffffff1681526020019081526020015f205f8573ffffffffffffffffffffffffffffffffffffffff1673ffffffffffffffffffffffffffffffffffffffff1681526020019081526020015f20819055508015611c7e578273ffffffffffffffffffffffffffffffffffffffff168473ffffffffffffffffffffffffffffffffffffffff167f8c5be1e5ebec7d5bd14f71427d1e84f3dd0314c0f7b2291e5b200ac8c7c3b92584604051611c75919061324b565b60405180910390a35b50505050565b611c8c61223d565b611c9783838361278c565b505050565b5f65ffffffffffff8016821115611ced576030826040517f6dfcc650000000000000000000000000000000000000000000000000000000008152600401611ce4929190613afc565b60405180910390fd5b819050919050565b5f60018211611d0657819050611e8a565b5f8290505f600190507001000000000000000000000000000000008210611d3657608082901c9150604081901b90505b680100000000000000008210611d5557604082901c9150602081901b90505b6401000000008210611d7057602082901c9150601081901b90505b620100008210611d8957601082901c9150600881901b90505b6101008210611da157600882901c9150600481901b90505b60108210611db857600482901c9150600281901b90505b60048210611dc857600181901b90505b600181600302901c90506001818581611de457611de3613b23565b5b048201901c90506001818581611dfd57611dfc613b23565b5b048201901c90506001818581611e1657611e15613b23565b5b048201901c90506001818581611e2f57611e2e613b23565b5b048201901c90506001818581611e4857611e47613b23565b5b048201901c90506001818581611e6157611e60613b23565b5b048201901c9050611e83818581611e7b57611e7a613b23565b5b04821161283a565b8103925050505b919050565b5f825f528160205f2001905092915050565b5f5b81831015611f0b575f611eb68484612845565b90508465ffffffffffff16611ecb8783611e8f565b5f015f9054906101000a900465ffffffffffff1665ffffffffffff161115611ef557809250611f05565b600181611f02919061385f565b93505b50611ea3565b819050949350505050565b611f1e610b6c565b611f54576040517f8dfc202b00000000000000000000000000000000000000000000000000000000815260040160405180910390fd5b565b5f611f6082610b93565b9050919050565b8173ffffffffffffffffffffffffffffffffffffffff168373ffffffffffffffffffffffffffffffffffffffff1614158015611fa257505f81115b156121d2575f73ffffffffffffffffffffffffffffffffffffffff168373ffffffffffffffffffffffffffffffffffffffff16146120bc575f5f61202d60095f8773ffffffffffffffffffffffffffffffffffffffff1673ffffffffffffffffffffffffffffffffffffffff1681526020019081526020015f206111536120288661286a565b6128d7565b79ffffffffffffffffffffffffffffffffffffffffffffffffffff16915079ffffffffffffffffffffffffffffffffffffffffffffffffffff1691508473ffffffffffffffffffffffffffffffffffffffff167fdec2bacdd2f05b59de34da9b523dff8be42e5e38e818c82fdb0bae774387a72483836040516120b1929190613b50565b60405180910390a250505b5f73ffffffffffffffffffffffffffffffffffffffff168273ffffffffffffffffffffffffffffffffffffffff16146121d1575f5f61214260095f8673ffffffffffffffffffffffffffffffffffffffff1673ffffffffffffffffffffffffffffffffffffffff1681526020019081526020015f2061113e61213d8661286a565b6128d7565b79ffffffffffffffffffffffffffffffffffffffffffffffffffff16915079ffffffffffffffffffffffffffffffffffffffffffffffffffff1691508373ffffffffffffffffffffffffffffffffffffffff167fdec2bacdd2f05b59de34da9b523dff8be42e5e38e818c82fdb0bae774387a72483836040516121c6929190613b50565b60405180910390a250505b5b505050565b5f815f01805490509050919050565b5f63ffffffff8016821115612235576020826040517f6dfcc65000000000000000000000000000000000000000000000000000000000815260040161222c929190613bb0565b60405180910390fd5b819050919050565b612245610b6c565b1561227c576040517fd93c066500000000000000000000000000000000000000000000000000000000815260040160405180910390fd5b565b606060ff5f1b831461229a5761229383612916565b9050612325565b8180546122a69061379a565b80601f01602080910402602001604051908101604052809291908181526020018280546122d29061379a565b801561231d5780601f106122f45761010080835404028352916020019161231d565b820191905f5260205f20905b81548152906001019060200180831161230057829003601f168201915b505050505090505b92915050565b5f7f000000000000000000000000000000000000000000000000000000000000000073ffffffffffffffffffffffffffffffffffffffff163073ffffffffffffffffffffffffffffffffffffffff161480156123a657507f000000000000000000000000000000000000000000000000000000000000000046145b156123d3577f000000000000000000000000000000000000000000000000000000000000000090506123de565b6123db612988565b90505b90565b5f6040517f190100000000000000000000000000000000000000000000000000000000000081528360028201528260228201526042812091505092915050565b5f5f5f7f7fffffffffffffffffffffffffffffff5d576e7357a4501ddfe92f46681b20a0845f1c111561245d575f6003859250925092506124fe565b5f6001888888886040515f81526020016040526040516124809493929190613bd7565b6020604051602081039080840390855afa1580156124a0573d5f5f3e3d5ffd5b5050506020604051035190505f73ffffffffffffffffffffffffffffffffffffffff168173ffffffffffffffffffffffffffffffffffffffff16036124f1575f60015f5f1b935093509350506124fe565b805f5f5f1b935093509350505b9450945094915050565b5f600381111561251b5761251a613c1a565b5b82600381111561252e5761252d613c1a565b5b0315612666576001600381111561254857612547613c1a565b5b82600381111561255b5761255a613c1a565b5b03612592576040517ff645eedf00000000000000000000000000000000000000000000000000000000815260040160405180910390fd5b600260038111156125a6576125a5613c1a565b5b8260038111156125b9576125b8613c1a565b5b036125fd57805f1c6040517ffce698f70000000000000000000000000000000000000000000000000000000081526004016125f4919061324b565b60405180910390fd5b6003808111156126105761260f613c1a565b5b82600381111561262357612622613c1a565b5b0361266557806040517fd78bce0c00000000000000000000000000000000000000000000000000000000815260040161265c9190613c47565b60405180910390fd5b5b5050565b5f60075f8373ffffffffffffffffffffffffffffffffffffffff1673ffffffffffffffffffffffffffffffffffffffff1681526020019081526020015f205f815480929190600101919050559050919050565b6126c561306e565b825f018263ffffffff16815481106126e0576126df613c60565b5b905f5260205f20016040518060400160405290815f82015f9054906101000a900465ffffffffffff1665ffffffffffff1665ffffffffffff1681526020015f820160069054906101000a900479ffffffffffffffffffffffffffffffffffffffffffffffffffff1679ffffffffffffffffffffffffffffffffffffffffffffffffffff1679ffffffffffffffffffffffffffffffffffffffffffffffffffff1681525050905092915050565b612797838383612a1d565b5f73ffffffffffffffffffffffffffffffffffffffff168373ffffffffffffffffffffffffffffffffffffffff160361282a575f6127d3610783565b90505f6127de612c36565b9050808211156128275781816040517f1cb15d2600000000000000000000000000000000000000000000000000000000815260040161281e929190613b50565b60405180910390fd5b50505b612835838383612c59565b505050565b5f8115159050919050565b5f60028284186128559190613c8d565b828416612862919061385f565b905092915050565b5f79ffffffffffffffffffffffffffffffffffffffffffffffffffff80168211156128cf5760d0826040517f6dfcc6500000000000000000000000000000000000000000000000000000000081526004016128c6929190613cf6565b60405180910390fd5b819050919050565b5f5f61290a6128e4610d70565b6128fa6128f088611956565b868863ffffffff16565b87612d119092919063ffffffff16565b91509150935093915050565b60605f61292283612d2c565b90505f602067ffffffffffffffff8111156129405761293f6138fa565b5b6040519080825280601f01601f1916602001820160405280156129725781602001600182028036833780820191505090505b5090508181528360208201528092505050919050565b5f7f8b73c3c69bb8fe3d512ecc4cf759cc79239f7b179b0ffacaa9a75d522b39400f7f00000000000000000000000000000000000000000000000000000000000000007f00000000000000000000000000000000000000000000000000000000000000004630604051602001612a02959493929190613d1d565b60405160208183030381529060405280519060200120905090565b5f73ffffffffffffffffffffffffffffffffffffffff168373ffffffffffffffffffffffffffffffffffffffff1603612a6d578060025f828254612a61919061385f565b92505081905550612b3b565b5f5f5f8573ffffffffffffffffffffffffffffffffffffffff1673ffffffffffffffffffffffffffffffffffffffff1681526020019081526020015f2054905081811015612af6578381836040517fe450d38c000000000000000000000000000000000000000000000000000000008152600401612aed93929190613a04565b60405180910390fd5b8181035f5f8673ffffffffffffffffffffffffffffffffffffffff1673ffffffffffffffffffffffffffffffffffffffff1681526020019081526020015f2081905550505b5f73ffffffffffffffffffffffffffffffffffffffff168273ffffffffffffffffffffffffffffffffffffffff1603612b82578060025f8282540392505081905550612bcc565b805f5f8473ffffffffffffffffffffffffffffffffffffffff1673ffffffffffffffffffffffffffffffffffffffff1681526020019081526020015f205f82825401925050819055505b8173ffffffffffffffffffffffffffffffffffffffff168373ffffffffffffffffffffffffffffffffffffffff167fddf252ad1be2c89b69c2b068fc378daa952ba7f163c4a11628f55a4df523b3ef83604051612c29919061324b565b60405180910390a3505050565b5f79ffffffffffffffffffffffffffffffffffffffffffffffffffff8016905090565b5f73ffffffffffffffffffffffffffffffffffffffff168373ffffffffffffffffffffffffffffffffffffffff1603612ca557612ca2600a61113e612c9d8461286a565b6128d7565b50505b5f73ffffffffffffffffffffffffffffffffffffffff168273ffffffffffffffffffffffffffffffffffffffff1603612cf157612cee600a611153612ce98461286a565b6128d7565b50505b612d0c612cfd84610aee565b612d0684610aee565b83611f67565b505050565b5f5f612d20855f018585612d7a565b91509150935093915050565b5f5f60ff835f1c169050601f811115612d71576040517fb3512b0c00000000000000000000000000000000000000000000000000000000815260040160405180910390fd5b80915050919050565b5f5f5f858054905090505f811115612f86575f612da387600184612d9e9190613a60565b611e8f565b90505f815f015f9054906101000a900465ffffffffffff1690505f825f0160069054906101000a900479ffffffffffffffffffffffffffffffffffffffffffffffffffff1690508765ffffffffffff168265ffffffffffff161115612e34576040517f2520601d00000000000000000000000000000000000000000000000000000000815260040160405180910390fd5b8765ffffffffffff168265ffffffffffff1603612e9e5786835f0160066101000a81548179ffffffffffffffffffffffffffffffffffffffffffffffffffff021916908379ffffffffffffffffffffffffffffffffffffffffffffffffffff160217905550612f77565b8860405180604001604052808a65ffffffffffff1681526020018979ffffffffffffffffffffffffffffffffffffffffffffffffffff16815250908060018154018082558091505060019003905f5260205f20015f909190919091505f820151815f015f6101000a81548165ffffffffffff021916908365ffffffffffff1602179055506020820151815f0160066101000a81548179ffffffffffffffffffffffffffffffffffffffffffffffffffff021916908379ffffffffffffffffffffffffffffffffffffffffffffffffffff16021790555050505b80879550955050505050613066565b8560405180604001604052808765ffffffffffff1681526020018679ffffffffffffffffffffffffffffffffffffffffffffffffffff16815250908060018154018082558091505060019003905f5260205f20015f909190919091505f820151815f015f6101000a81548165ffffffffffff021916908365ffffffffffff1602179055506020820151815f0160066101000a81548179ffffffffffffffffffffffffffffffffffffffffffffffffffff021916908379ffffffffffffffffffffffffffffffffffffffffffffffffffff16021790555050505f8492509250505b935093915050565b60405180604001604052805f65ffffffffffff1681526020015f79ffffffffffffffffffffffffffffffffffffffffffffffffffff1681525090565b5f81519050919050565b5f82825260208201905092915050565b8281835e5f83830152505050565b5f601f19601f8301169050919050565b5f6130ec826130aa565b6130f681856130b4565b93506131068185602086016130c4565b61310f816130d2565b840191505092915050565b5f6020820190508181035f83015261313281846130e2565b905092915050565b5f5ffd5b5f73ffffffffffffffffffffffffffffffffffffffff82169050919050565b5f6131678261313e565b9050919050565b6131778161315d565b8114613181575f5ffd5b50565b5f813590506131928161316e565b92915050565b5f819050919050565b6131aa81613198565b81146131b4575f5ffd5b50565b5f813590506131c5816131a1565b92915050565b5f5f604083850312156131e1576131e061313a565b5b5f6131ee85828601613184565b92505060206131ff858286016131b7565b9150509250929050565b5f8115159050919050565b61321d81613209565b82525050565b5f6020820190506132365f830184613214565b92915050565b61324581613198565b82525050565b5f60208201905061325e5f83018461323c565b92915050565b5f5f5f6060848603121561327b5761327a61313a565b5b5f61328886828701613184565b935050602061329986828701613184565b92505060406132aa868287016131b7565b9150509250925092565b5f602082840312156132c9576132c861313a565b5b5f6132d684828501613184565b91505092915050565b5f60ff82169050919050565b6132f4816132df565b82525050565b5f60208201905061330d5f8301846132eb565b92915050565b5f602082840312156133285761332761313a565b5b5f613335848285016131b7565b91505092915050565b6133478161315d565b82525050565b5f6020820190506133605f83018461333e565b92915050565b5f63ffffffff82169050919050565b61337e81613366565b82525050565b5f6020820190506133975f830184613375565b92915050565b5f7fff0000000000000000000000000000000000000000000000000000000000000082169050919050565b6133d18161339d565b82525050565b5f819050919050565b6133e9816133d7565b82525050565b5f81519050919050565b5f82825260208201905092915050565b5f819050602082019050919050565b61342181613198565b82525050565b5f6134328383613418565b60208301905092915050565b5f602082019050919050565b5f613454826133ef565b61345e81856133f9565b935061346983613409565b805f5b838110156134995781516134808882613427565b975061348b8361343e565b92505060018101905061346c565b5085935050505092915050565b5f60e0820190506134b95f83018a6133c8565b81810360208301526134cb81896130e2565b905081810360408301526134df81886130e2565b90506134ee606083018761323c565b6134fb608083018661333e565b61350860a08301856133e0565b81810360c083015261351a818461344a565b905098975050505050505050565b5f65ffffffffffff82169050919050565b61354281613528565b82525050565b5f60208201905061355b5f830184613539565b92915050565b61356a816132df565b8114613574575f5ffd5b50565b5f8135905061358581613561565b92915050565b613594816133d7565b811461359e575f5ffd5b50565b5f813590506135af8161358b565b92915050565b5f5f5f5f5f5f60c087890312156135cf576135ce61313a565b5b5f6135dc89828a01613184565b96505060206135ed89828a016131b7565b95505060406135fe89828a016131b7565b945050606061360f89828a01613577565b935050608061362089828a016135a1565b92505060a061363189828a016135a1565b9150509295509295509295565b5f5f604083850312156136545761365361313a565b5b5f61366185828601613184565b925050602061367285828601613184565b9150509250929050565b61368581613366565b811461368f575f5ffd5b50565b5f813590506136a08161367c565b92915050565b5f5f604083850312156136bc576136bb61313a565b5b5f6136c985828601613184565b92505060206136da85828601613692565b9150509250929050565b6136ed81613528565b82525050565b5f79ffffffffffffffffffffffffffffffffffffffffffffffffffff82169050919050565b613721816136f3565b82525050565b604082015f82015161373b5f8501826136e4565b50602082015161374e6020850182613718565b50505050565b5f6040820190506137675f830184613727565b92915050565b7f4e487b71000000000000000000000000000000000000000000000000000000005f52602260045260245ffd5b5f60028204905060018216806137b157607f821691505b6020821081036137c4576137c361376d565b5b50919050565b7f4e6f7420617574686f72697a656420746f206d696e74000000000000000000005f82015250565b5f6137fe6016836130b4565b9150613809826137ca565b602082019050919050565b5f6020820190508181035f83015261382b816137f2565b9050919050565b7f4e487b71000000000000000000000000000000000000000000000000000000005f52601160045260245ffd5b5f61386982613198565b915061387483613198565b925082820190508082111561388c5761388b613832565b5b92915050565b7f4d617820737570706c79206578636565646564000000000000000000000000005f82015250565b5f6138c66013836130b4565b91506138d182613892565b602082019050919050565b5f6020820190508181035f8301526138f3816138ba565b9050919050565b7f4e487b71000000000000000000000000000000000000000000000000000000005f52604160045260245ffd5b5f60808201905061393a5f8301876133e0565b613947602083018661333e565b613954604083018561323c565b613961606083018461323c565b95945050505050565b5f613974826136f3565b915061397f836136f3565b9250828201905079ffffffffffffffffffffffffffffffffffffffffffffffffffff8111156139b1576139b0613832565b5b92915050565b5f6139c1826136f3565b91506139cc836136f3565b9250828203905079ffffffffffffffffffffffffffffffffffffffffffffffffffff8111156139fe576139fd613832565b5b92915050565b5f606082019050613a175f83018661333e565b613a24602083018561323c565b613a31604083018461323c565b949350505050565b5f604082019050613a4c5f83018561323c565b613a596020830184613539565b9392505050565b5f613a6a82613198565b9150613a7583613198565b9250828203905081811115613a8d57613a8c613832565b5b92915050565b5f604082019050613aa65f83018561333e565b613ab3602083018461323c565b9392505050565b5f819050919050565b5f819050919050565b5f613ae6613ae1613adc84613aba565b613ac3565b6132df565b9050919050565b613af681613acc565b82525050565b5f604082019050613b0f5f830185613aed565b613b1c602083018461323c565b9392505050565b7f4e487b71000000000000000000000000000000000000000000000000000000005f52601260045260245ffd5b5f604082019050613b635f83018561323c565b613b70602083018461323c565b9392505050565b5f819050919050565b5f613b9a613b95613b9084613b77565b613ac3565b6132df565b9050919050565b613baa81613b80565b82525050565b5f604082019050613bc35f830185613ba1565b613bd0602083018461323c565b9392505050565b5f608082019050613bea5f8301876133e0565b613bf760208301866132eb565b613c0460408301856133e0565b613c1160608301846133e0565b95945050505050565b7f4e487b71000000000000000000000000000000000000000000000000000000005f52602160045260245ffd5b5f602082019050613c5a5f8301846133e0565b92915050565b7f4e487b71000000000000000000000000000000000000000000000000000000005f52603260045260245ffd5b5f613c9782613198565b9150613ca283613198565b925082613cb257613cb1613b23565b5b828204905092915050565b5f819050919050565b5f613ce0613cdb613cd684613cbd565b613ac3565b6132df565b9050919050565b613cf081613cc6565b82525050565b5f604082019050613d095f830185613ce7565b613d16602083018461323c565b9392505050565b5f60a082019050613d305f8301886133e0565b613d3d60208301876133e0565b613d4a60408301866133e0565b613d57606083018561323c565b613d64608083018461333e565b969550505050505056fea264697066735822122017f03510412473bda0371fc2d89992557c00ef2922933c447955746ec843cc5d64736f6c634300081e0033","linkReferences":{}},"methodIdentifiers":{"CLOCK_MODE()":"4bf5d7e9","INITIAL_SUPPLY()":"2ff2e9dc","MAX_SUPPLY()":"32cb6b0c","addMinter(address)":"983b2d56","allowance(address,address)":"dd62ed3e","approve(address,uint256)":"095ea7b3","balanceOf(address)":"70a08231","burn(uint256)":"42966c68","burnFrom(address,uint256)":"79cc6790","checkpoints(address,uint32)":"f1127ed8","clock()":"91ddadf4","decimals()":"313ce567","delegate(address)":"5c19a95c","delegateBySig(address,uint256,uint256,uint8,bytes32,bytes32)":"c3cda520","delegates(address)":"587cde1e","eip712Domain()":"84b0196e","getPastTotalSupply(uint256)":"8e539e8c","getPastVotes(address,uint256)":"3a46b1a8","getVotes(address)":"9ab24eb0","mint(address,uint256)":"40c10f19","minters(address)":"f46eccc4","name()":"06fdde03","nonces(address)":"7ecebe00","numCheckpoints(address)":"6fcfff45","owner()":"8da5cb5b","pause()":"8456cb59","paused()":"5c975abb","removeMinter(address)":"3092afd5","renounceOwnership()":"715018a6","symbol()":"95d89b41","totalSupply()":"18160ddd","transfer(address,uint256)":"a9059cbb","transferFrom(address,address,uint256)":"23b872dd","transferOwnership(address)":"f2fde38b","unpause()":"3f4ba83a"},"id":3}