{"abi":[{"type":"constructor","inputs":[],"stateMutability":"nonpayable"},{"type":"function","name":"INITIAL_SUPPLY","inputs":[],"outputs":[{"name":"","type":"uint256","internalType":"uint256"}],"stateMutability":"view"},{"type":"function","name":"MAX_SUPPLY","inputs":[],"outputs":[{"name":"","type":"uint256","internalType":"uint256"}],"stateMutability":"view"},{"type":"function","name":"addMinter","inputs":[{"name":"_minter","type":"address","internalType":"address"}],"outputs":[],"stateMutability":"nonpayable"},{"type":"function","name":"allowance","inputs":[{"name":"owner","type":"address","internalType":"address"},{"name":"spender","type":"address","internalType":"address"}],"outputs":[{"name":"","type":"uint256","internalType":"uint256"}],"stateMutability":"view"},{"type":"function","name":"approve","inputs":[{"name":"spender","type":"address","internalType":"address"},{"name":"value","type":"uint256","internalType":"uint256"}],"outputs":[{"name":"","type":"bool","internalType":"bool"}],"stateMutability":"nonpayable"},{"type":"function","name":"balanceOf","inputs":[{"name":"account","type":"address","internalType":"address"}],"outputs":[{"name":"","type":"uint256","internalType":"uint256"}],"stateMutability":"view"},{"type":"function","name":"burn","inputs":[{"name":"value","type":"uint256","internalType":"uint256"}],"outputs":[],"stateMutability":"nonpayable"},{"type":"function","name":"burnFrom","inputs":[{"name":"account","type":"address","internalType":"address"},{"name":"value","type":"uint256","internalType":"uint256"}],"outputs":[],"stateMutability":"nonpayable"},{"type":"function","name":"decimals","inputs":[],"outputs":[{"name":"","type":"uint8","internalType":"uint8"}],"stateMutability":"view"},{"type":"function","name":"mint","inputs":[{"name":"to","type":"address","internalType":"address"},{"name":"amount","type":"uint256","internalType":"uint256"}],"outputs":[],"stateMutability":"nonpayable"},{"type":"function","name":"minters","inputs":[{"name":"","type":"address","internalType":"address"}],"outputs":[{"name":"","type":"bool","internalType":"bool"}],"stateMutability":"view"},{"type":"function","name":"name","inputs":[],"outputs":[{"name":"","type":"string","internalType":"string"}],"stateMutability":"view"},{"type":"function","name":"owner","inputs":[],"outputs":[{"name":"","type":"address","internalType":"address"}],"stateMutability":"view"},{"type":"function","name":"pause","inputs":[],"outputs":[],"stateMutability":"nonpayable"},{"type":"function","name":"paused","inputs":[],"outputs":[{"name":"","type":"bool","internalType":"bool"}],"stateMutability":"view"},{"type":"function","name":"removeMinter","inputs":[{"name":"_minter","type":"address","internalType":"address"}],"outputs":[],"stateMutability":"nonpayable"},{"type":"function","name":"renounceOwnership","inputs":[],"outputs":[],"stateMutability":"nonpayable"},{"type":"function","name":"symbol","inputs":[],"outputs":[{"name":"","type":"string","internalType":"string"}],"stateMutability":"view"},{"type":"function","name":"totalSupply","inputs":[],"outputs":[{"name":"","type":"uint256","internalType":"uint256"}],"stateMutability":"view"},{"type":"function","name":"transfer","inputs":[{"name":"to","type":"address","internalType":"address"},{"name":"value","type":"uint256","internalType":"uint256"}],"outputs":[{"name":"","type":"bool","internalType":"bool"}],"stateMutability":"nonpayable"},{"type":"function","name":"transferFrom","inputs":[{"name":"from","type":"address","internalType":"address"},{"name":"to","type":"address","internalType":"address"},{"name":"value","type":"uint256","internalType":"uint256"}],"outputs":[{"name":"","type":"bool","internalType":"bool"}],"stateMutability":"nonpayable"},{"type":"function","name":"transferOwnership","inputs":[{"name":"newOwner","type":"address","internalType":"address"}],"outputs":[],"stateMutability":"nonpayable"},{"type":"function","name":"unpause","inputs":[],"outputs":[],"stateMutability":"nonpayable"},{"type":"event","name":"Approval","inputs":[{"name":"owner","type":"address","indexed":true,"internalType":"address"},{"name":"spender","type":"address","indexed":true,"internalType":"address"},{"name":"value","type":"uint256","indexed":false,"internalType":"uint256"}],"anonymous":false},{"type":"event","name":"MinterAdded","inputs":[{"name":"minter","type":"address","indexed":true,"internalType":"address"}],"anonymous":false},{"type":"event","name":"MinterRemoved","inputs":[{"name":"minter","type":"address","indexed":true,"internalType":"address"}],"anonymous":false},{"type":"event","name":"OwnershipTransferred","inputs":[{"name":"previousOwner","type":"address","indexed":true,"internalType":"address"},{"name":"newOwner","type":"address","indexed":true,"internalType":"address"}],"anonymous":false},{"type":"event","name":"Paused","inputs":[{"name":"account","type":"address","indexed":false,"internalType":"address"}],"anonymous":false},{"type":"event","name":"Transfer","inputs":[{"name":"from","type":"address","indexed":true,"internalType":"address"},{"name":"to","type":"address","indexed":true,"internalType":"address"},{"name":"value","type":"uint256","indexed":false,"internalType":"uint256"}],"anonymous":false},{"type":"event","name":"Unpaused","inputs":[{"name":"account","type":"address","indexed":false,"internalType":"address"}],"anonymous":false},{"type":"error","name":"ERC20InsufficientAllowance","inputs":[{"name":"spender","type":"address","internalType":"address"},{"name":"allowance","type":"uint256","internalType":"uint256"},{"name":"needed","type":"uint256","internalType":"uint256"}]},{"type":"error","name":"ERC20InsufficientBalance","inputs":[{"name":"sender","type":"address","internalType":"address"},{"name":"balance","type":"uint256","internalType":"uint256"},{"name":"needed","type":"uint256","internalType":"uint256"}]},{"type":"error","name":"ERC20InvalidApprover","inputs":[{"name":"approver","type":"address","internalType":"address"}]},{"type":"error","name":"ERC20InvalidReceiver","inputs":[{"name":"receiver","type":"address","internalType":"address"}]},{"type":"error","name":"ERC20InvalidSender","inputs":[{"name":"sender","type":"address","internalType":"address"}]},{"type":"error","name":"ERC20InvalidSpender","inputs":[{"name":"spender","type":"address","internalType":"address"}]},{"type":"error","name":"EnforcedPause","inputs":[]},{"type":"error","name":"ExpectedPause","inputs":[]},{"type":"error","name":"OwnableInvalidOwner","inputs":[{"name":"owner","type":"address","internalType":"address"}]},{"type":"error","name":"OwnableUnauthorizedAccount","inputs":[{"name":"account","type":"address","internalType":"address"}]}],"bytecode":{"object":"0x608060405234801561000f575f5ffd5b50336040518060400160405280600f81526020017f436861696e4869766520546f6b656e00000000000000000000000000000000008152506040518060400160405280600481526020017f4849564500000000000000000000000000000000000000000000000000000000815250816003908161008c919061075e565b50806004908161009c919061075e565b5050505f73ffffffffffffffffffffffffffffffffffffffff168173ffffffffffffffffffffffffffffffffffffffff160361010f575f6040517f1e4fbdf7000000000000000000000000000000000000000000000000000000008152600401610106919061086c565b60405180910390fd5b61011e8161013f60201b60201c565b5061013a336a52b7d2dcc80cd2e400000061020260201b60201c565b610942565b5f60055f9054906101000a900473ffffffffffffffffffffffffffffffffffffffff1690508160055f6101000a81548173ffffffffffffffffffffffffffffffffffffffff021916908373ffffffffffffffffffffffffffffffffffffffff1602179055508173ffffffffffffffffffffffffffffffffffffffff168173ffffffffffffffffffffffffffffffffffffffff167f8be0079c531659141344cd1fd0a4f28419497f9722a3daafe3b4186f6b6457e060405160405180910390a35050565b5f73ffffffffffffffffffffffffffffffffffffffff168273ffffffffffffffffffffffffffffffffffffffff1603610272575f6040517fec442f05000000000000000000000000000000000000000000000000000000008152600401610269919061086c565b60405180910390fd5b6102835f838361028760201b60201c565b5050565b6102956102ab60201b60201c565b6102a68383836102f260201b60201c565b505050565b6102b961050b60201b60201c565b156102f0576040517fd93c066500000000000000000000000000000000000000000000000000000000815260040160405180910390fd5b565b5f73ffffffffffffffffffffffffffffffffffffffff168373ffffffffffffffffffffffffffffffffffffffff1603610342578060025f82825461033691906108b2565b92505081905550610410565b5f5f5f8573ffffffffffffffffffffffffffffffffffffffff1673ffffffffffffffffffffffffffffffffffffffff1681526020019081526020015f20549050818110156103cb578381836040517fe450d38c0000000000000000000000000000000000000000000000000000000081526004016103c2939291906108f4565b60405180910390fd5b8181035f5f8673ffffffffffffffffffffffffffffffffffffffff1673ffffffffffffffffffffffffffffffffffffffff1681526020019081526020015f2081905550505b5f73ffffffffffffffffffffffffffffffffffffffff168273ffffffffffffffffffffffffffffffffffffffff1603610457578060025f82825403925050819055506104a1565b805f5f8473ffffffffffffffffffffffffffffffffffffffff1673ffffffffffffffffffffffffffffffffffffffff1681526020019081526020015f205f82825401925050819055505b8173ffffffffffffffffffffffffffffffffffffffff168373ffffffffffffffffffffffffffffffffffffffff167fddf252ad1be2c89b69c2b068fc378daa952ba7f163c4a11628f55a4df523b3ef836040516104fe9190610929565b60405180910390a3505050565b5f600560149054906101000a900460ff16905090565b5f81519050919050565b7f4e487b71000000000000000000000000000000000000000000000000000000005f52604160045260245ffd5b7f4e487b71000000000000000000000000000000000000000000000000000000005f52602260045260245ffd5b5f600282049050600182168061059c57607f821691505b6020821081036105af576105ae610558565b5b50919050565b5f819050815f5260205f209050919050565b5f6020601f8301049050919050565b5f82821b905092915050565b5f600883026106117fffffffffffffffffffffffffffffffffffffffffffffffffffffffffffffffff826105d6565b61061b86836105d6565b95508019841693508086168417925050509392505050565b5f819050919050565b5f819050919050565b5f61065f61065a61065584610633565b61063c565b610633565b9050919050565b5f819050919050565b61067883610645565b61068c61068482610666565b8484546105e2565b825550505050565b5f5f905090565b6106a3610694565b6106ae81848461066f565b505050565b5b818110156106d1576106c65f8261069b565b6001810190506106b4565b5050565b601f821115610716576106e7816105b5565b6106f0846105c7565b810160208510156106ff578190505b61071361070b856105c7565b8301826106b3565b50505b505050565b5f82821c905092915050565b5f6107365f198460080261071b565b1980831691505092915050565b5f61074e8383610727565b9150826002028217905092915050565b61076782610521565b67ffffffffffffffff8111156107805761077f61052b565b5b61078a8254610585565b6107958282856106d5565b5f60209050601f8311600181146107c6575f84156107b4578287015190505b6107be8582610743565b865550610825565b601f1984166107d4866105b5565b5f5b828110156107fb578489015182556001820191506020850194506020810190506107d6565b868310156108185784890151610814601f891682610727565b8355505b6001600288020188555050505b505050505050565b5f73ffffffffffffffffffffffffffffffffffffffff82169050919050565b5f6108568261082d565b9050919050565b6108668161084c565b82525050565b5f60208201905061087f5f83018461085d565b92915050565b7f4e487b71000000000000000000000000000000000000000000000000000000005f52601160045260245ffd5b5f6108bc82610633565b91506108c783610633565b92508282019050808211156108df576108de610885565b5b92915050565b6108ee81610633565b82525050565b5f6060820190506109075f83018661085d565b61091460208301856108e5565b61092160408301846108e5565b949350505050565b5f60208201905061093c5f8301846108e5565b92915050565b61188e8061094f5f395ff3fe608060405234801561000f575f5ffd5b506004361061014b575f3560e01c80635c975abb116100c157806395d89b411161007a57806395d89b411461033f578063983b2d561461035d578063a9059cbb14610379578063dd62ed3e146103a9578063f2fde38b146103d9578063f46eccc4146103f55761014b565b80635c975abb146102a357806370a08231146102c1578063715018a6146102f157806379cc6790146102fb5780638456cb59146103175780638da5cb5b146103215761014b565b80633092afd5116101135780633092afd514610209578063313ce5671461022557806332cb6b0c146102435780633f4ba83a1461026157806340c10f191461026b57806342966c68146102875761014b565b806306fdde031461014f578063095ea7b31461016d57806318160ddd1461019d57806323b872dd146101bb5780632ff2e9dc146101eb575b5f5ffd5b610157610425565b604051610164919061140c565b60405180910390f35b610187600480360381019061018291906114bd565b6104b5565b6040516101949190611515565b60405180910390f35b6101a56104d7565b6040516101b2919061153d565b60405180910390f35b6101d560048036038101906101d09190611556565b6104e0565b6040516101e29190611515565b60405180910390f35b6101f361050e565b604051610200919061153d565b60405180910390f35b610223600480360381019061021e91906115a6565b61051d565b005b61022d6105bf565b60405161023a91906115ec565b60405180910390f35b61024b6105c7565b604051610258919061153d565b60405180910390f35b6102696105d7565b005b610285600480360381019061028091906114bd565b6105e9565b005b6102a1600480360381019061029c9190611605565b61071e565b005b6102ab610732565b6040516102b89190611515565b60405180910390f35b6102db60048036038101906102d691906115a6565b610748565b6040516102e8919061153d565b60405180910390f35b6102f961078d565b005b610315600480360381019061031091906114bd565b6107a0565b005b61031f6107c0565b005b6103296107d2565b604051610336919061163f565b60405180910390f35b6103476107fa565b604051610354919061140c565b60405180910390f35b610377600480360381019061037291906115a6565b61088a565b005b610393600480360381019061038e91906114bd565b61092d565b6040516103a09190611515565b60405180910390f35b6103c360048036038101906103be9190611658565b61094f565b6040516103d0919061153d565b60405180910390f35b6103f360048036038101906103ee91906115a6565b6109d1565b005b61040f600480360381019061040a91906115a6565b610a55565b60405161041c9190611515565b60405180910390f35b606060038054610434906116c3565b80601f0160208091040260200160405190810160405280929190818152602001828054610460906116c3565b80156104ab5780601f10610482576101008083540402835291602001916104ab565b820191905f5260205f20905b81548152906001019060200180831161048e57829003601f168201915b5050505050905090565b5f5f6104bf610a72565b90506104cc818585610a79565b600191505092915050565b5f600254905090565b5f5f6104ea610a72565b90506104f7858285610a8b565b610502858585610b1e565b60019150509392505050565b6a52b7d2dcc80cd2e400000081565b610525610c0e565b5f60065f8373ffffffffffffffffffffffffffffffffffffffff1673ffffffffffffffffffffffffffffffffffffffff1681526020019081526020015f205f6101000a81548160ff0219169083151502179055508073ffffffffffffffffffffffffffffffffffffffff167fe94479a9f7e1952cc78f2d6baab678adc1b772d936c6583def489e524cb6669260405160405180910390a250565b5f6012905090565b6b033b2e3c9fd0803ce800000081565b6105df610c0e565b6105e7610c95565b565b60065f3373ffffffffffffffffffffffffffffffffffffffff1673ffffffffffffffffffffffffffffffffffffffff1681526020019081526020015f205f9054906101000a900460ff168061067057506106416107d2565b73ffffffffffffffffffffffffffffffffffffffff163373ffffffffffffffffffffffffffffffffffffffff16145b6106af576040517f08c379a00000000000000000000000000000000000000000000000000000000081526004016106a69061173d565b60405180910390fd5b6b033b2e3c9fd0803ce8000000816106c56104d7565b6106cf9190611788565b1115610710576040517f08c379a000000000000000000000000000000000000000000000000000000000815260040161070790611805565b60405180910390fd5b61071a8282610cf7565b5050565b61072f610729610a72565b82610d76565b50565b5f600560149054906101000a900460ff16905090565b5f5f5f8373ffffffffffffffffffffffffffffffffffffffff1673ffffffffffffffffffffffffffffffffffffffff1681526020019081526020015f20549050919050565b610795610c0e565b61079e5f610df5565b565b6107b2826107ac610a72565b83610a8b565b6107bc8282610d76565b5050565b6107c8610c0e565b6107d0610eb8565b565b5f60055f9054906101000a900473ffffffffffffffffffffffffffffffffffffffff16905090565b606060048054610809906116c3565b80601f0160208091040260200160405190810160405280929190818152602001828054610835906116c3565b80156108805780601f1061085757610100808354040283529160200191610880565b820191905f5260205f20905b81548152906001019060200180831161086357829003601f168201915b5050505050905090565b610892610c0e565b600160065f8373ffffffffffffffffffffffffffffffffffffffff1673ffffffffffffffffffffffffffffffffffffffff1681526020019081526020015f205f6101000a81548160ff0219169083151502179055508073ffffffffffffffffffffffffffffffffffffffff167f6ae172837ea30b801fbfcdd4108aa1d5bf8ff775444fd70256b44e6bf3dfc3f660405160405180910390a250565b5f5f610937610a72565b9050610944818585610b1e565b600191505092915050565b5f60015f8473ffffffffffffffffffffffffffffffffffffffff1673ffffffffffffffffffffffffffffffffffffffff1681526020019081526020015f205f8373ffffffffffffffffffffffffffffffffffffffff1673ffffffffffffffffffffffffffffffffffffffff1681526020019081526020015f2054905092915050565b6109d9610c0e565b5f73ffffffffffffffffffffffffffffffffffffffff168173ffffffffffffffffffffffffffffffffffffffff1603610a49575f6040517f1e4fbdf7000000000000000000000000000000000000000000000000000000008152600401610a40919061163f565b60405180910390fd5b610a5281610df5565b50565b6006602052805f5260405f205f915054906101000a900460ff1681565b5f33905090565b610a868383836001610f1b565b505050565b5f610a96848461094f565b90507fffffffffffffffffffffffffffffffffffffffffffffffffffffffffffffffff811015610b185781811015610b09578281836040517ffb8f41b2000000000000000000000000000000000000000000000000000000008152600401610b0093929190611823565b60405180910390fd5b610b1784848484035f610f1b565b5b50505050565b5f73ffffffffffffffffffffffffffffffffffffffff168373ffffffffffffffffffffffffffffffffffffffff1603610b8e575f6040517f96c6fd1e000000000000000000000000000000000000000000000000000000008152600401610b85919061163f565b60405180910390fd5b5f73ffffffffffffffffffffffffffffffffffffffff168273ffffffffffffffffffffffffffffffffffffffff1603610bfe575f6040517fec442f05000000000000000000000000000000000000000000000000000000008152600401610bf5919061163f565b60405180910390fd5b610c098383836110ea565b505050565b610c16610a72565b73ffffffffffffffffffffffffffffffffffffffff16610c346107d2565b73ffffffffffffffffffffffffffffffffffffffff1614610c9357610c57610a72565b6040517f118cdaa7000000000000000000000000000000000000000000000000000000008152600401610c8a919061163f565b60405180910390fd5b565b610c9d611102565b5f600560146101000a81548160ff0219169083151502179055507f5db9ee0a495bf2e6ff9c91a7834c1ba4fdd244a5e8aa4e537bd38aeae4b073aa610ce0610a72565b604051610ced919061163f565b60405180910390a1565b5f73ffffffffffffffffffffffffffffffffffffffff168273ffffffffffffffffffffffffffffffffffffffff1603610d67575f6040517fec442f05000000000000000000000000000000000000000000000000000000008152600401610d5e919061163f565b60405180910390fd5b610d725f83836110ea565b5050565b5f73ffffffffffffffffffffffffffffffffffffffff168273ffffffffffffffffffffffffffffffffffffffff1603610de6575f6040517f96c6fd1e000000000000000000000000000000000000000000000000000000008152600401610ddd919061163f565b60405180910390fd5b610df1825f836110ea565b5050565b5f60055f9054906101000a900473ffffffffffffffffffffffffffffffffffffffff1690508160055f6101000a81548173ffffffffffffffffffffffffffffffffffffffff021916908373ffffffffffffffffffffffffffffffffffffffff1602179055508173ffffffffffffffffffffffffffffffffffffffff168173ffffffffffffffffffffffffffffffffffffffff167f8be0079c531659141344cd1fd0a4f28419497f9722a3daafe3b4186f6b6457e060405160405180910390a35050565b610ec0611142565b6001600560146101000a81548160ff0219169083151502179055507f62e78cea01bee320cd4e420270b5ea74000d11b0c9f74754ebdbfc544b05a258610f04610a72565b604051610f11919061163f565b60405180910390a1565b5f73ffffffffffffffffffffffffffffffffffffffff168473ffffffffffffffffffffffffffffffffffffffff1603610f8b575f6040517fe602df05000000000000000000000000000000000000000000000000000000008152600401610f82919061163f565b60405180910390fd5b5f73ffffffffffffffffffffffffffffffffffffffff168373ffffffffffffffffffffffffffffffffffffffff1603610ffb575f6040517f94280d62000000000000000000000000000000000000000000000000000000008152600401610ff2919061163f565b60405180910390fd5b8160015f8673ffffffffffffffffffffffffffffffffffffffff1673ffffffffffffffffffffffffffffffffffffffff1681526020019081526020015f205f8573ffffffffffffffffffffffffffffffffffffffff1673ffffffffffffffffffffffffffffffffffffffff1681526020019081526020015f208190555080156110e4578273ffffffffffffffffffffffffffffffffffffffff168473ffffffffffffffffffffffffffffffffffffffff167f8c5be1e5ebec7d5bd14f71427d1e84f3dd0314c0f7b2291e5b200ac8c7c3b925846040516110db919061153d565b60405180910390a35b50505050565b6110f2611142565b6110fd838383611183565b505050565b61110a610732565b611140576040517f8dfc202b00000000000000000000000000000000000000000000000000000000815260040160405180910390fd5b565b61114a610732565b15611181576040517fd93c066500000000000000000000000000000000000000000000000000000000815260040160405180910390fd5b565b5f73ffffffffffffffffffffffffffffffffffffffff168373ffffffffffffffffffffffffffffffffffffffff16036111d3578060025f8282546111c79190611788565b925050819055506112a1565b5f5f5f8573ffffffffffffffffffffffffffffffffffffffff1673ffffffffffffffffffffffffffffffffffffffff1681526020019081526020015f205490508181101561125c578381836040517fe450d38c00000000000000000000000000000000000000000000000000000000815260040161125393929190611823565b60405180910390fd5b8181035f5f8673ffffffffffffffffffffffffffffffffffffffff1673ffffffffffffffffffffffffffffffffffffffff1681526020019081526020015f2081905550505b5f73ffffffffffffffffffffffffffffffffffffffff168273ffffffffffffffffffffffffffffffffffffffff16036112e8578060025f8282540392505081905550611332565b805f5f8473ffffffffffffffffffffffffffffffffffffffff1673ffffffffffffffffffffffffffffffffffffffff1681526020019081526020015f205f82825401925050819055505b8173ffffffffffffffffffffffffffffffffffffffff168373ffffffffffffffffffffffffffffffffffffffff167fddf252ad1be2c89b69c2b068fc378daa952ba7f163c4a11628f55a4df523b3ef8360405161138f919061153d565b60405180910390a3505050565b5f81519050919050565b5f82825260208201905092915050565b8281835e5f83830152505050565b5f601f19601f8301169050919050565b5f6113de8261139c565b6113e881856113a6565b93506113f88185602086016113b6565b611401816113c4565b840191505092915050565b5f6020820190508181035f83015261142481846113d4565b905092915050565b5f5ffd5b5f73ffffffffffffffffffffffffffffffffffffffff82169050919050565b5f61145982611430565b9050919050565b6114698161144f565b8114611473575f5ffd5b50565b5f8135905061148481611460565b92915050565b5f819050919050565b61149c8161148a565b81146114a6575f5ffd5b50565b5f813590506114b781611493565b92915050565b5f5f604083850312156114d3576114d261142c565b5b5f6114e085828601611476565b92505060206114f1858286016114a9565b9150509250929050565b5f8115159050919050565b61150f816114fb565b82525050565b5f6020820190506115285f830184611506565b92915050565b6115378161148a565b82525050565b5f6020820190506115505f83018461152e565b92915050565b5f5f5f6060848603121561156d5761156c61142c565b5b5f61157a86828701611476565b935050602061158b86828701611476565b925050604061159c868287016114a9565b9150509250925092565b5f602082840312156115bb576115ba61142c565b5b5f6115c884828501611476565b91505092915050565b5f60ff82169050919050565b6115e6816115d1565b82525050565b5f6020820190506115ff5f8301846115dd565b92915050565b5f6020828403121561161a5761161961142c565b5b5f611627848285016114a9565b91505092915050565b6116398161144f565b82525050565b5f6020820190506116525f830184611630565b92915050565b5f5f6040838503121561166e5761166d61142c565b5b5f61167b85828601611476565b925050602061168c85828601611476565b9150509250929050565b7f4e487b71000000000000000000000000000000000000000000000000000000005f52602260045260245ffd5b5f60028204905060018216806116da57607f821691505b6020821081036116ed576116ec611696565b5b50919050565b7f4e6f7420617574686f72697a656420746f206d696e74000000000000000000005f82015250565b5f6117276016836113a6565b9150611732826116f3565b602082019050919050565b5f6020820190508181035f8301526117548161171b565b9050919050565b7f4e487b71000000000000000000000000000000000000000000000000000000005f52601160045260245ffd5b5f6117928261148a565b915061179d8361148a565b92508282019050808211156117b5576117b461175b565b5b92915050565b7f4d617820737570706c79206578636565646564000000000000000000000000005f82015250565b5f6117ef6013836113a6565b91506117fa826117bb565b602082019050919050565b5f6020820190508181035f83015261181c816117e3565b9050919050565b5f6060820190506118365f830186611630565b611843602083018561152e565b611850604083018461152e565b94935050505056fea2646970667358221220b77d01f5fd697217743bd9150420f2d710b910a63fcf1d644b76e61a33448af564736f6c634300081e0033","linkReferences":{}},"methodIdentifiers":{"INITIAL_SUPPLY()":"2ff2e9dc","MAX_SUPPLY()":"32cb6b0c","addMinter(address)":"983b2d56","allowance(address,address)":"dd62ed3e","approve(address,uint256)":"095ea7b3","balanceOf(address)":"70a08231","burn(uint256)":"42966c68","burnFrom(address,uint256)":"79cc6790","decimals()":"313ce567","mint(address,uint256)":"40c10f19","minters(address)":"f46eccc4","name()":"06fdde03","owner()":"8da5cb5b","pause()":"8456cb59","paused()":"5c975abb","removeMinter(address)":"3092afd5","renounceOwnership()":"715018a6","symbol()":"95d89b41","totalSupply()":"18160ddd","transfer(address,uint256)":"a9059cbb","transferFrom(address,address,uint256)":"23b872dd","transferOwnership(address)":"f2fde38b","unpause()":"3f4ba83a"},"id":3}